:0408000055EF04F0BC
:10080800FACF15F0FBCF16F0E9CF17F08EEF15F001
:10081800D8CF01F0E8CF02F0E0CF03F0FACF04F030
:10082800FBCF05F0E9CF06F0EACF07F0E1CF08F0FB
:10083800E2CF09F0D9CF0AF0DACF0BF0F3CF0CF002
:10084800F4CF0DF0F6CF0EF0F7CF0FF0F8CF10F091
:10085800F5CF11F09EA202D09E9200D011C0F5FFF4
:1008680010C0F8FF0FC0F7FF0EC0F6FF0DC0F4FF71
:100878000CC0F3FF0BC0DAFF0AC0D9FF09C0E2FFC2
:1008880008C0E1FF07C0EAFF06C0E9FF05C0FBFF9B
:1008980004C0FAFF03C0E0FF02C0E8FF01C0D8FFB0
:0608A80010003CEF13F00C
:1009000000A8094E0974099E090B09090243000257
:100910000100C032090400000102020100052400A8
:10092000100104240202052406000105240100012F
:100930000705810308000209040100020A00000003
:10094000070502024000000705820240000026035E
:100950006300400072007300740065006E00700058
:100960007200650073007300650072002E00640061
:100970006500000018034B00610072006100740004
:1009800065006C00690067006800740012010002D5
:1009900002000008D8040A00000101020301180344
:1009A0003200330061006600040309040000000EF9
:1009B0000001E66F000E0001E96F000EE86F230EE4
:1009C0000001EB6F420E0001EC6F1F0E00019765F6
:1009D000120060B2120001D01200000E2A6E010E49
:1009E0002B6E400E2C6E9AEC13F00001ED6F030E8F
:1009F0000001ED652BD2AA0E01010019D8A426D260
:100A000003C1EFF001C1EAF002C1E5F00001ED51D0
:100A10000001E16FE26B0001EF510001E36FE46B55
:100A2000040E0001E327000EE4230001E151000160
:100A3000E31905E10001E2510001E419D8A402D252
:100A400001010151010100190001E76F030E0001CE
:100A5000EE6F0FD00001EE51010D000EF324D96EA0
:100A6000010EF420DA6EDF500001E71B0001EE2BCF
:100A700000D00001ED510001EE5DD8A0EBD70001E0
:100A8000E7510001E519D8A4D9D18B84800E00016B
:100A90009C6FA3D10001EF510001D8A418D03DEC08
:100AA0001AF000D032EC1AF00009D8A4FBD72AECD7
:100AB0001AF023C0E8F024C0E9F0E8C044F10001D6
:100AC000E9510101456F020ED5EC15F01200030E3D
:100AD00016EC18F0120000D0200E0001EF19D8A477
:100AE00038D0000E0001A06F000E0001EE6F1F0E47
:100AF0000001EE6501D023D00001EA39E846E00BA1
:100B00000001EE250001E66F0001EE510001E16FEA
:100B1000E26B040E0001E127000EE223000E00014B
:100B2000E125D96E010E0001E221DA6EDF50266E5A
:100B30000001E65187EC0AF00001EE2BD8D7010E38
:100B40000001A06F0001924B932B010E16EC18F0E0
:100B50001200030E16EC18F012000001DD51000126
:100B6000EF19D8A432D0000E0001A06F000E0001D2
:100B7000EE6F1BD00001EE510001E16FE26B040E3D
:100B80000001E127000EE223000E0001E125D96EED
:100B9000010E0001E221DA6EDF50266E0001EE51F7
:100BA00087EC0AF00001EE2B00D00001DD510001BE
:100BB000EE5DD8A0DFD7010E0001A06F0001924BBF
:100BC000932B010E16EC18F01200030E16EC18F021
:100BD0001200020E0001EF19D8A410D0000E00017F
:100BE000A06F05C126F00101045187EC0AF0010E47
:100BF0000001A06F010E16EC18F01200030E16ECA7
:100C000018F012000001EF510001D8A408D05EECEA
:100C100016F05FC044F1010ED5EC15F01200030E82
:100C200016EC18F012000001EF510001D8A40BD00F
:100C30005EEC16F0DDC044F1000E0101456F020EBE
:100C4000D5EC15F01200030E16EC18F0120000019E
:100C5000EF510001D8A40BD053EC14F04AC044F17A
:100C60004B500101456F020ED5EC15F01200030E3A
:100C700016EC18F01200020E0001EF19D8A40ED0E5
:100C800001010451FF0A0001A26F01010551FF0A91
:100C90000001A16F010E16EC18F01200030E16EC05
:100CA00018F012000001EF05D8A40DD039EC1AF0AD
:100CB00004C123F0246AFCEC19F00101446F010E19
:100CC000D5EC15F01200030E16EC18F01200020E0F
:100CD0000001EF19D8A40DD039EC1AF004C123F0AB
:100CE000246A05C125F0A3EC18F0010E16EC18F0EB
:100CF0001200030E16EC18F012000001EF51000173
:100D0000D8A407D0340E0101446F010ED5EC15F0C4
:100D10001200030E16EC18F012000001EF51000152
:100D2000D8A407D0010E0101446F010ED5EC15F0D7
:100D30001200030E16EC18F012000001EF51000132
:100D4000D8A408D0EBC044F1ECC045F1020ED5ECBC
:100D500015F01200030E16EC18F01200020E00013E
:100D6000EF19D8A432D00001EB5101010419D8A425
:100D700028D00001EC5101010519D8A422D0F29E1F
:100D8000CDC0D9FFCEC0DAFF000EDF6ED5C0D9FFCF
:100D9000D6C0DAFF000EDF6E000E0001976F76EC12
:100DA00008F0120E06EC1AF0900E0001F119000185
:100DB000F211D8B403D09EEF03F0120092EF03F0CB
:100DC0001200020E16EC18F01200030E16EC18F0CA
:100DD0001200FF0E16EC18F012000001EA51010A91
:100DE000D8B48BD7030AD8B498D7130AD8B4F1D69D
:100DF000030AD8B4B2D6010AD8B404D7070AD8B4C3
:100E000026D7010AD8B437D7350AD8B465D6010A2F
:100E1000D8B462D6110AD8B406D7700AD8B43AD674
:100E2000100AD8B43FD7010AD8B451D7D10AD8B4E0
:100E300084D7010AD8B492D7CCD71200040E16EC8E
:100E400018F01200030E16EC18F01200000E00014C
:100E5000EF6F1200120004013205D8A412D0040171
:100E600030511F0B0009D8A40CD0598E030E040179
:100E70003119D8A402D0010E01D0000E0001956FE7
:100E800000D004013251D8A41200040130511F0BCC
:100E9000020AD8A41200040134510F0B0009D8B47F
:100EA0001200040134510F0B376E030E376012002D
:100EB000200E00019719D8A41200598E040134BFE6
:100EC0001BD0040134510F0B376E3750020D720ED8
:100ED000F324D96E000EF420DA6EDECF3BF0DDCFC6
:100EE0003CF0040134510F0B376E3750010D7F0E6B
:100EF000F324D96E000E1AD0040134510F0B376E53
:100F00003750020D3E0EF324D96E000EF420DA6E37
:100F1000DECF3BF0DDCF3CF0040134510F0B376ED8
:100F20003750010D7C0EF324D96E000EF420DA6EDA
:100F3000DF503A6E00D03AB002D03B9402D03B84EE
:100F400000D0040134BF0BD0040134510F0B376EB5
:100F50003750020D720EF324D96E000E0AD0040130
:100F600034510F0B376E3750020D3E0EF324D96EFD
:100F7000000EF420DA6E3BC0DEFF3CC0DDFF00D087
:100F8000030E04013119D8A430D03BC0D9FF3CC0B6
:100F9000DAFFDFAE1DD0040134BF0BD004013451A1
:100FA0000F0B376E3750010D7F0EF324D96E000EF4
:100FB0000AD0040134510F0B376E3750010D7C0EEF
:100FC000F324D96E000EF420DA6E0001DF8200D027
:100FD0003BC0D9FF3CC0DAFF000EDB843BC0D9FF29
:100FE0003CC0DAFF000EDB8E1200040E3B1A3BC041
:100FF000D9FF3CC0DAFFDFAE1BD03BC0D9FF3CC0FD
:10100000DAFF7F0EDF163BC0D9FF3CC0DAFF000ECF
:10101000DB8C000E306E050E2F6E3BC031F03CC0F5
:1010200032F0000E346E020E336E32EC17F007D041
:101030003BC0D9FF3CC0DAFF000EDB8C00D0040EB1
:101040003B1A3AB206D03BC0D9FF3CC0DAFFDFAE54
:1010500032D0040134BF0BD0040134510F0B376E72
:101060003750010D7F0EF324D96E000E0AD0040113
:1010700034510F0B376E3750010D7C0EF324D96EAF
:10108000000EF420DA6E0001DF9200D03BC0D9FFE1
:101090003CC0DAFF3B0EDF16000E306E050E2F6EE1
:1010A0003BC031F03CC032F0000E346E020E336EA5
:1010B00032EC17F007D03BC0D9FF3CC0DAFF3B0E43
:1010C000DF1600D0040134510F0B376E3750010D7D
:1010D000F3505D24386EF4505E20396E38C0D9FF6D
:1010E00039C0DAFFFE0EDF161200120082BC12D0E9
:1010F000CDC0D9FFCEC0DAFF000EDF6ED5C0D9FF5C
:10110000D6C0DAFF000EDF6E000E0001976FDAEC3A
:1011100018F0120000019751D8A42ED0CDC0D9FFED
:10112000CEC0DAFF000EDF6ED5C0D9FFD6C0DAFF21
:10113000000EDF6ECBC0D9FFCCC0DAFF160EDF6E1B
:10114000CFC0D9FFD0C0DAFF9F0EDF6E7B0E646E7A
:1011500008D0CDC0D9FFCEC0DAFF000EDB868B747D
:1011600000D0CDC0D9FFCEC0DAFF0001DFA6F1D795
:10117000010E0001976F00D000019705D8B460BA46
:1011800012D0D7C0D9FFD8C0DAFF000EDF6ED5C0AD
:10119000D9FFD6C0DAFF000EDF6E64806488020ECD
:1011A0000001976F00D065B464A404D0659485EC09
:1011B00018F000D060A203D0DAEC18F0120065B08D
:1011C00064A007D052EC0BF0040E0001976F6590FD
:1011D00000D065B864A804D0C0EC18F0659800D0C1
:1011E00065AC20D064AC0FD0000E306E730E2F6E45
:1011F000000E316E000E326E000E346E010E336E34
:1012000032EC17F000D0659C00019851D8B403D09F
:101210000001980700D000019851D8A403D016EC23
:1012200012F000D065BA64AA03D0BFEC17F000D06A
:1012300065B264A214D07F0E306E2F68000E316E3E
:10124000000E326E000E346E010E336E32EC17F06B
:10125000D1C0D9FFD2C0DAFF000EDF6E00D0040E7D
:101260000001976103D0DAEC18F0120064A64CD0AC
:10127000000E0001E06F030E0001E06501D044D0D4
:1012800065A642D0D9C0D9FFDAC0DAFFDF5000012D
:10129000B46F0001B431E832E8320F0B00019B6FEC
:1012A00065960001B4B508D000019B51010D7F0E79
:1012B000F324D96E000E07D000019B51010D7C0E66
:1012C000F324D96E000EF420DA6E0001DF7000D036
:1012D00000019B510001D8A403D03DEC11F010D0C7
:1012E000000E306E720E2F6EB40E316E000E326E26
:1012F000000E346E000E336E32EC17F001D004D0C5
:101300000001E02BB8D700D0DAEC18F01200000092
:1013100000000000000000000000000001000100CB
:1013200001000100020002000200030003000400AB
:101330000500050006000700080009000A000B0070
:101340000C000E000F001000120013001500170013
:1013500019001B001D001F0021002300250028008C
:101360002A002D0030003300360039003C003F00D9
:101370004200460049004D005100550058005D00F4
:101380006100650069006E00730077007C008100D9
:1013900086008C00910096009C00A200A800AD0081
:1013A000B400BA00C000C700CD00D400DB00E200EA
:1013B000E900F000F800FF0007010E0116011E0110
:1013C00027012F0138014001490152015B016401ED
:1013D0006D01770181018A0194019E01A901B30188
:1013E000BE01C801D301DE01E901F40100020C02D3
:1013F000170223022F023C024802540261026E02CD
:101400007B0288029602A302B102BF02CD02DB0278
:10141000E902F802070315032503340343035303CA
:101420006203720382039303A303B403C403D503CB
:10143000E603F80309041B042D043F04510463046C
:10144000760489049C04AF04C204D604E904FD04B4
:10145000110525053A054E05630578058D05A3059B
:10146000B805CE05E405FA05100627063E06550622
:101470006C0683069B06B206CA06E206FB06130745
:101480002C0745075E0777079107AA07C407DE0701
:10149000F90713082E084908640880089B08B70854
:1014A000D308EF080B092809450962097F099D093E
:1014B000BA09D809F609150A330A520A710A900ABC
:1014C000B00ACF0AEF0A0F0B2F0B500B710B920BC8
:1014D000B30BD40BF60B180C3A0C5C0C7E0CA10C65
:1014E000C40CE70C0B0D2E0D520D760D9B0DBF0D90
:1014F000E40D090E2E0E540E790E9F0EC50EEC0E45
:10150000120F390F600F880FAF0FD70FFF0F2A6E22
:10151000000E2D6E000E2E6E000E2C6E000E2B6E29
:101520000001DD512A5CD8B0120001D01200265013
:10153000D8EC19F0231C2B6E241C2C6E300E0001ED
:10154000DD19D8A409D0180E2A6003D0180E2A2657
:1015500003D0180E2A5E00D02A50030DF3CF2DF0D1
:10156000D8902D302E6E2DA013D02E50010D800E50
:10157000F324D96E010EF420DA6EF00EDF162BC0C4
:1015800027F02CC028F028C027F0286A0F0E16D0AC
:101590002E50010D800EF324D96E010EF420DA6E68
:1015A0000F0EDF162BC027F02CC028F0040E296E7A
:1015B000D89028322732292EFBD7F00E27162E502E
:1015C000010D800EF324D96E010EF420DA6E27503F
:1015D000DF1200D02D2AD8902D302E6E2DA017D0DE
:1015E0002E50010D800EF324D96E010EF420DA6E18
:1015F000F00EDF162BC027F02CC028F0040E296E49
:10160000D89028322732292EFBD70F0E0DD02E501E
:10161000010D800EF324D96E010EF420DA6E0F0E48
:10162000DF162BC027F0F00E27162E50010D800E6E
:10163000F324D96E010EF420DA6E2750DF1200D0A9
:101640002D2AD8902D302E6E2DA00ED02E50010DAB
:10165000800EF324D96E010EF420DA6EF00EDF1640
:101660002BC027F00F0E10D02E50010D800EF3244A
:10167000D96E010EF420DA6E0F0EDF162BC027F0A4
:101680000F0E2716273AF00E27162E50010D800E4A
:10169000F324D96E010EF420DA6E2750DF1200D049
:1016A0002D2A12000AEC19F0D1C0D9FFD2C0DAFFFE
:1016B000000EDF6ED7C0D9FFD8C0DAFF000EDF6E94
:1016C0005DC0D9FF5EC0DAFF000EDF6ED3C023F02D
:1016D000D4C024F0000E266E000E256E000E286E7B
:1016E000020E276E3AEC19F0CBC0D9FFCCC0DAFF5E
:1016F000160EDF6ECFC0D9FFD0C0DAFF9F0EDF6EAF
:101700007B0E646E000E2B6E0ED010D02B50040D8D
:10171000000EF324D96E040EF420DA6EDE6ADE6A5F
:10172000DE6ADD6A2B2A0B0E2B64F0D7608CC9C0F1
:10173000D9FFCAC0DAFF000EDF6E6098609C0CD043
:101740006596000E596E000E00016D6F000E0001CF
:101750006F6F000E6E6F00D065B6F2D7010E4F6E40
:10176000010E506E000E4C6E000E4D6E000E00010C
:10177000966F000E2B6E020E2B6401D02ED02B50D4
:10178000020D3E0EF324D96E000EF420DA6E000E28
:10179000DE6E000EDD6E2B50020D720EF324D96E3C
:1017A000000EF420DA6E000EDE6E000EDD6E2B50A1
:1017B000010D7C0EF324D96E000EF420DA6E000EBB
:1017C000DF6E2B50010D7F0EF324D96E000EF42036
:1017D000DA6E000EDF6E2B2ACED7080E3E6E040E98
:1017E0003F6E5DC0D9FF5EC0DAFF160EDF6E040EDD
:1017F0000401036F300E026F080E0401016F040E26
:101800000401006F0401008F000E5C6E000E0001E9
:10181000976F12000001885100018911D8B40FD0D0
:1018200088C0D9FF89C0DAFF0001DFAE03D02A6A81
:101830002A2A01D02A6A2A502B6E2C6A05D0000E63
:101840002C6E000E2B6E00D02B502C10D8A4120042
:1018500001D01200030E5218D8A402D0000E526E0E
:101860005250D8B4120001D01200020E5218D8A45F
:1018700012D0010E236E000E246E000E256E000E97
:10188000266E020EDCEC12F023C088F024C089F032
:10189000030E526E12005204D8A41200400E53647C
:1018A00003D0400E2E6E03D053C02EF000D02E5029
:1018B00000085324536E000E0001826F050E0001D4
:1018C000836F2EC02DF000019951D8B414D02BD0C5
:1018D00012D085C0D9FF86C0DAFF82C0E1FF83C085
:1018E000E2FFDFCFE7FF0001824B832B0001854B36
:1018F000862B2D0600D02D50D8B41AD0EAD718D098
:1019000012D085C0D9FF86C0DAFF82C0E1FF83C054
:10191000E2FFDFCFE7FF0001824B832B0001854B05
:10192000862B2D0600D02D50D8B402D0EAD700D097
:101930005350D8A409D0400E2E18D8A402D0020EBD
:1019400001D0030E526E00D0010E236E000E246EE5
:10195000050E256E2EC026F0020EDCEC12F023C020
:1019600088F024C089F012001200000E966E000E5E
:10197000956E94503F0E9316C30E9216F90E8B1669
:10198000F90E9416CFEC16F0E00E0001F11930E1DB
:10199000020E0001F219D8A42BD0800E9B6E700E9F
:1019A000D36EBDC0D9FFBEC0DAFF100EDF6E00D00F
:1019B000BDC0D9FFBEC0DAFF0001DFAEF9D7B5C0A8
:1019C000D9FFB6C0DAFF900EDF6EB9C0D9FFBAC03A
:1019D000DAFF000EDF6EB7C0D9FFB8C0DAFF000E25
:1019E000DF6EBBC0D9FFBCC0DAFF100EDF6E03D0C4
:1019F0000F0EC16E00D0928293849388948CE00E77
:101A00000001F1190DE1020E0001F219D8A408D06D
:101A1000000E236E000E246E020EEBEC17F005D0C4
:101A2000400EC76E220EC66E00D093929380949E95
:101A300093969490939A8A968B808A9A5EEC16F08D
:101A4000900E0001F1190001F211D8B409D0770EFF
:101A5000B16EC7C0D9FFC8C0DAFF730EDF6E03D006
:101A6000D10EB16E00D0A28253EC14F0020EA06E23
:101A70004B50FF0A0001A16F4A50FF0A0001A26FFC
:101A8000010EC26E0E0EC16EBE0EC06EF298BA6826
:101A9000EA0EBB6E9D929F9277EC0EF052EC0BF02B
:101AA000D08EF28CF28E1200800E04013019D8A470
:101AB0001200C00E596E7CD08C0E566E090E576EF9
:101AC000000E5B6E120E5A6E120004013251D8A441
:101AD0003ED004013251020D090EF324F66E090EB8
:101AE000F420F76E0900F5CF56F00A00F5CF57F055
:101AF000020E5624236E000E5720246E23C0F6FFDC
:101B000024C0F7FFF86A070EF76403D00800F55009
:101B100005D0F6CFE1FFF7CFE2FFE7505A6E030E94
:101B20005624236E000E5720246E23C0F6FF24C0D7
:101B3000F7FFF86A070EF76403D00800F55005D0E8
:101B4000F6CFE1FFF7CFE2FFE7505B6E1200000E29
:101B5000596E1200040E0401326124D00401325186
:101B6000020D010EF324F66E090EF420F76E090043
:101B7000F5CF56F00A00F5CF57F056C0F6FF57C024
:101B8000F7FFF86A070EF76403D00800F55005D098
:101B9000F6CFE1FFF7CFE2FFE750236E23505A6EF6
:101BA0005B6A1200000E596E1200000E596E120090
:101BB00004013351010AD8B47FD7030AD8B485D7BA
:101BC000010AD8B4C7D7F1D71200120020EE01F0F5
:101BD0004650D9264750DA22DF50246E24500001A7
:101BE0006E5D000E6F59D8B003D06EC024F000D0E7
:101BF000245000016E5F000E6F5B000E236E13D049
:101C00002350010D380EF324D96E040EF420DA6E41
:101C10006AC0E1FF6BC0E2FFDFCFE7FF00016A4B64
:101C20006B2B232A00D02450235CD8A0E9D70001D5
:101C30006E5100016F11D8B432D020EE01F048503F
:101C4000D9264950DA22080EDF6E20EE02F0485005
:101C5000D9264950DA22380EDE6E040EDD6E46C0FB
:101C6000D9FF47C0DAFFDFBC0DD048C0D9FF49C05B
:101C7000DAFF480EDF6E48C0D9FF49C0DAFF000E18
:101C8000DB8E120048C0D9FF49C0DAFF080EDF6EB4
:101C900048C0D9FF49C0DAFF000EDB8E120020EEEB
:101CA00001F04850D9264950DA22080EDF6E20EEA6
:101CB00002F04850D9264950DA22300EDE6E040E6A
:101CC000DD6E48C0D9FF49C0DAFF040EDF6E48C0A0
:101CD000D9FF49C0DAFF000EDB8E00D000016D9FF6
:101CE0004E50D8A4120016EC12F012001200E00EB2
:101CF0000001F11940E1020E0001F219D8A43BD015
:101D0000630E0001C96F0F0E0001CA6F640E00015F
:101D1000D56F0F0E0001D66F650E0001D76F0F0E45
:101D20000001D86F670E0001D16F0F0E0001D26F56
:101D3000660E0001CF6F0F0E0001D06F600E000124
:101D4000CD6F0F0E0001CE6F6A0E5D6E0F0E5E6ED0
:101D50006B0E0001D36F0F0E0001D46F620E0001F5
:101D6000CB6F0F0E0001CC6F610E0001D96F0F0E0B
:101D70000001DA6F12006E0E0001C96F0F0E000134
:101D8000CA6F690E0001D56F0F0E0001D66F680E85
:101D90000001D76F0F0E0001D86F6A0E0001D16FDE
:101DA0000F0E0001D26F6B0E0001CF6F0F0E0001FE
:101DB000D06F6D0E0001CD6F0F0E0001CE6F700E53
:101DC0005D6E0F0E5E6E710E0001D36F0F0E00017F
:101DD000D46F6F0E0001CB6F0F0E0001CC6F6C0E35
:101DE0000001D96F0F0E0001DA6F12001200609827
:101DF00059BE3BD000016DAF0DD0020E546E4D5058
:101E0000D8A403D0AAEC14F000D0000E506E000E3F
:101E10004F6E120020EE01F04850D9264950DA22C8
:101E2000080EDF6E20EE02F04850D9264950DA2223
:101E3000300EDE6E040EDD6E48C0D9FF49C0DAFFF9
:101E40000C0EDF6E48C0D9FF49C0DAFF000EDB8EF2
:101E50003EC0D9FF3FC0DAFF040EDF6E3EC0D9FF9F
:101E60003FC0DAFF000EDB8E1200040130AF12D04B
:101E7000010E546E4C50D8A403D0AAEC14F000D03C
:101E8000000E506E000E4F6E4E50D8A4120016EC8D
:101E900012F01200020E546E20EE01F04850D926C6
:101EA0004950DA22080EDF6E20EE02F04850D926A3
:101EB0004950DA22300EDE6E040EDD6E48C0D9FFC6
:101EC00049C0DAFF040EDF6E48C0D9FF49C0DAFF0F
:101ED000000EDB8E000E506E000E4F6E4E50D8A4DA
:101EE000120016EC12F01200120076EC08F03FEC33
:101EF00018F000019C51D8B403D000019C0702D017
:101F00008B9400D051EC19F00009D8B457D00001DF
:101F10009E2B060E00019E6503D0000E00019E6FF1
:101F2000000E0001A06F000E0001F06F3AD000011A
:101F30009E51030DC80EF324D96E010EF420DA6E03
:101F4000DF50266E0001F05187EC0AF000019E512F
:101F5000030D010EF326000EF422C80EF324D96EF1
:101F6000010EF420DA6EDF50266E0001F02987ECB6
:101F70000AF000019E51030D020EF326000EF4221A
:101F8000C80EF324D96E010EF420DA6EDF50266EEF
:101F90000001F051020F87EC0AF0030E0001F02758
:101FA00000D00001DD510001F05DD8A0C0D7010EC6
:101FB0000001A06F8B8400019C6900D01F0E0001FE
:101FC0009765120060B2120001D01200D7EC04F045
:101FD0000AEC0CF0120004013039E832030B00095E
:101FE000D8A4120047D0120045D0598E080E000127
:101FF000976F120054EC0DF012005DEC10F012001F
:102000005C0E566E000E576E5980010E5A6E598E38
:102010001200F8EC13F0120000D02BEC07F01200C5
:1020200004013451010DB20EF324566E000EF4205B
:10203000576E5980010E5A6E598E1200598E040146
:102040003451010DB20EF324D96E000EF420DA6E75
:1020500032C4DFFF1200000E306E020E2F6E000E33
:10206000316E000E326E000E346E000E336E32ECA6
:1020700017F0120004013151000AD8B4CAD7010A7E
:10208000D8B4CBD7020AD8B4C8D7060AD8B4ADD7CB
:10209000030AD8B4AFD7010AD8B4DDD70F0AD8B431
:1020A000AFD7010AD8B4A9D7030AD8B4B9D7010A5F
:1020B000D8B4C4D7070A12001200598ED3C023F037
:1020C000D4C024F0000E266E000E256E000E286E81
:1020D000020E276E3AEC19F0000E236E040E246EE9
:1020E000000E266E000E256E000E286E300E276E36
:1020F0003AEC19F0608C000E376E020E376401D096
:1021000016D03750010D7C0EF324D96E000EF4204A
:10211000DA6E000EDF6E3750010D7F0EF324D96E9C
:10212000000EF420DA6E000EDF6E372AE6D7B20E0C
:10213000236E000E246E000E266E000E256E000E1D
:10214000286E020E276E3AEC19F0609C080E3E6E67
:10215000040E3F6E000E466E040E476E46C048F0F9
:1021600047C049F032C45CF05C50D8A404D0100ED3
:102170000001976F1200000E306E010E2F6E5C0E84
:10218000316E000E326E000E346E010E336E32EC84
:1021900017F0200E0001976F12001200080E236E38
:1021A0005B5011E1080E5A5CD8B00DD05AC023F034
:1021B0005550D8A402D0010E04D05504D8A403D0A1
:1021C000020E556E00D023505A5E000E5B5A20EE70
:1021D00001F03E50D9263F50DA2223C0DFFF380EEF
:1021E00000018C6F040E00018D6F59A01ED03FD0EE
:1021F0001CD056C0F6FF57C0F7FFF86A8CC0D9FF55
:102200008DC0DAFF070EF76403D00800F55005D043
:10221000F6CFE1FFF7CFE2FFE750DF6E564A572ACD
:1022200000018C4B8D2B230600D02350D8B4120014
:10223000E0D712001CD056C0F6FF57C0F7FFF86A6F
:102240008CC0D9FF8DC0DAFF070EF76403D00800F9
:10225000F55005D0F6CFE1FFF7CFE2FFE750DF6E94
:10226000564A572A00018C4B8D2B230600D0235051
:10227000D8B41200E0D7120012002D0E0001986FA2
:10228000B4C0DEF0FD0E0001DE17D8A45AD0B4C0F1
:10229000DEF00001D890DE333F0E0001DE170001B2
:1022A000DE51040D000EF324466E040EF420476E3A
:1022B00046C048F047C049F0040E481A46C0D9FF4E
:1022C00047C0DAFFDF30E8320F0B0D0AD8A436D052
:1022D000000E3D6E070E3D6401D023D020EE02F0CB
:1022E0004650D9264750DA22DECFDEF0DDCFDFF0D0
:1022F000DEC0D9FFDFC0DAFF3D50010D300EF32400
:10230000E16E040EF420E26EDFCFE7FF20EE02F074
:102310004650D9264750DA22DE2A000EDD223D2A19
:10232000D9D720EE02F04650D9264750DA22300E97
:10233000DE6E040EDD6E1AEC16F0120001EC17F0E2
:1023400012000001B451FD0B040AD8A41200ABEC3A
:1023500011F0120012003EC0D9FF3FC0DAFF000E9C
:10236000DFBC010E246E040E3E1A080E0001971900
:10237000D8A415D0040132517F0BC9C0D9FFCAC0FF
:10238000DAFFDF6EC9C0D9FFCAC0DAFFDF50D8B4A8
:1023900002D0100E01D0040E0001976F00D054043B
:1023A000D8A43AD020EE02F03E50D9263F50DA228F
:1023B000380EDE6E040EDD6ECEEC10F0020E5518F7
:1023C000D8A40DD03EC0D9FF3FC0DAFF040EDF6EA7
:1023D0003EC0D9FF3FC0DAFF000EDB8E1200245052
:1023E000D8A40DD03EC0D9FF3FC0DAFF480EDF6E43
:1023F0003EC0D9FF3FC0DAFF000EDB8E12003EC0A8
:10240000D9FF3FC0DAFF080EDF6E3EC0D9FF3FC0E4
:10241000DAFF000EDB8E120000016DAF03D0000169
:102420006D9F00D0000E546E120012004F50D8A4C1
:102430001200010E4F6E5050D8A41200010E506EC3
:10244000020E5418D8A415D020EE01F03E50D92623
:102450003F50DA22000EDF6E3EC0D9FF3FC0DAFFE8
:10246000480EDF6E3EC0D9FF3FC0DAFF000EDB8EA4
:1024700012005404D8A41200000E0001946F20EE44
:1024800001F04650D9264750DA22080EDF6E20EEC2
:1024900002F04650D9264750DA22300EDE6E040E86
:1024A000DD6E46C0D9FF47C0DAFF040EDF6E46C0BE
:1024B000D9FF47C0DAFF000EDB8E010E0001946FDA
:1024C00020EE01F04850D9264950DA22080EDF6E7E
:1024D00020EE02F04850D9264950DA22300EDE6E46
:1024E000040EDD6E48C0D9FF49C0DAFF800EDF6EF2
:1024F00012001200040130511F0BE806D8A412008C
:1025000001D0120004013039E832030BE806D8A4E8
:10251000120001D0120004013451D8B43AD00401A1
:102520003405D8A4120035D0120033D0A30E566E55
:10253000000E576E000E5B6E080E5A6E5980598E53
:102540001200A30E566E000E576E598E120036C43E
:102550006EF037C46FF0AB0E00016A6F000E000121
:102560006B6F000E0001706F000E0001716F0001B3
:102570006D8F1200AB0E566E000E576E000E5B6E26
:10258000070E5A6EC10E596E120032C49AF0598E5F
:10259000120004013151000AD8B4C8D7010AD8B4D6
:1025A000D0D7210AD8B4D3D7010AD8B4E3D7030AC5
:1025B000D8A41200EAD71200276E2350D8B407D04F
:1025C0002750020D3E0EF324D96E000E06D0275080
:1025D000020D720EF324D96E000EF420DA6EDECFF7
:1025E00028F0DDCF29F000D028502910D8A405D03C
:1025F000000E236E000E246E120020EE02F0285012
:10260000D9262950DA2224C0DEFF25C0DDFF20EEC6
:1026100001F02850D9262950DA2226C0DFFF28C031
:10262000D9FF29C0DAFF400EDF1628C0D9FF29C024
:10263000DAFF000EDB8628C0D9FF29C0DAFF000EC2
:10264000DB8E2350D8B407D02750020D3E0EF32462
:10265000D96E000E06D02750020D720EF324D96EEB
:10266000000EF420DA6E040EDF1A00D028C023F02A
:1026700029C024F01200120002EE00F0800EEE6A73
:10268000E806FDE101EE00F0800EEE6AE806FDE1ED
:1026900000EE60F0550EEE6AE806FDE100EE3EF059
:1026A0001F0EEE6AE806FDE10E0EF66E130EF76ED3
:1026B000000EF86E05EE80F012EE00F00900F5CF86
:1026C000EEFFE550E150FAE1E250F8E1C40EF66E9B
:1026D0002E0EF76E000EF86E01EE80F010EE5DF03B
:1026E0000900F5CFEEFFE550E150FAE1220EF66E5B
:1026F000330EF76E000EF86E00EEB5F010EE29F016
:102700000900F5CFEEFFE550E150FAE17E0EF66EDE
:10271000340EF76E000EF86E0900F5CF5DF009007B
:10272000F5CF5EF00900F5CF5FF0000EF86E000106
:10273000F2EF19F0000E516E44504510D8B40ED08F
:1027400044C0D9FF45C0DAFFDFAE03D02D6A2D2A81
:1027500001D02D6A2D502E6E2F6A05D0000E2F6EDF
:10276000000E2E6E00D02E502F10D8A43ED020EE9A
:1027700001F04450D9264550DA222C50DE5CD8B006
:1027800009D020EE01F04450D9264550DA22DF501E
:102790002C6E00D0000E516E14D05150010D400E21
:1027A000F324D96E050EF420DA6E5150010DF3506A
:1027B0002A24E16EF4502B20E26EDFCFE7FF512A8E
:1027C00000D02C50515CD8A0E8D7000E236E400EEC
:1027D000246E050E256E400E266E020EDCEC12F005
:1027E00023C044F024C045F000D051501200120024
:1027F000000E0401386F000E0401396F3DD0598E70
:102800000401388100D000019505D8A441D004010D
:1028100038833ED0598E3CD0598E040134BF0BD042
:10282000040134510F0B236E2350020D720EF3245A
:10283000D96E000E0AD0040134510F0B236E2350C1
:10284000020D3E0EF324D96E000EF420DA6EDECFB8
:1028500024F0DDCF25F000D024C0D9FF25C0DAFF59
:10286000DFAE16D024C0D9FF25C0DAFFDFA410D018
:10287000010E0401386F0CD0040130511F0B000A07
:10288000D8B4BDD7010AD8B4C5D7030AD8B4C4D7C1
:1028900059AE1200380E566E040E576E5980020E55
:1028A0005A6E120012000001A069BE0E266E170EAD
:1028B00087EC0AF0F2EC18F067EC19F0F290000ED9
:1028C000356E00D0F2A0FED7020E06EC1AF081B8E9
:1028D00010D03550D8A405D0000EB36E000EB26EE5
:1028E00000D0080E3518D8B406D001D004D0352A4F
:1028F00000D0F290E7D7B2CF4AF04B6AB3504B26E4
:10290000B00E2F6EFF0E306E4AC031F04BC032F069
:102910002F50312630503222D8903230336E313041
:10292000236E33C024F0000E266E640E256E91ECEB
:1029300017F023C08EF024C08FF0000E266E170E05
:1029400087EC0AF0F2EC18F067EC19F0000E0001C9
:10295000A06F1200000E4C6E000E4D6E020E541849
:10296000D8A41FD020EE01F04850D9264950DA22D1
:10297000080EDF6E20EE02F04850D9264950DA22C8
:10298000380EDE6E040EDD6E48C0D9FF49C0DAFF96
:10299000480EDF6E48C0D9FF49C0DAFF000EDB8E5B
:1029A00012005A500401365D5B5004013759D8B00B
:1029B00005D036C45AF037C45BF000D0CEEC10F02E
:1029C00020EE02F03E50D9263F50DA22380EDE6E5D
:1029D000040EDD6E3EC0D9FF3FC0DAFF480EDF6E49
:1029E0003EC0D9FF3FC0DAFF000EDB8E120012009E
:1029F000286E000E296E040E2A6E2350246E256A5E
:102A0000D890243625362850266E276AD890263648
:102A10002736D890263627362450262625502722BA
:102A2000D89026362736D89026362736265029269F
:102A300027502A2229C0D9FF2AC0DAFFDF9E23505F
:102A4000D8A407D02850020D720EF324D96E000EC0
:102A500006D02850020D3E0EF324D96E000EF4204D
:102A6000DA6E29C0DEFF2AC0DDFF00D029C0D9FF01
:102A70002AC0DAFFDF9C20EE04F02950D9262A5024
:102A8000DA22DF8C1200000E286E26AE07D0256CED
:102A9000261ED8B0262A010E286E00D024AE07D0FC
:102AA000236C241ED8B0242A010E281A00D0000E50
:102AB0002A6E000E296E25502610D8B421D0010EA2
:102AC000276E05D0D89025362636272A00D026BE78
:102AD00002D0F8D700D0D89029362A362550235C6A
:102AE00026502458D8A006D02550235E2650245ABC
:102AF000298000D0D89026322532272EECD700D05E
:102B00002850D8B405D0296C2A1ED8B02A2A00D063
:102B100029C023F02AC024F012001200EACF18F0D6
:102B2000E1CF19F0E2CF1AF0D9CF1BF0DACF1CF0C9
:102B3000F3CF1DF0F4CF1EF0F6CF1FF0F7CF20F04B
:102B4000F8CF21F0F5CF22F0A1A212D0A1C0B3FF9F
:102B5000A2C0B2FF0001A0BF09D07CEC19F00001B7
:102B6000A005D8A403D022EC19F000D0A19200D087
:102B700022C0F5FF21C0F8FF20C0F7FF1FC0F6FFFD
:102B80001EC0F4FF1DC0F3FF1CC0DAFF1BC0D9FF3D
:102B90001AC0E2FF19C0E1FF18C0EAFF17C0E9FF41
:102BA00016C0FBFF15C0FAFF1100306E3C0E3064FA
:102BB00002D03C0E306E550E0101406F200E010117
:102BC000416F30C043F1040E3026000E0101426F08
:102BD000000E2F6E12D0020E2F18D8B40CD02F502A
:102BE000010D400EF324D96E010EF420DA6EDF5091
:102BF0000101421B00D02F2A00D030502F5CD8B0EA
:102C000005D0E9D703D00AEC0CF000D05250D8A47C
:102C1000FAD75250D8A409D0400E236E010E246E6C
:102C200030C025F0C8EC19F012000001904B912B38
:102C300012001200000E556E000E4E6E000E4C6E0D
:102C4000000E4D6E000E0001946F000E546E3EC0DB
:102C5000D9FF3FC0DAFF7F0EDF16040E3E1A3EC0DA
:102C6000D9FF3FC0DAFF7F0EDF16040E3E1A48C0C0
:102C7000D9FF49C0DAFF7F0EDF16000E596E000E35
:102C80005B6E000E5A6E000E00016D6F000E0001AB
:102C90006F6F000E6E6FEBEC0FF0000E306E030ED8
:102CA0002F6E000E316E000E326E000E346E000E6E
:102CB000336E32EC17F0F7EC0EF012000001A06951
:102CC000480E5F6E0001DB51A6EC19F00001DC51EB
:102CD000A6EC19F0010E2D6E480E2D6401D014D013
:102CE000E7EC19F02C6E0001DC512C18D8A408D0A8
:102CF0000001DB512B18D8A403D02DC05FF004D005
:102D00002CC02BF02D2AE8D7F2EC18F05F50020D02
:102D1000F3CF23F0F4CF24F0000E266E030E256EC1
:102D200043EC15F023500001DD6F000E0001A06F91
:102D30001200000E0001AB6F4B0EAC6F000EAD6FBA
:102D4000000EAE6F000E0001AF6F000E0001B06FFD
:102D5000080E0001B16F000E516E1A0E2B6E010E9F
:102D600065EC18F01E0E2B6E020E65EC18F0000ECE
:102D7000236E400E246E050E256E400E266E020E4A
:102D8000DCEC12F023C044F024C045F0000E00013A
:102D9000886F000E0001896F000E526E12003F0E08
:102DA000F86EF768FE0EF66E0800F5CF25F0F668AF
:102DB0000800F5CF26F02650236E246AD8902336DB
:102DC0002436D89023362436D8902336243623C090
:102DD000F1F024C0F2F0000E276E2550D8B403D0D5
:102DE000010E276E00D027C023F0050E246ED89068
:102DF0002332242EFCD723500001F127000EF223AA
:102E00001200020E5418D8A403D0E6EC0DF0120004
:102E1000000E546E00019451D8A41FD020EE01F092
:102E20004850D9264950DA22080EDF6E20EE02F013
:102E30004850D9264950DA22300EDE6E040EDD6E7F
:102E400048C0D9FF49C0DAFF0C0EDF6E48C0D9FF79
:102E500049C0DAFF000EDB8E1200000E0001946FF5
:102E60001200120007D0120099EC16F012007AEC52
:102E700012F012002FC035F030C036F03650000A84
:102E8000D8B404D07F0AD8A4120018D03550010A53
:102E9000D8B4EAD7030AD8B41200010AD8B4E7D7E5
:102EA000060AD8B41200770AD8B41200010AD8B4BE
:102EB0001200070AD8B41200010A12003550FF0AA6
:102EC00012001200FFFFFFFFFFFFFFFFFFFFFFFFEA
:102ED000FFFFFFFFFFFFFFFFFFFFFFFFFFFFFFFF02
:102EE000FFFFFFFFFFFFFFFFFFFFFFFFFFFFFFFFF2
:102EF000FFFFFFFFFFFFFFFFFFFFFFFFFFFFFFFFE2
:102F0000FFFFFFFFFFFFFFFFFFFFFFFFFF000000CE
:102F1000FF000000FFFF00FF00FFFFFFFF00FFFFBB
:102F2000FF00000E286E000E276E25502610D8B424
:102F300021D0010E296E05D0D89025362636292AB3
:102F400000D026BE02D0F8D700D0D8902736283639
:102F50002550235C26502458D8A006D02550235E47
:102F60002650245A278000D0D89026322532292E88
:102F7000ECD700D027C023F028C024F012005DC099
:102F8000D9FF5EC0DAFFDFA024D046C0D9FF47C01A
:102F9000DAFF800EDE18D8A415D03EC0D9FF3FC09E
:102FA000DAFF840EDE18D8A40DD046C0D9FF47C082
:102FB000DAFF0C0EDF6E46C0D9FF47C0DAFF000E05
:102FC000DB8E00D05DC0D9FF5EC0DAFFFE0EDF16DB
:102FD00000D0659A1200256E3F0EC716000EC66E11
:102FE0002550C6122450C71205D0C78C13D0C78CE9
:102FF000C68810D02350000AD8B4F7D7020AD8B434
:10300000F6D7010AD8B4F4D705D0928A93840AD0AF
:10301000939408D02550040AD8B4F7D7010AD8B43D
:10302000F5D7F6D793809396C68A12002F6E550E69
:103030000101406F2FC041F1000E0101436F0101FA
:10304000415101014319010140190101426F03D0AF
:103050000AEC0CF000D05250D8A4FAD75250D8A4A1
:1030600009D0400E236E010E246E040E256EC8ECAE
:1030700019F012000001904B912B12001200000178
:103080008A07D8A08B0700018A291EE100018B293D
:10309000D8A41200270E00018B6F100E8A6F60B249
:1030A00002D0010E01D0000E236E200E00019719F0
:1030B000D8A402D0010E01D0000E2314E8A002D043
:1030C0008B7212008B92120012002E6E2BA406D06F
:1030D000000E236E2E50F8EC14F000D02BA206D078
:1030E000010E236E2E50F8EC14F000D02E50010D7E
:1030F000F3505D242C6EF4505E202D6E2CC0D9FF51
:103100002DC0DAFF2BC0DFFF1200000E0001966F0A
:10311000000E306E740E2F6E000E316E000E326E89
:10312000000E346E000E336E32EC17F0CDC0D9FFB6
:10313000CEC0DAFFFD0EDF16649402D0659400D095
:1031400065B4FCD71200000E266E23C0A9FF25C06F
:10315000A8FFA69EA69CA684000EF2BE010E266EB7
:10316000F29E550EA76EAA0EA76EA68200D0A6B23A
:10317000FED726B002D0F29E01D0F28EA6941200A5
:1031800064846598CDC0D9FFCEC0DAFF000EDB8223
:10319000010E0001966F000E306E750E2F6E000E40
:1031A000316E000E326E000E346E000E336E32EC55
:1031B00017F01200E00E0001F1190CE1020E0001FF
:1031C000F219D8A407D0C5C0D9FFC6C0DAFFFB0EDC
:1031D000DF161200C3C0D9FFC4C0DAFFDF0EDF164E
:1031E00012001200000E256E0DD02550010D800E2C
:1031F000F324D96E010EF420DA6EDF50A6EC19F03C
:10320000252A00D05F50255CD8A0EFD7000E000122
:10321000A06F1200E00E0001F1190CE1020E000196
:10322000F219D8A407D0C1C0D9FFC2C0DAFFFB0E83
:10323000DF161200C3C0D9FFC4C0DAFFDF0EDF16ED
:1032400012001200000E146E0DD01450010D800EED
:10325000F324D96E010EF420DA6EDF50B7EC19F0CA
:10326000142A00D05F50145CD8A0EFD7000E0001E4
:10327000A06F120023C029F024C02AF009D029C071
:10328000D9FF2AC0DAFF25C0DFFF294A2A2A00D049
:103290002706D8A028062728F2E12828D8A4EFD7A7
:1032A000120080A202D0010E01D0000E00019D1973
:1032B000D8B40AD0000E80B2010E00019D6F80B21A
:1032C00003D0010E120000D0000E120012008A8AF4
:1032D00000018E510FEC1AF08B808A86280E06ECC6
:1032E0001AF08A96280E06EC1AF08B9000018E5187
:1032F0000FEC1AF08A9A12008A8A00018E5121EC92
:103300001AF08B808A86280E18EC1AF08A96280EFE
:1033100018EC1AF08B9000018E5121EC1AF08A9A69
:103320001200B50F5B0F5D0F860FD20FA00FA30F1A
:10333000A10FA40FB40F630F620F600F660F670F2A
:103340006B0F640F650F610F23423000246EC9CFED
:1033500023F09E96C69E24C0C9FFC6BE120002D0AE
:10336000120000D09EB61200FDD712001200136E9C
:10337000C9CF12F09E96C69E13C0C9FFC6BE1200EA
:1033800002D0120000D09EB61200FDD7120012002B
:103390005250D8A4120023C085F024C086F025C066
:1033A00053F0010E0001996F010E526E12001200CF
:1033B000256E2550020D800EF324D96E050EF420E3
:1033C000DA6EDECF23F0DDCF24F012001200C9CF79
:1033D00023F09E96000EC96E00D09EA6FED7C9505F
:1033E00012001200B5EC0CF000D0825000D075EC49
:1033F0000FF0FBD755EF04F023C0A9FFA69CA69EB3
:10340000A68000F000F0A85012001200236E030EF8
:10341000E82EFED700F0232EFAD712001200236EFA
:10342000210EE82EFED700F0232EFAD7120012004C
:10343000126E030EE82EFED700F0122EFAD71200FD
:103440001200126E210EE82EFED700F0122EFAD7CF
:1034500012001200C450256EC350236E25C024F004
:1034600012001200C2A202D0010E1200000E1200C1
:10347000120000D0A6B2FED71200C28212006A0F5C
:02348000480002
:020000040020DA
:08000000FFFFFFFFFFFFFFFF00
:020000040030CA
:0E00000021081F3CFF81A1FF0FC00FE00F4041
:0200000400F00A
:080000003400000000000000C4
:00000001FF
