:0400000055EF00F0C8
:10000800FACF15F0FBCF16F0E9CF17F0BBEF15F0DC
:10001800D8CF01F0E8CF02F0E0CF03F0FACF04F038
:10002800FBCF05F0E9CF06F0EACF07F0E1CF08F003
:10003800E2CF09F0D9CF0AF0DACF0BF0F3CF0CF00A
:10004800F4CF0DF0F6CF0EF0F7CF0FF0F8CF10F099
:10005800F5CF11F09EA202D09E9200D011C0F5FFFC
:1000680010C0F8FF0FC0F7FF0EC0F6FF0DC0F4FF79
:100078000CC0F3FF0BC0DAFF0AC0D9FF09C0E2FFCA
:1000880008C0E1FF07C0EAFF06C0E9FF05C0FBFFA3
:1000980004C0FAFF03C0E0FF02C0E8FF01C0D8FFB8
:0600A800100076EF14F0D9
:1008000000C6084C088008090809024300020100DC
:10081000C032090400000102020100052400100199
:100820000424020205240600010524010001070535
:10083000810308000209040100020A000000070504
:1008400002024000000705820240000034034D0010
:100850006900630072006F00630068006900700047
:10086000200054006500630068006E006F006C009B
:100870006F0067007900200049006E0063002E00C1
:1008800034034300440043002000520053002D0075
:10089000320033003200200045006D0075006C000E
:1008A0006100740069006F006E0020004400650064
:1008B0006D006F001201000202000008D8040A0057
:1008C000000101020001040309040000000E000100
:1008D000D76F000E0001DD6F000EDC6F230E0001EC
:1008E000DA6F420E0001DB6F1F0E000195651200EA
:1008F00060B2120001D01200000E0001BB6F010EA9
:100900000001BC6F400E0001BD6FF3EC0FF0000161
:10091000DE6F030E0001DE651200030E89EC17F096
:10092000AA0E01010019D8A4A7D103C1E0F001C1AA
:10093000D9F002C1D6F00001DE510001D26FD36BB5
:100940000001E0510001D46FD56B040E0001D427E3
:10095000000ED5230001D2510001D41905E1000198
:10096000D3510001D519D8A483D10101015101014E
:1009700000190001D86F030E0001DF6F0FD00001D6
:10098000DF51010D000EF324D96E010EF420DA6E52
:10099000DF500001D81B0001DF2B00D00001DE5129
:1009A0000001DF5DD8A0EBD70001D8510001D619B6
:1009B000D8A45AD18B84800E00019C6F2DD10001E8
:1009C000E0510001D8A418D029EC1AF000D019EC9D
:1009D0001AF00009D8A4FBD7FDEC19F0B4C0DCF084
:1009E000B5C0DDF0DCC044F10001DD510101456F0F
:1009F000020ED2EC14F01200030E89EC17F0120074
:100A000000D0200E0001E019D8A437D0000E3C6EB3
:100A1000000E0001DF6F1F0E0001DF6501D024D042
:100A20000001D939E846E00B0001DF250001D76F4E
:100A30000001DF510001D26FD36B040E0001D227F9
:100A4000000ED323000E0001D225D96E010E000145
:100A5000D321DA6EDF500001BC6F0001D75141ECA9
:100A600006F00001DF2BD7D7010E3C6E00018E4B44
:100A70008F2B010E89EC17F01200030E89EC17F092
:100A800012000001E0510001D8A40BD041EC16F097
:100A9000F9C044F1000E0101456F020ED2EC14F0D2
:100AA0001200030E89EC17F012000001E051000162
:100AB000D8A40CD01DEC12F08AC044F100018B5177
:100AC0000101456F020ED2EC14F01200030E89EC06
:100AD00017F01200020E0001E019D8A40ED0010197
:100AE0000451FF0A0001A16F01010551FF0A000135
:100AF000A06F010E89EC17F01200030E89EC17F0BD
:100B000012000001E005D8A40ED025EC1AF004C1B3
:100B1000B4F00001B56BF3EC19F00101446F010E64
:100B2000D2EC14F01200030E89EC17F01200020E42
:100B30000001E019D8A40ED025EC1AF004C1B4F0DD
:100B40000001B56B05C1B6F073EC18F0010E89EC2D
:100B500017F01200030E89EC17F012000001E051AB
:100B60000001D8A407D0340E0101446F010ED2EC6D
:100B700014F01200030E89EC17F012000001E0518E
:100B80000001D8A407D0010E0101446F010ED2EC80
:100B900014F01200030E89EC17F012000001E0516E
:100BA0000001D8A408D0DAC044F1DBC045F1020E40
:100BB000D2EC14F01200030E89EC17F01200020EB2
:100BC0000001E019D8A420D00001DA510101041974
:100BD000D8A416D00001DB5101010519D8A410D00A
:100BE000F29E000E606E000E646E000E0001956FA6
:100BF000EDEC0AF0120ED2EC19F092EF03F01200B5
:100C0000020E89EC17F01200030E89EC17F01200A7
:100C1000FF0E89EC17F012000001D951010AD8B477
:100C20009DD7030AD8B4AAD7160AD8B43ED7010A6A
:100C3000D8B450D7350AD8B4E4D6010AD8B4E1D62E
:100C4000110AD8B41ED7700AD8B4B9D6100AD8B4CD
:100C500058D7010AD8B46BD7D10AD8B49FD7010AA4
:100C6000D8B4ADD7D5D71200040E89EC17F0120016
:100C7000030E89EC17F01200000E0001E06F120065
:100C800012000001C06F000E0001C36F000E0001D2
:100C9000C26F000EC16F0001F9510001C05DD8B0F4
:100CA000120001D012000001BC51A4EC19F00001A7
:100CB000B41D0001C16F0001B51D0001C26F300EEF
:100CC0000001F919D8A40CD0180E0001C06104D09D
:100CD000180E0001C02704D0180E0001C05F00D01C
:100CE0000001C051030DF3CFC3F00001C3A12CD00C
:100CF000C3C0B4F00001B56B000E0001B76F020E67
:100D0000B66F85EC12F0800E0001B425D96E010E8D
:100D10000001B521DA6EF00EDF16C1C0BDF0C2C011
:100D2000BEF0BEC0BDF00001BE6B0F0E0001BD17CE
:100D3000C3C0B4F00001B56B000E0001B76F020E26
:100D4000B66F85EC12F031D0C3C0B4F00001B56BC2
:100D5000000E0001B76F020EB66F85EC12F0800E28
:100D60000001B425D96E010E0001B521DA6E0F0E17
:100D7000DF16C1C0BDF0C2C0BEF0040E0001BF6FDF
:100D80000001D890BE33BD330001BF2FF9D7F00E5C
:100D90000001BD17C3C0B4F00001B56B000E000127
:100DA000B76F020EB66F85EC12F0800E0001B4250D
:100DB000D96E010E0001B521DA6E0001BD51DF12BE
:100DC00000D00001C32B0001C3A132D0C3C0B4F0D6
:100DD0000001B56B000E0001B76F020EB66F85EC17
:100DE00012F0800E0001B425D96E010E0001B5216C
:100DF000DA6EF00EDF16C1C0BDF0C2C0BEF0040E48
:100E00000001BF6F0001D890BE33BD330001BF2F7A
:100E1000F9D70F0E0001BD17C3C0B4F00001B56BC8
:100E2000000E0001B76F020EB66F85EC12F025D0F0
:100E3000C3C0B4F00001B56B000E0001B76F020E25
:100E4000B66F85EC12F0800E0001B425D96E010E4C
:100E50000001B521DA6E0F0EDF16C1C0BDF0F00E35
:100E60000001BD17C3C0B4F00001B56B000E000156
:100E7000B76F020EB66F85EC12F0800E0001B4253C
:100E8000D96E010E0001B521DA6E0001BD51DF12ED
:100E900000D00001C32B0001C3A131D0C3C0B4F006
:100EA0000001B56B000E0001B76F020EB66F85EC46
:100EB00012F0800E0001B425D96E010E0001B5219B
:100EC000DA6EF00EDF16C1C0BDF00F0E0001BD17C7
:100ED000C3C0B4F00001B56B000E0001B76F020E85
:100EE000B66F85EC12F0800E0001B425D96E010EAC
:100EF0000001B521DA6E0001BD51DF121200C3C03E
:100F0000B4F00001B56B000E0001B76F020EB66FB2
:100F100085EC12F0800E0001B425D96E010E00019F
:100F2000B521DA6E0F0EDF16C1C0BDF00F0E000145
:100F3000BD170001BD3BF00EBD17C3C0B4F00001EA
:100F4000B56B000E0001B76F020EB66F85EC12F0A4
:100F5000800E0001B425D96E010E0001B521DA6EB4
:100F60000001BD51DF121200120004013205D8A4A5
:100F700012D0040130511F0B0009D8A40CD0408EB0
:100F8000030E04013119D8A402D0010E01D0000EC5
:100F90000001916F00D004013251D8A41200040165
:100FA00030511F0B020AD8A41200040134510F0B58
:100FB0000009D8B41200040134510F0B0001C86FAE
:100FC000030E0001C8611200200E00019519D8A47B
:100FD0001200408E040134BF1FD0040134510F0BA6
:100FE0000001C86F0001C851020D6A0EF324D96ECA
:100FF000000EF420DA6EDECFCCF0DDCFCDF00401B0
:1010000034510F0B0001C86F0001C851010D770E5C
:10101000F324D96E000E1ED0040134510F0B0001D1
:10102000C86F0001C851020D2B0EF324D96E000EBB
:10103000F420DA6EDECFCCF0DDCFCDF004013451F8
:101040000F0B0001C86F0001C851010D740EF3248D
:10105000D96E000EF420DA6EDF500001CB6F00D0A5
:101060000001CBB103D00001CC9503D00001CC85A9
:1010700000D0040134BF0DD0040134510F0B000126
:10108000C86F0001C851020D6A0EF324D96E000E1C
:101090000CD0040134510F0B0001C86F0001C8517E
:1010A000020D2B0EF324D96E000EF420DA6ECCC0A4
:1010B000DEFFCDC0DDFF00D0030E04013119D8A43E
:1010C00035D0CCC0D9FFCDC0DAFF0001DFAE21D0D2
:1010D000040134BF0DD0040134510F0B0001C86F5F
:1010E0000001C851010D770EF324D96E000E0CD00B
:1010F000040134510F0B0001C86F0001C851010DEC
:10110000740EF324D96E000EF420DA6E0001DF8233
:1011100000D0CCC0D9FFCDC0DAFF000EDB84CCC03C
:10112000D9FFCDC0DAFF000EDB8E1200040E0001E5
:10113000CC1BCCC0D9FFCDC0DAFF0001DFAE1DD083
:10114000CCC0D9FFCDC0DAFF7F0EDF16CCC0D9FFEF
:10115000CDC0DAFF000EDB8C000E0001C16F050E62
:10116000C06FCCC0C2F0CDC0C3F0000E0001C56F8F
:10117000020EC46FF5EC16F007D0CCC0D9FFCDC07D
:10118000DAFF000EDB8C00D0040E0001CC1B000146
:10119000CBB307D0CCC0D9FFCDC0DAFF0001DFAEA2
:1011A00038D0040134BF0DD0040134510F0B0001BD
:1011B000C86F0001C851010D770EF324D96E000EDF
:1011C0000CD0040134510F0B0001C86F0001C8514D
:1011D000010D740EF324D96E000EF420DA6E0001B6
:1011E000DF9200D0CCC0D9FFCDC0DAFF3B0EDF16B6
:1011F000000E0001C16F050EC06FCCC0C2F0CDC0A3
:10120000C3F0000E0001C56F020EC46FF5EC16F0BE
:1012100007D0CCC0D9FFCDC0DAFF3B0EDF1600D01F
:10122000040134510F0B0001C86F0001C851010DBA
:101230006A0EF3240001C96F0F0EF4200001CA6F7B
:10124000C9C0D9FFCAC0DAFFFE0EDF1612001200B5
:10125000000000000000000000000000000001008D
:10126000010001000100020002000200030003006F
:1012700004000500050006000700080009000A0038
:101280000B000C000E000F001000120013001500E0
:10129000170019001B001D001F002100230025005E
:1012A00028002A002D0030003300360039003C00B1
:1012B0003F004200460049004D00510055005800D3
:1012C0005D006100650069006E00730077007C00BE
:1012D000810086008C00910096009C00A200A8006E
:1012E000AD00B400BA00C000C700CD00D400DB00E0
:1012F000E200E900F000F800FF0007010E0116010E
:101300001E0127012F0138014001490152015B01F3
:1013100064016D01770181018A0194019E01A90197
:10132000B301BE01C801D301DE01E901F4010002ED
:101330000C02170223022F023C02480254026102EF
:101340006E027B0288029602A302B102BF02CD02A6
:10135000DB02E902F8020703150325033403430304
:1013600053036203720382039303A303B403C4030E
:10137000D503E603F80309041B042D043F045104BC
:101380006304760489049C04AF04C204D604E9040F
:10139000FD04110525053A054E05630578058D0503
:1013A000A305B805CE05E405FA05100627063E0696
:1013B00055066C0683069B06B206CA06E206FB06C5
:1013C00013072C0745075E0777079107AA07C4078D
:1013D000DE07F90713082E084908640880089B08EF
:1013E000B708D308EF080B092809450962097F09E6
:1013F0009D09BA09D809F609150A330A520A710A71
:10140000900AB00ACF0AEF0A0F0B2F0B500B710B8B
:10141000920BB30BD40BF60B180C3A0C5C0C7E0C35
:10142000A10CC40CE70C0B0D2E0D520D760D9B0D6F
:10143000BF0DE40D090E2E0E540E790E9F0EC50E33
:10144000EC0E120F390F600F880FAF0FD70FFF0F81
:10145000A3940001805100018111D8B413D080C041
:10146000D9FF81C0DAFF0001DFAE04D00001BB6B01
:10147000BB2B02D00001BB6B0001BB510001BC6F54
:10148000BD6B06D0000E0001BD6F000EBC6F00D01A
:101490000001BC510001BD11D8B402D0A3841200D8
:1014A000030E3718D8A402D0000E376E3750D8A4D8
:1014B00002D0A3841200020E3718D8A416D0010E51
:1014C0000001B46F000E0001B56F000E0001B66F91
:1014D000000E0001B76F020ED8EC10F0B4C080F01F
:1014E000B5C081F0030E376E76D03704D8A473D020
:1014F000400E386404D0400E0001BF6F03D038C0E6
:10150000BFF000D00001BF5100083824386EC00E73
:1015100000017A6F020E00017B6FBFC0BEF00001B8
:1015200099510001D8B415D02FD013D07DC0D9FF68
:101530007EC0DAFF7AC0E1FF7BC0E2FFDFCFE7FFCA
:1015400000017A4B7B2B00017D4B7E2B0001BE07F7
:1015500000D00001BE510001D8B41DD0E7D71BD088
:1015600013D07DC0D9FF7EC0DAFF7AC0E1FF7BC017
:10157000E2FFDFCFE7FF00017A4B7B2B00017D4BC1
:101580007E2B0001BE0700D00001BE510001D8B47F
:1015900002D0E7D700D03850D8A40AD0400E0001BE
:1015A000BF19D8A402D0020E01D0030E376E00D0AE
:1015B000010E0001B46FC00E0001B56F020E0001F4
:1015C000B66FBFC0B7F0020ED8EC10F0B4C080F018
:1015D000B5C081F000D0A384120000019505D8B4F5
:1015E00060BA08D0000E656E64806488020E000147
:1015F000956F00D065B464A404D06594B0EC18F085
:1016000000D060A202D0A494120065B064A008D0FB
:10161000ADEC0BF0A384040E0001956F659000D033
:1016200065B864A804D003EC19F0659800D065ACE7
:1016300024D064AC13D0000E0001C16F730EC06FD4
:10164000000E0001C26F000E0001C36F000E00010A
:10165000C56F010EC46FF5EC16F000D0659C00015B
:101660009851D8B403D00001980700D000019851D8
:10167000D8A403D0B5EC11F000D065BA64AA03D0A9
:1016800051EC18F000D065B264A214D07F0E0001B6
:10169000C16FC069000E0001C26F000E0001C36F70
:1016A000000E0001C56F010EC46FF5EC16F0000EC0
:1016B000676E00D0040E0001956102D0A494120060
:1016C00064A649D0000E0001D16F030E0001D16560
:1016D00001D041D065A63FD061CFB3F00001B33156
:1016E000E832E8320F0B00019B6F65960001B3B53D
:1016F00008D000019B51010D770EF324D96E000E26
:1017000007D000019B51010D740EF324D96E000E19
:10171000F420DA6E0001DF7000D000019B51D8A4E4
:1017200003D066EC10F014D0000E0001C16F720EF1
:10173000C06FB30E0001C26F000E0001C36F000E38
:101740000001C56F000EC46FF5EC16F001D003D098
:101750000001D12BBAD7A4941200A394000E676E97
:10176000000E656E000E6A6E6B0E0001B46F0F0EF8
:101770000001B56F000E0001B76F000EB66F000ECE
:101780000001B96F020EB86FE8EC18F0160E626E29
:101790009F0E666E7B0E646E000E0001BC6F10D053
:1017A00013D00001BC51040D000EF324D96E040EB9
:1017B000F420DA6EDE6ADE6ADE6ADD6A0001BC2BC6
:1017C0000B0E0001BC65EDD7608C000E636E609857
:1017D000609C0AD06596000E406E000E266E000ECC
:1017E000286E000E276E00D065B6F4D7010E0001FA
:1017F000966F010E0001976F000E0001936F000EAF
:101800000001946F000E0001926F000E0001BC6F8A
:10181000020E0001BC6501D033D00001BC51020DA5
:101820002B0EF324D96E000EF420DA6E000EDE6E5D
:10183000000EDD6E0001BC51020D6A0EF324D96E5C
:10184000000EF420DA6E000EDE6E000EDD6E00017A
:10185000BC51010D740EF324D96E000EF420DA6E23
:10186000000EDF6E0001BC51010D770EF324D96E1E
:10187000000EF420DA6E000EDF6E0001BC2BC8D71C
:10188000080E2B6E040E2C6E160E6A6E040E0401EA
:10189000036F300E026F080E0401016F040E040185
:1018A000006F0401008F000E436E000E0001956F63
:1018B0001200800E04013019D8A41200C00E406E30
:1018C00082D0B40E3D6E080E3E6E000E426E120EB9
:1018D000416E120004013251D8A442D004013251A9
:1018E000020D070EF324F66E080EF420F76E0900C1
:1018F000F5CF3DF00A00F5CF3EF0020E3D24000189
:10190000B46F000E3E200001B56FB4C0F6FFB5C045
:10191000F7FFF86A070EF76403D00800F55005D00A
:10192000F6CFE1FFF7CFE2FFE750416E030E3D2413
:101930000001B46F000E3E200001B56FB4C0F6FF89
:10194000B5C0F7FFF86A070EF76403D00800F5503A
:1019500005D0F6CFE1FFF7CFE2FFE750426E12006D
:10196000000E406E1200030E0401326126D0040105
:101970003251020D010EF324F66E080EF420F76EBC
:101980000900F5CF3DF00A00F5CF3EF03DC0F6FF6F
:101990003EC0F7FFF86A070EF76403D00800F55061
:1019A00005D0F6CFE1FFF7CFE2FFE7500001B46FBB
:1019B0000001B451416E426A1200000E406E1200E6
:1019C000000E406E120004013351010AD8B479D7D9
:1019D000030AD8B47FD7010AD8B4C5D7F1D712000B
:1019E000120020EE01F03150D9263250DA22DF50B9
:1019F0000001B56F0001B551275C000E2858D8B022
:101A000003D027C0B5F000D00001B551275E000E0D
:101A1000285A000E0001B46F14D00001B451010D1A
:101A2000380EF324D96E040EF420DA6E23C0E1FFE1
:101A300024C0E2FFDFCFE7FF234A242A0001B42BB2
:101A400000D00001B5510001B45DD8A0E6D7275001
:101A50002810D8B432D020EE01F03350D9263450BB
:101A6000DA22080EDF6E20EE02F03350D926345011
:101A7000DA22380EDE6E040EDD6E31C0D9FF32C0C0
:101A8000DAFFDFBC0DD033C0D9FF34C0DAFF480E17
:101A9000DF6E33C0D9FF34C0DAFF000EDB8E1200D8
:101AA00033C0D9FF34C0DAFF080EDF6E33C0D9FF70
:101AB00034C0DAFF000EDB8E120020EE01F033504E
:101AC000D9263450DA22080EDF6E20EE02F03350B1
:101AD000D9263450DA22300EDE6E040EDD6E33C0AD
:101AE000D9FF34C0DAFF040EDF6E33C0D9FF34C033
:101AF000DAFF000EDB8E269E3550D8A41200B5EC1E
:101B000011F012001200408E6B0E0001B46F0F0E28
:101B10000001B56F000E0001B76F000EB66F000E2A
:101B20000001B96F020EB86FE8EC18F0000E00016A
:101B3000B46F040E0001B56F000E0001B76F000E08
:101B4000B66F000E0001B96F300EB86FE8EC18F0F8
:101B5000608C000E0001C86F020E0001C86501D044
:101B600019D00001C851010D740EF324D96E000E76
:101B7000F420DA6E000EDF6E0001C851010D770E01
:101B8000F324D96E000EF420DA6E000EDF6E000131
:101B9000C82BE2D7B10E0001B46F000E0001B56F83
:101BA000000E0001B76F000EB66F000E0001B96F96
:101BB000020EB86FE8EC18F0609C080E2B6E040E55
:101BC0002C6E000E316E040E326E31C033F032C016
:101BD00034F032C443F04350D8A404D0100E0001B6
:101BE000956F1200000E0001C16F010EC06F430E11
:101BF0000001C26F000E0001C36F000E0001C56F2F
:101C0000010EC46FF5EC16F0200E0001956F120066
:101C10001200609840BE3DD026AE10D0020E396E44
:101C200000019451D8A403D023EC15F000D0000E8D
:101C30000001976F000E0001966F120020EE01F078
:101C40003350D9263450DA22080EDF6E20EE02F02F
:101C50003350D9263450DA22300EDE6E040EDD6E9B
:101C600033C0D9FF34C0DAFF0C0EDF6E33C0D9FFAA
:101C700034C0DAFF000EDB8E2BC0D9FF2CC0DAFF98
:101C8000040EDF6E2BC0D9FF2CC0DAFF000EDB8EF6
:101C90001200040130AF15D0010E396E00019351CE
:101CA000D8A403D023EC15F000D0000E0001976FEC
:101CB000000E0001966F3550D8A41200B5EC11F05B
:101CC0001200020E396E20EE01F03350D926345046
:101CD000DA22080EDF6E20EE02F03350D92634509F
:101CE000DA22300EDE6E040EDD6E33C0D9FF34C052
:101CF000DAFF040EDF6E33C0D9FF34C0DAFF000E06
:101D0000DB8E000E0001976F000E0001966F3550BC
:101D1000D8A41200B5EC11F012001200EDEC0AF09C
:101D2000E0EC17F000019C51D8B403D000019C07EF
:101D300002D08B9400D033EC19F00009D8B459D0FC
:101D400000019E2B060E00019E6503D0000E0001CF
:101D50009E6F000E3C6E000E0001E16F3DD0000151
:101D60009E51030DE20EF324D96E000EF420DA6EBC
:101D7000DF500001BC6F0001E15141EC06F00001B1
:101D80009E51030D010EF326000EF422E20EF32401
:101D9000D96E000EF420DA6EDF500001BC6F000136
:101DA000E12941EC06F000019E51030D020EF326DD
:101DB000000EF422E20EF324D96E000EF420DA6E47
:101DC000DF500001BC6F0001E151020F41EC06F051
:101DD000030E0001E12700D00001F9510001E15D8F
:101DE000D8A0BDD7010E3C6E8B84800E00019C6F85
:101DF00000D01F0E00019565120060B2120001D0E4
:101E0000120066EC04F028EC0AF01200080E000143
:101E1000B46F425011E1080E415CD8B00DD041C002
:101E2000B4F03B50D8A402D0010E04D03B04D8A497
:101E300003D0020E3B6E00D00001B451415E000E93
:101E4000425A20EE01F02B50D9262C50DA22B4C091
:101E5000DFFF380E0001866F040E0001876F40A07F
:101E60001FD043D01DD03DC0F6FF3EC0F7FFF86A3B
:101E700086C0D9FF87C0DAFF070EF76403D00800D9
:101E8000F55005D0F6CFE1FFF7CFE2FFE750DF6E68
:101E90003D4A3E2A0001864B872B0001B40700D043
:101EA0000001B4510001D8B41200DDD712001DD0DA
:101EB0003DC0F6FF3EC0F7FFF86A86C0D9FF87C075
:101EC000DAFF070EF76403D00800F55005D0F6CF0F
:101ED000E1FFF7CFE2FFE750DF6E3D4A3E2A000107
:101EE000864B872B0001B40700D00001B4510001DC
:101EF000D8B41200DDD71200120004013039E832E4
:101F0000030B0009D8A412004BD0120049D0408E18
:101F1000080E0001956F120059EC0CF0120083ECD2
:101F20000DF01200430E3D6E000E3E6E4080010E1D
:101F3000416E408E1200B8EC13F0120000D0B5ECE8
:101F400007F0120004013451010DB10EF3243D6E6F
:101F5000000EF4203E6E4080010E416E408E120055
:101F6000408E04013451010DB10EF324D96E000EE0
:101F7000F420DA6E32C4DFFF1200000E0001C16FE0
:101F8000020EC06F000E0001C26F000E0001C36F91
:101F9000000E0001C56F000EC46FF5EC16F01200C4
:101FA00004013151000AD8B4C6D7010AD8B4C7D742
:101FB000020AD8B4C4D7060AD8B4A9D7030AD8B439
:101FC000ABD7010AD8B4D9D70F0AD8B4ABD7010A16
:101FD000D8B4A5D7030AD8B4B5D7010AD8B4C0D7A6
:101FE000070A12001200000E366E00018251000135
:101FF0008311D8B413D082C0D9FF83C0DAFF0001A7
:10200000DFAE04D00001BE6BBE2B02D00001BE6B60
:102010000001BE510001BF6FC06B06D0000E000171
:10202000C06F000EBF6F00D00001BF510001C01192
:10203000D8A449D0000120EE01F08251D926835165
:10204000DA220001BD51DE5CD8B00BD0000120EED9
:1020500001F08251D9268351DA22DF500001BD6F91
:1020600000D0000E366E16D03650010D800EF324CF
:10207000D96E020EF420DA6E3650010DF3500001D5
:10208000BB25E16EF4500001BC21E26EDFCFE7FF1B
:10209000362A00D00001BD51365CD8A0E5D7000E2D
:1020A0000001B46F800E0001B56F020E0001B66F23
:1020B000400E0001B76F020ED8EC10F0B4C082F0F1
:1020C000B5C083F000D03650120012002D0E000172
:1020D000986FB3C0CEF0FD0E0001CE17D8A45ED02D
:1020E000B3C0CEF00001D890CE333F0E0001CE1722
:1020F0000001CE51040D000EF324316E040EF420C5
:10210000326E31C033F032C034F0040E331A31C0B5
:10211000D9FF32C0DAFFDF30E8320F0B0D0AD8A446
:102120003AD0000E0001D06F070E0001D06501D03B
:1021300025D020EE02F03150D9263250DA22DECFFF
:10214000CEF0DDCFCFF0CEC0D9FFCFC0DAFF000197
:10215000D051010D300EF324E16E040EF420E26E36
:10216000DFCFE7FF20EE02F03150D9263250DA22DD
:10217000DE2A000EDD220001D02BD6D720EE02F0A1
:102180003150D9263250DA22300EDE6E040EDD6E6A
:1021900073EC15F0120028EC17F012000001B35197
:1021A000FD0B040AD8A4120054EC13F01200120024
:1021B0000001B86F0001B4510001D8B408D000018B
:1021C000B851020D2B0EF324D96E000E07D000017A
:1021D000B851020D6A0EF324D96E000EF420DA6EA7
:1021E000DECFB9F0DDCFBAF000D00001B951000167
:1021F000BA11D8A407D0000E0001B46F000E000180
:10220000B56F1200000120EE02F0B951D926BA5183
:10221000DA22B5C0DEFFB6C0DDFF000120EE01F01E
:10222000B951D926BA51DA22B7C0DFFFB9C0D9FFF8
:10223000BAC0DAFF400EDF16B9C0D9FFBAC0DAFF64
:10224000000EDB86B9C0D9FFBAC0DAFF000EDB8E04
:102250000001B4510001D8B408D00001B851020DFA
:102260002B0EF324D96E000E07D00001B851020DD9
:102270006A0EF324D96E000EF420DA6E040EDF1A13
:1022800000D0B9C0B4F0BAC0B5F012001200BEEC74
:1022900016F0970E0001B4190001B511D8A403D0AF
:1022A0000F0EC16E10D0800E9B6E700ED36E100E8E
:1022B000D26E00D0D2AEFED7900EB56E0F015D9DEE
:1022C0000F015B938688000E966E000E956E9450FB
:1022D0003F0E9316C30E9216F90E8B16F90E941636
:1022E000928293849388948C000E0001B46F000E48
:1022F0000001B56F020E59EC17F093929380949EF3
:1023000093969490939A8A968B808A9A41EC16F0D1
:102310007F0E0001B46FBB0E08EC18F01DEC12F03C
:1023200020EC1AF07F0E0001B46FBB0E08EC18F021
:1023300000018B51FF0A0001A06F00018A51FF0AC2
:102340000001A16F010EC26E0E0EC16EBE0EC06EF8
:10235000F298F296BA68EA0EBB6E9D929F92ADEC2F
:102360000BF0D08EF28CF28E120000019651D8A4A0
:102370001200010E0001966F00019751D8A41200BF
:10238000010E0001976F020E3918D8A415D020EE67
:1023900001F02B50D9262C50DA22000EDF6E2BC014
:1023A000D9FF2CC0DAFF480EDF6E2BC0D9FF2CC03E
:1023B000DAFF000EDB8E12003904D8A41200000EE2
:1023C0000001906F20EE01F03150D9263250DA2210
:1023D000080EDF6E20EE02F03150D9263250DA229C
:1023E000300EDE6E040EDD6E31C0D9FF32C0DAFF72
:1023F000040EDF6E31C0D9FF32C0DAFF000EDB8E73
:10240000010E0001906F20EE01F03350D9263450B8
:10241000DA22080EDF6E20EE02F03350D926345057
:10242000DA22300EDE6E040EDD6E33C0D9FF34C00A
:10243000DAFF800EDF6E120012003C68BE0E000153
:10244000BC6F170E41EC06F0CDEC18F049EC19F01A
:10245000F290000E0001CA6F00D0F2A0FED7020E6B
:10246000D2EC19F081B814D00001CA510001D8A4EF
:1024700005D0000EB36E000EB26E00D0080E000143
:10248000CA19D8B407D001D005D00001CA2B00D09A
:10249000F290E3D7B2CF8AF000018B6BB35000010A
:1024A0008B27B00E0001C46FFF0E0001C56F8AC0FC
:1024B000C6F08BC0C7F00001C4510001C62700015F
:1024C000C5510001C723D8900001C7310001C86F72
:1024D0000001C6310001B46FC8C0B5F0000E0001A4
:1024E000B76F640EB66F00EC16F00001B4513A6E8F
:1024F000000E0001BC6F170E41EC06F0CDEC18F099
:1025000049EC19F0000E3C6E1200000E0001B96F8C
:102510000001B7AF09D00001B66DB71FD8B0B72B17
:10252000010E0001B96F00D00001B5AF09D0000164
:10253000B46DB51FD8B0B52B010E0001B91B00D08A
:10254000000E0001BB6F000EBA6F0001B651000112
:10255000B711D8B431D0010E0001B86F07D0000117
:10256000D890B637B7370001B82B00D00001B7BFFD
:1025700002D0F5D700D00001D890BA37BB370001A0
:10258000B6510001B45D0001B7510001B559D8A0A2
:102590000BD00001B6510001B45F0001B75100013A
:1025A000B55B0001BA8100D00001D890B733B633D3
:1025B0000001B82FE0D700D00001B9510001D8B414
:1025C00006D00001BA6DBB1FD8B0BB2B00D0BAC07B
:1025D000B4F0BBC0B5F0120012000001B96F000EDC
:1025E0000001BA6F040E0001BB6F0001B45100017D
:1025F000B56FB66BD8900001B537B6370001B95149
:102600000001B76FB86B0001D890B737B837000139
:10261000D890B737B8370001B5510001B72700018E
:10262000B6510001B8230001D890B737B837000180
:10263000D890B737B8370001B7510001BA27000169
:10264000B8510001BB23BAC0D9FFBBC0DAFF0001FB
:10265000DF9E0001B4510001D8A408D00001B95197
:10266000020D6A0EF324D96E000E07D00001B95195
:10267000020D2B0EF324D96E000EF420DA6EBAC0D0
:10268000DEFFBBC0DDFF00D0BAC0D9FFBBC0DAFFA0
:102690000001DF9C000120EE04F0BA51D926BB51A5
:1026A000DA220001DF8C12002BC0D9FF2CC0DAFF28
:1026B000000EDFBC010E0001B56F040E2B1A080ED0
:1026C00000019519D8A40DD0040132517F0B636E1F
:1026D0006350D8B402D0100E01D0040E0001956FE3
:1026E00000D03904D8A43CD020EE02F02B50D926DB
:1026F0002C50DA22380EDE6E040EDD6E06EC0FF082
:10270000020E3B18D8A40DD02BC0D9FF2CC0DAFF85
:10271000040EDF6E2BC0D9FF2CC0DAFF000EDB8E5B
:1027200012000001B5510001D8A40DD02BC0D9FF73
:102730002CC0DAFF480EDF6E2BC0D9FF2CC0DAFFA9
:10274000000EDB8E12002BC0D9FF2CC0DAFF080E62
:10275000DF6E2BC0D9FF2CC0DAFF000EDB8E12001B
:1027600026AE02D0269E00D0000E396E1200120056
:10277000000E0401386F000E0401396F43D0408E03
:102780000401388100D000019105D8A447D004018C
:10279000388344D0408E42D0408E040134BF0DD0E7
:1027A000040134510F0B0001B46F0001B451020D4C
:1027B0006A0EF324D96E000E0CD0040134510F0BB5
:1027C0000001B46F0001B451020D2B0EF324D96E39
:1027D000000EF420DA6EDECFB5F0DDCFB6F000D01B
:1027E000B5C0D9FFB6C0DAFF0001DFAE17D0B5C063
:1027F000D9FFB6C0DAFF0001DFA410D0010E04013A
:10280000386F0CD0040130511F0B000AD8B4B7D771
:10281000010AD8B4BFD7030AD8B4BED740AE12005D
:10282000380E3D6E040E3E6E4080020E416E120068
:102830001200040130511F0BE806D8A4120001D089
:10284000120004013039E832030BE806D8A4120064
:1028500001D0120004013451D8B435D0040134053C
:10286000D8A4120030D012002ED0A20E3D6E000E61
:102870003E6E000E426E080E416E4080408E120089
:10288000A20E3D6E000E3E6E408E120036C427F042
:1028900037C428F0AA0E236E000E246E000E296E97
:1028A000000E2A6E268E1200AA0E3D6E000E3E6E9F
:1028B000000E426E070E416EC10E406E120032C411
:1028C0009AF0408E120004013151000AD8B4CDD7DD
:1028D000010AD8B4D5D7210AD8B4D8D7010AD8B4B8
:1028E000E3D7030AD8A41200EAD7120002EE00F0E0
:1028F00011EE00F0EE6AE550E150FCE1E250FAE141
:1029000001EE00F0800EEE6AE806FDE100EE60F0F8
:10291000540EEE6AE806FDE100EE23F0210EEE6AA9
:10292000E806FDE1500EF66E120EF76E000EF86E20
:1029300004EE40F012EE00F00900F5CFEEFFE55096
:10294000E150FAE1E250F8E15A0EF66E300EF76E01
:10295000000EF86E01EE80F010EE48F00900F5CFA1
:10296000EEFFE550E150FAE18C0EF66E330EF76E95
:10297000000EF86E00EEE2F010EE18F00900F5CF50
:10298000EEFFE550E150FAE1560EF66E340EF76EAA
:10299000000EF86E0900F5CF44F0000EF86E00014D
:1029A00093EF19F00001C16F3C0E0001C16503D027
:1029B0003C0E0001C16F550E0101406F200E010158
:1029C000416FC1C043F1040E0001C127000E010197
:1029D000426F000E0001C06F15D0020E0001C01939
:1029E000D8B40DD00001C051010D400EF324D96EB2
:1029F000010EF420DA6EDF500101421B00D000010D
:102A0000C02B00D00001C1510001C05DD8B005D07D
:102A1000E4D703D028EC0AF000D03750D8A4FAD776
:102A20003750D8A40BD0400E0001B46F010E000146
:102A3000B56FC1C0B6F06FEC19F0120000018C4BFD
:102A40008D2B12001200000E0001936F000E00018A
:102A5000946F020E3918D8A41FD020EE01F0335025
:102A6000D9263450DA22080EDF6E20EE02F0335001
:102A7000D9263450DA22380EDE6E040EDD6E33C0F5
:102A8000D9FF34C0DAFF480EDF6E33C0D9FF34C03F
:102A9000DAFF000EDB8E120041500401365D425019
:102AA00004013759D8B005D036C441F037C442F0DC
:102AB00000D006EC0FF020EE02F02B50D9262C505F
:102AC000DA22380EDE6E040EDD6E2BC0D9FF2CC06C
:102AD000DAFF480EDF6E2BC0D9FF2CC0DAFF000EE4
:102AE000DB8E12001200000E3B6E000E356E000EE3
:102AF0000001936F000E0001946F000E0001906FB3
:102B0000000E396E2BC0D9FF2CC0DAFF7F0EDF1606
:102B1000040E2B1A2BC0D9FF2CC0DAFF7F0EDF1654
:102B2000040E2B1A33C0D9FF34C0DAFF7F0EDF1634
:102B3000000E406E000E426E000E416E000E266EBC
:102B4000000E286E000E276E7DEC0FF0000E0001C7
:102B5000C16F030EC06F000E0001C26F000E0001B6
:102B6000C36F000E0001C56F000EC46FF5EC16F0C8
:102B700009EC0EF01200EACF18F0E1CF19F0E2CF25
:102B80001AF0D9CF1BF0DACF1CF0F3CF1DF0F4CF41
:102B90001EF0F6CF1FF0F7CF20F0F8CF21F0F5CFE1
:102BA00022F0A1A210D0A0C0B3FFA1C0B2FF3CBED2
:102BB00008D05CEC19F03C04D8A403D01CEC19F04C
:102BC00000D0A19200D022C0F5FF21C0F8FF20C0A4
:102BD000F7FF1FC0F6FF1EC0F4FF1DC0F3FF1CC0AF
:102BE000DAFF1BC0D9FF1AC0E2FF19C0E1FF18C00D
:102BF000EAFF17C0E9FF16C0FBFF15C0FAFF11007E
:102C0000000E0001BA6F000EB96F0001B65100014D
:102C1000B711D8B431D0010E0001B86F07D0000150
:102C2000D890B637B7370001B82B00D00001B7BF36
:102C300002D0F5D700D00001D890B937BA370001DB
:102C4000B6510001B45D0001B7510001B559D8A0DB
:102C50000BD00001B6510001B45F0001B751000173
:102C6000B55B0001B98100D00001D890B733B6330D
:102C70000001B82FE0D700D0B9C0B4F0BAC0B5F0A9
:102C800012003C68480E446E0001F75181EC19F0C7
:102C90000001F85181EC19F0010E0001BE6F480EE1
:102CA0000001BE6501D018D0E8EC19F00001BD6F3D
:102CB0000001F8510001BD19D8A409D00001F75155
:102CC0000001BC19D8A403D0BEC044F005D0BDC0DB
:102CD000BCF00001BE2BE3D7CDEC18F04450020D40
:102CE000F3CFB4F0F4CFB5F0000E0001B76F030ED0
:102CF000B66F85EC12F00001B4510001F96F000EBF
:102D00003C6E1200000E0001AA6F4B0EAB6F000E5E
:102D1000AC6F000EAD6F000E0001AE6F000E000133
:102D2000AF6F080E0001B06F000E366E1A0E000174
:102D3000BC6F010EB6EC17F01E0E0001BC6F020E48
:102D4000B6EC17F0000E0001B46F800E0001B56FF5
:102D5000020E0001B66F400E0001B76F020ED8ECF4
:102D600010F0B4C082F0B5C083F0000E0001806F97
:102D7000000E0001816F000E376E12003F0EF86EDC
:102D8000F768FE0EF66E0800F5CFBCF0F668080096
:102D9000F5CFBDF0BCC0B6F0050E0001B76F000165
:102DA000D890B6330001B72FFAD70001B651BDC095
:102DB000B8F00001B96B0001D890B837B9370001FD
:102DC000D890B837B9370001D890B837B937000173
:102DD000B8110001BA6F0001B9510001BB6FBAC050
:102DE000B4F0BBC0B5F01200120007D0120082ECA4
:102DF00016F0120019EC14F01200C0C0C6F0C1C0E9
:102E0000C7F00001C751000AD8B404D07F0AD8A483
:102E1000120019D00001C651010AD8B4E8D7030A3C
:102E2000D8B41200010AD8B4E5D7060AD8B4120003
:102E3000770AD8B41200010AD8B41200070AD8B42D
:102E40001200010A12000001C651FF0A120012000E
:102E5000020E3918D8A403D0F1EC0CF01200000EC9
:102E6000396E00019051D8A41FD020EE01F03350EC
:102E7000D9263450DA22080EDF6E20EE02F03350ED
:102E8000D9263450DA22300EDE6E040EDD6E33C0E9
:102E9000D9FF34C0DAFF0C0EDF6E33C0D9FF34C067
:102EA000DAFF000EDB8E1200000E0001906F1200A0
:102EB00012000001B66F3F0EC716000EC66E00016D
:102EC000B651C6120001B551C71205D0C78C14D037
:102ED000C78CC68811D00001B451000AD8B4F6D707
:102EE000020AD8B4F5D7010AD8B4F3D705D0928A2C
:102EF00093840BD0939409D00001B651040AD8B43E
:102F0000F6D7010AD8B4F4D7F5D793809396C68A3A
:102F100012000001C06F550E0101406FC0C041F1A9
:102F2000000E0101436F01014151010143190101EB
:102F300040190101426F03D028EC0AF000D037504D
:102F4000D8A4FAD73750D8A40CD0400E0001B46FE3
:102F5000010E0001B56F040E0001B66F6FEC19F0A1
:102F6000120000018C4B8D2B120012000001BF6F6C
:102F70000001BCA508D0000E0001B46F0001BF51D4
:102F8000EDEC12F000D00001BCA308D0010E00014E
:102F9000B46F0001BF51EDEC12F000D00001BF5141
:102FA000010D6A0EF3240001BD6F0F0EF420000125
:102FB000BE6FBDC0D9FFBEC0DAFFBCC0DFFF1200CC
:102FC00000018407D8A085070001842920E10001C1
:102FD0008529D8A41200270E0001856F100E846F7A
:102FE00060B202D0010E01D0000E0001B46F200EBD
:102FF00000019519D8A402D0010E01D0000E0001E5
:10300000B415E8A002D08B7212008B92120012004D
:103010000001B66F0001B451F30BB46EB6C0B5F049
:103020007F0E0001B5170001D890B535B16E000EC6
:10303000B36E000EB26EA192A4920001B6AF02D0A0
:10304000A08201D0A0920001B4A502D0A38201D039
:10305000A392B4BEB486B1801200FFFFFFFFFFFF52
:10306000FFFFFFFFFFFFFFFFFFFFFFFFFFFFFFFF70
:10307000FFFFFFFFFFFFFFFFFFFFFFFFFFFFFFFF60
:10308000FFFFFFFFFFFFFFFFFFFFFFFFFFFFFFFF50
:10309000FFFFFFFFFFFFFFFFFFFFFFFFFFFFFFFF40
:1030A000FFFF6AA01ED031C0D9FF32C0DAFF800E08
:1030B000DE18D8A415D02BC0D9FF2CC0DAFF840E9F
:1030C000DE18D8A40DD031C0D9FF32C0DAFF0C0E03
:1030D000DF6E31C0D9FF32C0DAFF000EDB8E00D0C8
:1030E0006A90659A1200000E0001B76FB4C0A9FF84
:1030F000B6C0A8FFA69EA69CA684000EF2BE010E36
:103100000001B76FF29E550EA76EAA0EA76EA6829B
:1031100000D0A6B2FED70001B7B102D0F29E01D016
:10312000F28EA694120000019551D8A4120082AC30
:103130001200000E606E000E646E160E626E9F0E20
:10314000666E7B0E646ED08EA584A384F28E01D051
:10315000608660A6FDD7010E0001956F1200120077
:10316000000E0001926F000E0001C16F740EC06F5F
:10317000000E0001C26F000E0001C36F000E0001BF
:10318000C56F000EC46FF5EC16F06092649402D027
:10319000659400D065B4FCD71200000E0001B66F34
:1031A0000FD00001B651010D800EF324D96E010E2F
:1031B000F420DA6EDF5081EC19F00001B62B00D05C
:1031C00044500001B65DD8A0ECD7000E3C6E120052
:1031D000B4C0BAF0B5C0BBF00AD0BAC0D9FFBBC00A
:1031E000DAFFB6C0DFFF0001BA4BBB2B00D00001F5
:1031F000B807D8A0B9070001B829EFE10001B92943
:10320000D8A4EBD71200648465986082010E000197
:10321000926F000E0001C16F750EC06F000E0001AD
:10322000C26F000E0001C36F000E0001C56F000EDB
:10323000C46FF5EC16F01200000E146E0DD0145091
:10324000010D800EF324D96E010EF420DA6EDF50EA
:10325000B5EC19F0142A00D04450145CD8A0EFD774
:10326000000E3C6E120080A202D0010E01D0000EB2
:1032700000019D19D8B40AD0000E80B2010E0001E1
:103280009D6F80B203D0010E120000D0000E12001C
:1032900012008A8A3A50DDEC19F08B808A86280E5B
:1032A000D2EC19F08A96280ED2EC19F08B903A5095
:1032B000DDEC19F08A9A12008A8A3A5010EC1AF062
:1032C0008B808A86280E07EC1AF08A96280E07EC67
:1032D0001AF08B903A5010EC1AF08A9A1200A394CC
:1032E0003750D8A40CD0B4C07DF0B5C07EF0B6C0C5
:1032F00038F0010E0001996F010E376E00D0A384E3
:1033000012000001B56FC9CFB4F09E96C69EB5C03D
:10331000C9FFC6BE120002D0120000D09EB6120035
:10332000FDD71200120047EC11F000D082AC07D09C
:1033300000019551D8A403D093EC18F000D08EEC86
:103340000EF0F4D755EF00F00001B66F0001B65152
:10335000020D400EF324D96E040EF420DA6EDECF97
:10336000B4F0DDCFB5F012001200136EC9CF12F029
:103370009E96C69E13C0C9FFC6BE120002D01200A0
:1033800000D09EB61200FDD712001200FF00000010
:10339000FF000000FFFF00FF00FFFFFFFF00FFFF37
:1033A000FF2342300001B46F030EE82EFED700F079
:1033B0000001B42FF9D7120012000001B46F210EE2
:1033C000E82EFED700F00001B42FF9D7120012004A
:1033D000C9CFB4F09E96000EC96E00D09EA6FED74F
:1033E000C95012001200B4C0A9FFA69CA69EA680D8
:1033F00000F000F0A85012001200C4500001B66F97
:10340000C3500001B46FB6C0B5F012001200126EC6
:10341000030EE82EFED700F0122EFAD7120012008B
:10342000126E210EE82EFED700F0122EFAD71200EF
:103430001200C2A202D0010E1200000E12001200F1
:10344000B190A092A492A392120000D0A6B2FED78F
:083450001200C28212004800C4
:020000040020DA
:08000000FFFFFFFFFFFFFFFF00
:020000040030CA
:0E00000021081F3CFF81A1FF0FC00FE00F4041
:0200000400F00A
:080000003400000000000000C4
:00000001FF
