:020000040000FA
:06000000E8EF03F012001E
:020006000000F8
:0600080004EF04F01200F9
:02000E001200DE
:060018000CEF04F01200E1
:02001E000001DF
:10002000776B1E0E716E0401400E096F200E0A6F71
:10003000040E0B6F880E086F0401200E0E6F040E65
:100040000F6F400E0C6F1200550EA76EAA0EA76E12
:10005000A68212000001756B46D90AE251D9080048
:10006000F5CF76F0000138D976C0EFFF752BF4D7C5
:10007000F86A1200F00E04012217840EA66E000129
:10008000756B31D90AE234D90F0E000175150F08CE
:1000900001E1DADF0001752BF4D71200940EA66E91
:1000A0000001756B20D911E27551006E016A060ED0
:1000B000D89000360136E804FBE1026A01BE02680E
:1000C000FCD8C2DF0001752BEDD7F86A1200A66AD2
:1000D0000001756B08D90BE204012251000175255E
:1000E000A96EA680F9D8A8CFEFFF752BF3D7120021
:1000F0000001756BF8D810E204012251000175254A
:10010000A96EEAD8EF50A86E040EA66E9DDFA6B2C7
:10011000FED70001752BEED71200C40EA66E0001AB
:10012000756BE1D805E2E4D88FDF0001752BF9D7B4
:10013000F86A120082D8060E00017C5D03E36D5060
:10014000020B01E079D00001770511E104010CBF39
:100150000DD00401400E096F400E04010817040180
:10016000087D880E040108130001776B65D0040137
:1001700008BF62D00001756B04012051320A4AE0C9
:10018000CD0A39E0F80A32E0020A2BE0010A24E045
:10019000070A1DE0010A16E0030A0FE0070A0DE056
:1001A000060A01E038D00401140E226F0401010E8A
:1001B000236F0001040E756F2FD04CDF050E000178
:1001C00075272AD057DF0001010E756F25D066DF35
:1001D0000001010E756F20D07ADF050E0001752732
:1001E0001BD086DF0001010E756F16D096DF00016F
:1001F000010E756F11D06D960001786B796B00015F
:100200007807000E795B00017851791101E0F7D78A
:10021000FF0002D001D000D00001010E776F000175
:1002200075510AE075C00DF4400E04010C1704016D
:100230000C7D880E04010C13120000017A517B1111
:1002400004E1200E7A6F4E0E7B6F7A07000E7B5B07
:100250006DA208D07A517B112FE18B728B50020B6B
:1002600027E124D000017C51060A18E0050A14E0B9
:10027000010A10E0070A08E0040A04E0010A1AE192
:100280008B9214D08B8214D000017A517B1114E12F
:100290008B720CD08B820AD08B920AD000017A51DB
:1002A0007B110AE18B728B50020B02E08B941200DF
:1002B0008B8412008B828B84120004012251002453
:1002C000F36E23510120F46E24510220F86EF4CF16
:1002D000F7FFF3CFF6FF12007551EA6A250FE96EBA
:1002E000040EEA221200040121510001755D120082
:1002F000F3DFEFCF03F004D803C0F5FF0C001200CA
:0C03000075C000F0016A026A5DEF01F0B8
:04030C006C5035E11B
:10031000040100513C0BE842E8420D082CE10401C5
:10032000049F180E0401021924E1040E031921E1AF
:10033000100E026F040E036F0001686B6851006EAF
:10034000016A080E005C000E015813E26851EA6A67
:10035000180FE96E040EEA22EF50E66E6851EA6A61
:10036000100FE96E040EEA22E552E750EF6E682B9B
:10037000E5D7C2EF01F0CBEF01F0040E6C5C01E1B8
:1003800020D812000001606B616B666B676B79ECC3
:1003900002F033EF02F0020E0001605D0DE1040196
:1003A000180E026F040E036F080E016F00BD02D01D
:1003B000C80E05D0880E03D08FD893D88C0E006F4E
:1003C0001200040E00017C5D09E112C46EFF6E5044
:1003D000000802E2050E01D0030E7C6F00016005EB
:1003E00009E10AD8040104BD02D0C80E01D0880E6C
:1003F000046F12006CEF02F00001080E665D000E43
:10040000675903E266C06AF002D0080E6A6F6AC0DC
:1004100005F46A51006E016A0050665F0150675B27
:10042000180E646F040E656F6A511CE000017DA315
:1004300007D062C0F6FF63C0F7FF0800F55005D093
:1004400062C0E9FF63C0EAFFEF5064C0E9FF65C026
:10045000EAFFEF6E0001622B000E6323642B65231D
:100460006A07E2D712006D980001615105E139D8A1
:10047000840E006F04011DD0040110AF1CD00001D8
:1004800066510401165D000167510401175904E229
:1004900016C466F017C467F0AFDF0001010E606F8D
:1004A00020D8800E006F0401180E066F040E076F2F
:1004B000C80E046F12000001020E606F0401056B8C
:1004C000C80E046F0401080E016F180E026F040EAF
:1004D000036FC80E006F12000001606B0401046B13
:1004E00012000401080E016F100E026F040E036F5C
:0204F0001200F8
:0E04F20004011051600BE842E842E842E84283
:10050000E842000901E012001151080A39E0010A2D
:1005100035E00F0A0AE0030A01E012000001010EB3
:10052000616F0001040E7C6F12000001010E616F0B
:100530000401130507E100017A0E626F070E636F75
:10054000120E13D0020E135D07E100018C0E626FD4
:10055000070E636F200E09D0030E135D0AE1000140
:10056000AC0E626F070E636F040E0001666F676B5F
:1005700002D00001616B00017D831200CEEF02F01A
:100580000001010E616F00017E0E626F000E636F4D
:1005900000017D930001010E666F12000001010E43
:1005A000616F12C47EF00401125104E10001050ED6
:0E05B0007C6F12000001060E7C6F0FEF00F052
:0205BE00080E25
:1005C0006D6E6DBAFED7686A110E696E0001020E7B
:1005D0007C6F12006850040B09E06950040B06E0C0
:1005E0006D92699468A402D06894FCD76850010B9E
:1005F00004E06950010B01E025D86850100B0AE0B7
:100600006950100B07E0698468986D82A19AA08AEE
:100610000300A19A6850200B06E06950200B03E00C
:1006200070B07090689A030E00017C5D01E209D001
:100630006850080B06E06950080B03E086EC01F0F7
:1006400068961200686A7B0E696E6E6A160E706E8E
:1006500068A605D0689600D000D00000F9D76D9844
:100660006CEC02F00401080E016F0401100E026F21
:10067000040E036F04018C0E006F00017E6B0001FD
:06068000030E7C6F120066
:0A068600060EF66E000EF76E000E71
:10069000F86E00010900F550706F0900F550716F98
:1006A00003E1706701D03DD00900F5506B6F090080
:1006B000F5506C6F0900F5506D6F09000900F55099
:1006C000E96E0900F550EA6E090009000900F550CD
:1006D0006E6F0900F5506F6F09000900F6CF72F0D8
:1006E000F7CF73F0F8CF74F06BC0F6FF6CC0F7FF74
:1006F0006DC0F8FF00016E5302E16F5307E009007F
:10070000F550EE6E6E07F8E26F07F9D772C0F6FF8C
:1007100073C0F7FF74C0F8FF00017007000E715B33
:04072000BFD712002D
:0C0724000F0EC112D09EF29EF29C939624
:100730009490939A8A968B808A9A8A8AF90E8B165D
:10074000941600017A6B7B6B140E6F6EDFEC02F077
:10075000EAEC02F09AEC00F0FBD70F0EC16E939614
:100760009490939A8A968B808A9A8A8A928280A29F
:0A07700002D000EF04F0D6DF120003
:06077A0012010002000064
:100780000008D8040B00010000000001090220004D
:1007900001010080320904000002FFFFFF0007058D
:1007A0000102400000070581024000000403090423
:1007B000000EF36E00EE00F0040E01D81200EA60A5
:1007C00002D0EE6AFCD7F350E9601200EE6AFCD763
:1007D00013EE00F023EE00F0F86A059C43EC03F002
:0C07E00007EC00F0ADEC03F0FBD71200BA
:020000040030CA
:0100000024DB
:010001000EF0
:010002002FCE
:010003001EDE
:0100050000FA
:01000600A158
:010008000FE8
:01000900C036
:01000A000FE6
:01000B008074
:01000C000FE4
:01000D0040B2
:0200000400F00A
:020000001000EE
:00000001FF
