:020000040000FA
:0600000052EF19F012009E
:0600080004EF04F01200F9
:080018000CEF04F01200DACF36
:10002000E4FFE2CFDAFFE9CFE4FFEACFE4FFF6CF67
:10003000E4FFF7CFE4FFF5CFE4FFF3CFE4FFF4CF25
:10004000E4FFFACFE4FF00EE00F0140EE80403E34F
:10005000EECFE4FFFBD700EE14F0040EE80403E358
:10006000EECFE4FFFBD7E652A1A20FD0DDC5B3FF70
:10007000DCC5B2FF0501D93507E28BEC14F00501B0
:10008000D90502E16EEC14F0A192E55200EE17F0F2
:10009000040EE80403E3E5CFEDFFFBD700EE13F019
:1000A000140EE80403E3E5CFEDFFFBD7E5CFFAFF3D
:1000B000E5CFF4FFE5CFF3FFE5CFF5FFE5CFF7FFA1
:1000C000E5CFF6FFE5CFEAFFE5CFE9FFE5CFDAFFC1
:1000D0001100D8CFE4FFE0CFE4FFE46EDACFE4FF15
:1000E000E6529EB29E92E552E5CFDAFFE550E5CFAB
:0800F000E0FFE5CFD8FF10008E
:0608000052EF19F0120096
:060808000FEF00F01200EA
:0608180069EF00F0120080
:06082A000400B2330000DF
:10083000D004000005000000B0330000FD050000FA
:1008400002000000603300008F050000500000002F
:0C0850004C330000DF0500001400000025
:04085C00D9CFE6FF0B
:10086000E1CFD9FFE652A394E5C5E9FFE6C5EAFF6B
:10087000EF6AE3C5E9FFE4C5EAFFEF6AEBC5E9FF0C
:10088000ECC5EAFFEF6A030EE66EE66AE66AEDC5BE
:10089000E6FFEEC5E6FF24EC18F0146E050EE15EEF
:1008A0001450EFC5E9FFF0C5EAFF160EEF6EE7C57D
:1008B000E9FFE8C5EAFF9F0EEF6E7B0E646EDF6A0C
:1008C000DF50146E156A100E145C000E155810E2FD
:1008D000DF50040DF3CFE9FFF4CFEAFF000EE92665
:1008E000040EEA22EE6AEE6AEE6AEE6ADF2AE8D7C2
:1008F000608CDFC5E9FFE0C5EAFFEF6A6098609CA5
:1009000065A607D0659601011B6B206B216B226BDE
:10091000F7D70101010E366F376F386B396B286BD3
:10092000DF6A040EDF5C26E2EA6ADF34FE0BEA3699
:10093000E96E0F0EE926010EEA22EE6AED6AEA6A16
:10094000DF34FE0BEA36E96E070EE926010EEA22D5
:10095000EE6AED6ADF50EA6A2C0FE96E010EEA22B8
:10096000EF6ADF50EA6A300FE96E010EEA22EF6AA1
:10097000DF2AD7D70101080E0F6F040E106FEBC5E9
:10098000E9FFECC5EAFF160EEF6E0401400E026FA0
:10099000040E036F080E016F840E006F0101016BDE
:1009A000006BE552E552E7CFD9FF1200D9CFE6FF41
:1009B000E1CFD9FFE65282BC0DD0E9C5E9FFEAC517
:1009C000EAFFEF6AE1C5E9FFE2C5EAFFEF6A01016C
:1009D000006B9DD00101005128E1E9C5E9FFEAC59E
:1009E000EAFFEF6AE1C5E9FFE2C5EAFFEF6AEFC59A
:1009F000E9FFF0C5EAFF160EEF6EE7C5E9FFE8C5AF
:100A0000EAFF9F0EEF6E7B0E646EE9C5E9FFEAC553
:100A1000EAFFEF50080B06E1E9C5E9FFEAC5EAFF86
:100A2000EF86F3D70101010E006F000510E160BAF7
:100A30000ED0E3C5E9FFE4C5EAFFEF6AE1C5E9FFCF
:100A4000E2C5EAFFEF6A64806488020E006F6550B9
:100A5000040B06E06450040B03E06594F0EC0AF02C
:100A600060B255D06550010B08E06450010B05E001
:100A7000F5DE0101040E006F65906550100B06E075
:100A80006450100B03E0D7EC0AF0659865AC12D007
:100A900064AC0FD0010EE66EE66A000EE66EE66A02
:100AA000730EE66EE66A11EC16F0146E060EE15E49
:100AB0001450659C6550200B05E06450200B02E04B
:100AC000B5EC0AF06550020B17E06450020B14E01D
:100AD000010EE66EE66A000EE66EE66AE6687F0ED6
:100AE000E66E11EC16F0146E060EE15E1450E5C5CC
:100AF000E9FFE6C5EAFFEF6A040E0101E76E00199F
:100B0000E8AE02D0E73402D0E750005D02E2A494E0
:100B10003DD064A63AD0DF6A040EDF5C36E265A6FB
:100B200034D0F1C5E9FFF2C5EAFFEFCF29F10101A9
:100B30002951780BE842E842E8422A6F659629B5C8
:100B400006D02A51EA6A300FE96E010E05D02A510B
:100B5000EA6A2C0FE96E010EEA22EF702A5103E1D6
:100B60000BEC0BF010D0000EE66EE66A290EE66E76
:100B7000010EE66E720EE66EE66A11EC16F0146E69
:100B8000060EE15E1450DF2AC7D7A494E552E55261
:100B9000E7CFD9FF1200D9CFE6FFE1CFD9FF020E90
:100BA000E126FD0EDBA407D0E66AFE0EDBCFE6FFF2
:100BB000F8D9E552E552FD0EDBA208D0010EE66E33
:100BC000FE0EDBCFE6FFEDD9E552E552FE0EDB501F
:100BD0000501156AEB25146EEC51152214C0DEFFD9
:100BE00015C0DDFFDECFE9FFDDCFEAFFFD0EDBCF75
:100BF000EFFF020EE15C02E2E16AE552E16EE552CE
:100C0000E7CFD9FF1200D9CFE6FFE1CFD9FF020E1F
:100C1000E126FD0EDB500AE0FE0EEA6ADB34FE0B35
:100C2000EA36E96E0F0EE926010E09D0FE0EEA6AD9
:100C3000DB34FE0BEA36E96E070EE926010EEA22E6
:100C4000EECFDEFFEDCFDDFFD9CFE9FFDACFEAFF50
:100C5000EE50ED1003E1F36AF46A44D0DECFE9FF11
:100C6000DDCFEAFF020EE926000EEA22FB0EDBCF03
:100C7000EEFFFC0EDBCFEDFFDECFE9FFDDCFEAFFBD
:100C8000EE52FA0EDBCFEFFF400EDECFE9FFDDCFF5
:100C9000EAFFE850EF16880EDECFE9FFDDCFEAFF6E
:100CA000E850EF12FD0EDB500AE0FE0EEA6ADB347C
:100CB000FE0BEA36E96E0F0EE926010E09D0FE0E94
:100CC000EA6ADB34FE0BEA36E96E070EE926010E0E
:100CD000EA22EF74DECF14F0DDCF15F014C0F3FF7D
:100CE00015C0F4FF020EE15C02E2E16AE552E16E3A
:100CF000E552E7CFD9FF1200D9CFE6FFE1CFD9FF08
:100D0000020EE126FE0EDB5020E105C1E9FF06C11F
:100D1000EAFFEE52080EEF6E05C1E9FF06C1EAFFD9
:100D2000020EE926000EEA22400EEE6E040EED6E73
:100D300005C1E9FF06C1EAFF8C0EEF6E0FC1E9FFA6
:100D400010C1EAFF840EEF6E3BD0FD0EDB50E824AD
:100D5000166EFE0EDB50040DF3501624040DF3CF77
:100D600014F0F4CF15F0000E1426040E152214C052
:100D7000DEFF15C0DDFF840EDECFE9FFDDCFEAFF29
:100D8000E850EF12FD0EDB50E824166EFE0EDB502D
:100D9000040DF3501624010F040DF3CF14F0F4CF1B
:100DA00015F0000E1426040E152214C0DEFF15C027
:100DB000DDFF840EDECFE9FFDDCFEAFFE850EF1262
:100DC000020EE15C02E2E16AE552E16EE552E7CF34
:100DD000D9FF1200D9CFE6FFE1CFD9FF60A84ED0EE
:100DE000FE0EEA6ADB34FE0BEA36E96E0F0EE926E8
:100DF000010EEA22EE50EFCFEAFFE96E400EEE164A
:100E0000EE6AEE6AEE6AFE0EEA6ADB34FE0BEA3642
:100E1000E96E0F0EE926010EEA22EE50EFCFEAFF4F
:100E2000E96EEE7CFE0EEA6ADB34FE0BEA36E96E12
:100E30000F0EE926010EEA22EF74400E146EFE0E2C
:100E4000EA6ADB34FE0BEA36E96E0F0EE926010E84
:100E5000EA22EE50EFCFEAFFE96E1450EF16FE0ED5
:100E6000EA6ADB34FE0BEA36E96E0F0EE926010E64
:100E7000EA22EE50EFCFEAFFE96EEF7CE552E7CFD2
:100E8000D9FF1200010136514DE1010E366F375185
:100E900049E1010E376F020E185D0DE10FC1E9FF48
:100EA00010C1EAFFEE52EF6A0FC1E9FF10C1EAFF7D
:100EB000C80EEF6E1200180535E12B6B03C1E9FF78
:100EC00004C1EAFFEE52080EEF6E03C1E9FF04C150
:100ED000EAFF020EE926000EEA22400EEE6E040E34
:100EE000ED6E03C1E9FF04C1EAFF840EEF6E010E4F
:100EF0002B6F05C1E9FF06C1EAFFEE52080EEF6E47
:100F000005C1E9FF06C1EAFF020EE926000EEA224A
:100F1000400EEE6E040EED6E05C1E9FF06C1EAFF5C
:100F2000800EEF6E12000101386B396B020E185DF6
:100F300018E105C1E9FF06C1EAFFEE52080EEF6EA7
:100F400005C1E9FF06C1EAFF020EE926000EEA220A
:100F5000480EEE6E040EED6E05C1E9FF06C1EAFF14
:100F60001DD01C510401465D01011D51040147596A
:100F700004E246C41CF147C41DF1CAD80FC1E9FF01
:100F800010C1EAFF020EE926000EEA22480EEE6EBC
:100F9000040EED6E0FC1E9FF10C1EAFFC80EEF6E3F
:100FA0001200D9CFE6FFE1CFD9FF020EE126000EF5
:100FB000DE6E040EDD6EFD0EDB50E824166EFE0EB6
:100FC000DB50040DF3501624040DF4CF15F0D9CFE7
:100FD000E9FFDACFEAFFF350EE261550ED22DECF1F
:100FE000E9FFDDCFEAFFEF9EFD0EDB500AE1FE0ECA
:100FF000EA6ADB34FE0BEA36E96E070EE926010EDB
:1010000009D0FE0EEA6ADB34FE0BEA36E96E0F0EFB
:10101000E926010EEA22DECFEEFFDDCFEDFFDECFC7
:10102000E9FFDDCFEAFFEF9CDECFE9FFDDCFEAFF8E
:10103000040EE926000EEA22EF8C020EE15C02E2C9
:10104000E16AE552E16EE552E7CFD9FF1200609800
:1010500001011BBF2BD020AF09D0020E186F3951F0
:1010600001E161DF0101376B366B120005C1E9FF59
:1010700006C1EAFFEE52080EEF6E05C1E9FF06C198
:10108000EAFF020EE926000EEA22400EEE6E040E82
:10109000ED6E05C1E9FF06C1EAFF8C0EEF6E0FC1D0
:1010A000E9FF10C1EAFF840EEF6E1200040140AFA9
:1010B0000DD00101010E186F385101E134DF01013B
:1010C000376B366B355123E142EF07F00101020E19
:1010D000186F05C1E9FF06C1EAFFEE52080EEF6E78
:1010E00005C1E9FF06C1EAFF020EE926000EEA2269
:1010F000400EEE6E040EED6E05C1E9FF06C1EAFF7B
:10110000840EEF6E376B366B355101E1BBDE12009A
:10111000D9CFE6FFE1CFD9FFE652080EDF6E01011D
:101120001C5D000E1D590AE21CC1DFFF175102E1D0
:10113000010E03D0170502E1020E176FDF50156A8A
:10114000E8501C5D1C6F15501D591D6F0FC1E9FF44
:1011500010C1EAFFEE52DFCFEFFF480E256F040EFD
:10116000266F1BB118D0DF502DE019C1F6FF1AC150
:10117000F7FF192B000E1A230800F550E66E25C163
:10118000E9FF26C1EAFF252B000E2623E552E75092
:10119000EF6EDF06E8D7DF5015E019C1E9FF1AC18D
:1011A000EAFF192B000E1A23EF50E66E25C1E9FF66
:1011B00026C1EAFF252B000E2623E552E750EF6EED
:1011C000DF06E9D7E552E552E7CFD9FF1200D9CFC4
:1011D000E6FFE1CFD9FF020EE12603C1E9FF04C11A
:1011E000EAFFEE52EFCFDFFFDFCF14F01450010122
:1011F000215D000E225902E221C1DFFFDF50146E93
:10120000156AE850215D216F15502259226F010E99
:10121000DB6ADF50F36E010EDBCFF4FFF350F45CBA
:1012200016E2010EDB50EA6A480FE96E040EEA226C
:10123000EF50E66E1EC1E9FF1FC1EAFF1E2B000E34
:101240001F23E552E750EF6E010EDB2AE2D7000EB6
:10125000D8802155000E225527E205C1E9FF06C1BD
:10126000EAFFEE52080EEF6E05C1E9FF06C1EAFF84
:10127000020EE926000EEA22480EEE6E040EED6E16
:1012800003C1E9FF04C1EAFFEF50400B06E105C1CD
:10129000E9FF06C1EAFFC80E05D005C1E9FF06C196
:1012A000EAFF880EEF6E28D005C1E9FF06C1EAFF0C
:1012B000EE52080EEF6E05C1E9FF06C1EAFF020E0D
:1012C000E926000EEA22400EEE6E040EED6E05C118
:1012D000E9FF06C1EAFF840EEF6E2351241107E0F7
:1012E00005D024C1FAFF01012351F96EFADF010193
:1012F000209F355101E1C6DD020EE15C02E2E16AA8
:10130000E552E16EE552E7CFD9FF1200D9CFE6FFF3
:10131000E1CFD9FFE65201011B8F030EE66EE66AAC
:10132000E66AEDC5E6FFEEC5E6FF24EC18F0146EA4
:10133000050EE15E1450400EE66EE66AE66A000EA7
:10134000E66E040EE66E24EC18F0146E050EE15EF7
:101350001450608CDF6A040EDF5C10E2DF50EA6A32
:101360002C0FE96E010EEA22EF6ADF50EA6A300FB5
:10137000E96E010EEA22EF6ADF2AEDD7010EE66E72
:10138000E66AE66A020EE66E010EE66E24EC18F0DE
:10139000146E050EE15E1450609C0101080E0F6F83
:1013A000040E106F000E036F040E046F03C105F1ED
:1013B000066F42C401F1015102E1100E12D0010E7C
:1013C000E66EE66A010EE66E010EE66E010EE66E50
:1013D000E66A11EC16F0146E060EE15E145001017F
:1013E000200E006FE552E552E7CFD9FF1200800EC4
:1013F0000401405D58E10101C00E1B6F040143511F
:10140000030A2FE0010A09E0030A4BE10101B80ECB
:10141000196F2E0E1A6F120E3ED04251F66EF76AF9
:10142000D890F636F736590EF6262F0EF722090019
:10143000F5CF19F10A00F5CF1AF1020E0101F76A92
:101440001925F66E1A51F7220800F5CF1CF1030E8C
:10145000F76A1925F66E1A51F7220800F5CF1DF12B
:101460001200040E425D1AE24251F66EF76AD890FD
:10147000F636F7365B0EF6262F0EF7220900F5CF6B
:1014800019F10A00F5CF1AF119C1F6FF1AC1F7FFD9
:101490000800F55001011C6F1D6B120001011B6B50
:1014A000120001011B6B1200D9CFE6FFE1CFD9FF7B
:1014B000020EE1260401486B496B40511F0B020AE2
:1014C00011E0030A0CE0010A3CE101011B8F040159
:1014D00048810101270535E10401488332D001012B
:1014E0001B8F2FD001011B8F040144BF0BD044512F
:1014F0000F0BE96EEA6AD890E936EA36070EE9265C
:10150000010E0AD044510F0BE96EEA6AD890E93611
:10151000EA360F0EE926010EEA22EECFDEFFEDCF0E
:10152000DDFFDECFE9FFDDCFEAFFEF50800B09E002
:10153000DECFE9FFDDCFEAFFEF50040B02E0010E42
:10154000486F01011BAF07D0480E196F040E1A6FC8
:101550001B81020E1C6F020EE15C02E2E16AE552A1
:10156000E16EE552E7CFD9FF1200EBC5E9FFECC50C
:10157000EAFFEF50010B19E003C1E9FF04C1EAFFE4
:10158000EF5080080DE10FC1E9FF10C1EAFFEF50F5
:10159000840806E103C1E9FF04C1EAFF8C0EEF6E87
:1015A000EBC5E9FFECC5EAFFEF90659A1200648491
:1015B0006598E9C5E9FFEAC5EAFFEF820101010E7E
:1015C000286F000EE66EE66AE66EE66A750EE66E57
:1015D000E66A11EC16F0146E060EE15E145012006D
:1015E0000101286B000EE66EE66AE66EE66A740E8E
:1015F000E66EE66A11EC16F0146E060EE15E14500B
:10160000E9C5E9FFEAC5EAFFEF92649465A402D058
:101610006594FCD71200D9CFE6FFE1CFD9FFE6529F
:10162000FD0E0101291553E17E0E2915E8407F0BBF
:10163000040DF3CF03F1F4CF04F1000E0327040EE1
:10164000042303C105F104C106F1057503C1E9FFD7
:1016500004C1EAFFEF503C0BE842E8420D0835E1D7
:10166000DF6A080EDF5C23E203C1E9FF04C1EAFF81
:10167000020EE926000EEA22EE50EFCFEAFFE96EF5
:10168000EF50E66EDF50EA6A400FE96E040EEA2280
:10169000E552E750EF6E03C1E9FF04C1EAFF020E15
:1016A000E926000EEA22EE2AEF22DF2ADAD703C16A
:1016B000E9FF04C1EAFF020EE926000EEA22400E0D
:1016C000EE6E040EED6E0DD807D03AD805D0FD0EA3
:1016D0002915040801E159D8E552E552E7CFD9FFB1
:1016E00012000101176B356B386B396B2B6B186B64
:1016F0000FC1E9FF10C1EAFFEF9E0F750FC1E9FFAF
:1017000010C1EAFFEF9E0F7505C1E9FF06C1EAFFB0
:10171000EF9E1B6B1C6B1D6B206B216B226B94D897
:10172000000EE66EE66AE66EE66A030EE66EE66AAE
:1017300011EC16F0146E060EE15E145027EF08F05F
:10174000020E0101185D02E1E7EF08F0186B2B5162
:101750001AE105C1E9FF06C1EAFFEE52080EEF6E7D
:1017600005C1E9FF06C1EAFF020EE926000EEA22E2
:10177000400EEE6E040EED6E05C1E9FF06C1EAFFF4
:101780008C0EEF6E12002B6B1200D9CFE6FFE1CF6B
:10179000D9FFE6520FC1E9FF10C1EAFFEF50400B3D
:1017A00001E0010EDF6E01010F75080E005D10E112
:1017B000DFC5E9FFE0C5EAFF42C4EFFFDFC5E9FF8F
:1017C000E0C5EAFFEF5002E0100E01D0040E006FFA
:1017D000180526E10FC1E9FF10C1EAFF020EE92654
:1017E000000EEA22480EEE6E040EED6E91DC020E43
:1017F0000101175D06E10FC1E9FF10C1EAFF840E88
:101800000DD0DF5006E10FC1E9FF10C1EAFFC80E9D
:1018100005D00FC1E9FF10C1EAFF880EEF6E0FD0AF
:1018200020AF0CD02351241107E005D024C1FAFFCA
:1018300001012351F96EFADF0101209F186BE55277
:10184000E552E7CFD9FF120004014051600BE84296
:10185000E842E842E842E842000901E01200415152
:101860000C0A50E00B0A3FE00C0A31E0010A22E0CA
:101870000B0A1EE0020A1CE0030A18E0080A10E046
:10188000010A0CE00F0A08E0030A01E0120001015E
:101890001B8F080E006F1200F7EF09F086EF09F0BA
:1018A0000101010E196F010E1A6F0CD054EF0AF0EE
:1018B00083EF0CF044510101196F1A6B020E1927C6
:1018C000010E1A231B81010E1C6F1B8F12000101D8
:1018D0001B8F04014451EA6A020FE96E010EEA22ED
:1018E00042C4EFFF1200000EE66EE66AE66EE66A9C
:1018F000020EE66EE66A11EC16F0146E060EE15E5C
:10190000145012001200D9CFE6FFE1CFD9FF050E27
:10191000E1260401420510E140511F0B00090CE1D2
:1019200001011B8F030E0401415D04E10101010E61
:10193000276F02D00101276B0401425101E012D14F
:1019400040511F0B020801E00DD144510F0B00095B
:1019500001E108D144510F0B030801E203D1200E2D
:101960000101005D01E0FED01B8F040144BF16D0D1
:1019700044510F0BE96EEA6AD890E936EA36070E51
:10198000E926010EEA22EECFDEFFEDCFDDFF445166
:101990000F0BEA6A300FE96E010E15D044510F0BA0
:1019A000E96EEA6AD890E936EA360F0EE926010EAA
:1019B000EA22EECFDEFFEDCFDDFF44510F0BEA6AE6
:1019C0002C0FE96E010EEA22020EEFCFDBFFD95099
:1019D000020FE96EDACFEAFFEF50010B03E1000ED0
:1019E000DF9401D0DF8444BF0BD044510F0BE96E6C
:1019F000EA6AD890E936EA36070EE926010E0AD0DF
:101A000044510F0BE96EEA6AD890E936EA360F0EB8
:101A1000E926010EEA22DECFEEFFDDCFEDFF030E59
:101A2000415D20E1DECFE9FFDDCFEAFFEF50800B23
:101A300011E044BF07D044510F0BEA6A300FE96E42
:101A4000010E06D044510F0BEA6A2C0FE96E010E0D
:101A5000EA22EF82840EDECFE9FFDDCFEAFFE85015
:101A6000EF1280D0DF74DECFE9FFDDCFEAFFEF5069
:101A7000800B1BE0DECFE9FFDDCFEAFFEF9EDECF7C
:101A8000E9FFDDCFEAFFEF8C020EE66EE66ADECFFD
:101A9000E6FFDDCFE6FF050EE66EE66A11EC16F016
:101AA000146E060EE15E145005D0DECFE9FFDDCFE7
:101AB000EAFFEF8CDF74D950020FE96EDACFEAFF4C
:101AC000EF50020B07E1DECFE9FFDDCFEAFFEF5079
:101AD000800B2BE0040144BF07D044510F0BEA6A8E
:101AE000300FE96E010E06D044510F0BEA6A2C0F3D
:101AF000E96E010EEA22EF923B0E146EDECFE9FF93
:101B0000DDCFEAFFE850EF16020EE66EE66ADECFA2
:101B1000E6FFDDCFE6FF050EE66EE66A11EC16F095
:101B2000146E060EE15E145007D03B0EDECFE9FFC7
:101B3000DDCFEAFFE850EF16040144510F0B050119
:101B4000156AEB25146EEC511522030E14C0DBFF51
:101B5000040E15C0DBFF030EDBCFE9FF040EDBCF65
:101B6000EAFFEF90050EE15C02E2E16AE552E16E08
:081B7000E552E7CFD9FF120096
:081B7800D9CFE6FFE1CFD9FF50
:101B80000401550E506FFE0EDBCF51F4536B5051D4
:101B900051195319526F0001E85103E005EC12F09E
:101BA000FAD7E8510CE1040EE66E500EE66E040E14
:101BB000E66E6DEC11F0E552E552E55204D00401F9
:101BC000D32B000ED423E552E7CFD9FF1200D9CF93
:101BD000E6FFE1CFD9FFE652FE0EDB503C0805E2FE
:101BE0003C0EF36EFE0EF3CFDBFF0401550E506F7B
:101BF000200E516FFE0EDBCF53F4040E146EFE0E5A
:101C0000DBCFE7FF1450E726FE0EE7CFDBFF526B7A
:101C1000DF6AFE0EDB50DF5C0EE2020EDF5C09E0E5
:101C2000DF50EA6A500FE96E040EEA22EF50040119
:101C3000521BDF2AEED70001E85103E005EC12F059
:101C4000FAD7E8510DE1FE0EDBCFE6FF500EE66E4F
:101C5000040EE66E6DEC11F0E552E552E55204D04B
:101C60000401D32B000ED423E552E552E7CFD9FF70
:101C70001200D9CFE6FFE1CFD9FF0B0EE126050E0A
:101C8000DB6A060EDB6A070EDB6A230EF36E090EB3
:101C9000F3CFDBFF420EF36E0A0EF3CFDBFF200E15
:101CA0000101E76E0019E8AE02D0E73402D0E75038
:101CB000005D03E36050020B01E0DED1400EE66EF2
:101CC000900EE66E040EE66E0DEC11F0E552E55254
:101CD000E552DF6E040EDF5C01E2CCD1AA0E0401F6
:101CE000905D01E0C7D1010E93C4DBFF020E91C4E9
:101CF000DBFF030E92C4DBFF010EDB50040F146EFA
:101D0000DF50145C01E0B1D104019051040191193C
:101D1000E76E080EE7CFDBFF030EF36E040EF3CF82
:101D2000DBFFDF50F36E040EDBCFF4FFF350F45C07
:101D300012E2040EDB50EA6A900FE96E040EEA220A
:101D4000080EDBCFE7FFEF50E71A080EE7CFDBFF07
:101D5000040EDB2AE6D7080EDB50F36E030EDB50D1
:101D6000F35C01E07DD18B840401800ED06F020E04
:101D7000DB50810A01E140D1010A01E12AD1820A46
:101D800001E117D1030A01E104D1500A01E1E6D0D3
:101D9000010A01E1CAD0450A01E1B1D0010A01E11D
:101DA00095D0240A01E17FD0100A3AE0010A38E018
:101DB000610A01E050D1010EDB502DE1A3EC19F0D6
:101DC0009BEC19F0000901E0FBD792EC19F0060E2C
:101DD000F3CFDBFF070EF4CFDBFFFF0EE76E060E3F
:101DE000DBCF14F0070EDBCF15F0E7501416156AA1
:101DF00014C054F4060EDBCF14F0070EDBCF15F041
:101E000015C014F0156A14500401556F020EE66EE9
:101E1000DEDEE55204D0030EE66EAEDEE5521FD1E3
:101E2000010EDB5020083AE10501D96B040EDB6A94
:101E3000200EF36E040EDBCFF4FFF350F45C22E2CD
:101E4000040EDBCFE6FF020EDB50E00F200DF35057
:101E5000E552E724E76E050EE7CFDBFF040EDB500B
:101E6000040FEA6A900FE96E040EEA22EF50E66E64
:101E7000050EDBCFE6FFAAEC12F0E552E552040EA8
:101E8000DB2AD6D70501010ED96F0401D12B000E34
:101E9000D223010EE66E70DEE55204D0030EE66E2C
:101EA0006BDEE552DCD0010EDB500BE1B7EC13F03A
:101EB000D8C554F40401556B020EE66E88DEE55277
:101EC00004D0030EE66E58DEE552C9D0010EDB5099
:101ED00011E105EC14F00501DA510401546FDBC582
:101EE00014F0156A14500401556F020EE66E6FDE91
:101EF000E55204D0030EE66E3FDEE552B0D0010E8F
:101F0000DB5002080DE10401941D0501DC6F0401A2
:101F1000951D0501DD6F010EE66E2EDEE55204D043
:101F2000030EE66E29DEE5529AD0010EDB0411E1C4
:101F3000A0EC19F004019451E66EE66AD0EC18F0BA
:101F4000E552E5520401546F010EE66E40DEE552A3
:101F500004D0030EE66E10DEE55281D0010EDB5098
:101F6000020812E1A0EC19F095C4E6FF04019451B7
:101F7000E66EE66A3EEC18F0E552E552E552010ED7
:101F8000E66EFADDE55204D0030EE66EF5DDE552AD
:101F900066D0010EDB5008E10401340E546F010ECF
:101FA000E66E15DEE55204D0030EE66EE5DDE55281
:101FB00056D0010EDB5008E10401010E546F010EF2
:101FC000E66E05DEE55204D0030EE66ED5DDE55281
:101FD00046D0010EDB500BE1090EDBCF54F40A0EA4
:101FE000DBCF55F4020EE66EF2DDE55204D0030EAF
:101FF000E66EC2DDE55233D0010EDB50020826E169
:10200000090EDB500401945D1CE10A0EDB50040153
:10201000955D17E1F29EE9C5E9FFEAC5EAFFEF6ABF
:10202000E1C5E9FFE2C5EAFFEF6A0101006BD6EC0A
:1020300004F0120EE66E7CEC19F0E55292EF03F01C
:1020400004D0020EE66E98DDE55204D0030EE66E73
:1020500093DDE55204D0E6688FDDE55200D004D070
:10206000040EE66E89DDE55204D0030EE66E84DDD3
:10207000E55202D0010EDB6A0B0EE15C02E2E16A7E
:0C208000E552E16EE552E7CFD9FF1200F7
:04208C0004014051BA
:102090001F0B010801E012004051600BE842E842CA
:1020A000E842E842E842010801E01200445103E03E
:1020B000440501E012004151220A31E0030A24E004
:1020C000010A15E0210A0DE0010A01E012000101F8
:1020D000F80E196F000E1A6F080E1C6F1D6B1B8116
:1020E00021D00101F80E196F000E1A6F1BD046C4E3
:1020F00021F147C422F10101800E1E6F050E1F6FF2
:10210000236B246B208F12000101800E196F050EC6
:102110001A6F070E1C6F1D6BC10E1B6F120042C49D
:10212000F3F001011B8F12000501806B4B0E816FD4
:10213000826B836B846B856B080E866F0001E76B87
:102140001A0EE66E020EE66ECBEC05F0E552E55295
:102150001E0EE66E030EE66ECBEC05F0E552E55280
:10216000400EE66E400EE66E050EE66EE66A030E63
:10217000E66E03EC06F0146E050EE15E1450F3CF2C
:10218000EFF0F4CFF0F00001F16BF26BE86B1200AE
:10219000D9CFE6FFE1CFD9FFFD0EDBCF08F0FE0E71
:1021A000DBCF09F0050E081801E1095002E0000E2E
:1021B00030D0FB0EDBCF14F0FC0EDBCF15F00001AE
:1021C000EF51141816E1F051151813E1400EE66EA8
:1021D000400EE66E050EE66EE66A030EE66E03EC52
:1021E00006F0146E050EE15E1450F3CFEFF0F4CF5D
:1021F000F0F0FB0EDBCF14F0FC0EDBCF15F000018E
:10220000F151141805E1F251151802E1E86BED6B7C
:10221000010EE552E7CFD9FF1200D9CFE6FFE1CF9B
:10222000D9FF0001E76BEF51F01102E1000E08D079
:10223000EFC0E9FFF0C0EAFFEF50800B01E0010EB4
:10224000000945E1FC0EDBCF14F0EFC0E9FFF0C060
:10225000EAFFEE52EF50D880145408E2EFC0E9FFD5
:10226000F0C0EAFFEE52FC0EEFCFDBFFE76BFC0E97
:10227000DB50E75D19E2E751EA6A400FE96E050EAF
:10228000EA22EF50E66EE751E76EFD0EDBCFE9FF85
:10229000FE0EDBCFEAFFE750E926000EEA22E55208
:1022A000E750EF6EE72BE3D7400EE66E400EE66E8A
:1022B000050EE66EE66A030EE66E03EC06F0146E9B
:1022C000050EE15E1450F3CFEFF0F4CFF0F0000113
:1022D000E751E552E7CFD9FF1200D9CFE6FFE1CFB2
:1022E000D9FF0001E8510CE1FD0EDBCFE9F0FE0E55
:1022F000DBCFEAF0FC0EDBCFEDF0010EEE6FE86F06
:10230000E552E7CFD9FF1200D9CFE6FFE1CFD9FFE1
:10231000030EE1260001E8512DE1DF6AFD0EDBCF5F
:1023200008F0FE0EDBCF09F0DE5208C0DEFF09C068
:10233000DDFFDD52DF2ADF50146E156AFF0E141820
:1023400002E115500BE0010EDBCFE9FFDB2A020EA4
:10235000DBCFEAFF01E3DB2AEF50ECE1FD0EDBCF40
:10236000E9F0FE0EDBCFEAF0DFCFEDF00001010E69
:10237000EE6FE86F030EE15C02E2E16AE552E16EA6
:10238000E552E7CFD9FF1200D9CFE6FFE1CFD9FF61
:10239000030EE1260001E8512EE1DF6AFD0EDBCFDE
:1023A00008F0FE0EDBCF09F0DE5208C0DEFF09C0E8
:1023B000DDFFDD52DF2ADF50146E156AFF0E1418A0
:1023C00002E115500CE0010EDBCFF6FFDB2A020E16
:1023D000DBCFF7FF01E3DB2A0800F550EBE1FD0E50
:1023E000DBCFE9F0FE0EDBCFEAF0DFCFEDF000014E
:1023F000EE6B010EE86F030EE15C02E2E16AE5526A
:10240000E16EE552E7CFD9FF1200D9CFE6FFE1CF69
:10241000D9FF020EE1260001F151F21102E1000E96
:1024200008D0F1C0E9FFF2C0EAFFEF50800B01E0F5
:10243000010E000901E084D0030EE85D01E1E86BC4
:10244000E85101E17DD0020EE85D16E1E66A000E7A
:10245000E66EE66A010EE66E030EE66E03EC06F02B
:10246000146E050EE15E1450F3CFF1F0F4CFF2F0EC
:102470000001030EE86F64D0E80562E1400E146EBF
:10248000156AED51145C000E155803E2400EDF6E24
:1024900002D0EDC0DFFFDF50ED5DED6F000EEB6FA2
:1024A000050EEC6F010EDFCFDBFFEE5116E1010EE2
:1024B000DB5028E0E9C0F6FFEAC0F7FF0800F5505E
:1024C000EBC0E9FFECC0EAFFEF6EEB2B000EEC2354
:1024D000E92BEA23010EDB06EAD7010EDB5012E0FE
:1024E000E9C0E9FFEAC0EAFFEF50EBC0E9FFECC04A
:1024F000EAFFEF6EEB2B000EEC23E92BEA23010E33
:10250000DB06EBD70001ED5107E1400EDF5C02E195
:10251000020E01D0030EE86FDFCFE6FF000EE66E7D
:10252000050EE66E010EE66E030EE66E03EC06F097
:10253000146E050EE15E1450F3CFF1F0F4CFF2F01B
:10254000020EE15C02E2E16AE552E16EE552E7CF9C
:04255000D9FF12009D
:0C255400D9CFE6FFE1CFD9FF030EE1264E
:102560000501D851F36EFE0EDBCFF4FFF350F45C9F
:1025700001E3F3D0FD0EDBCFE6FF10EC19F0E552DE
:10258000F3CF14F0F4CF15F0141E151E010E14C075
:10259000DBFF020E15C0DBFF300E0501D85D1AE12E
:1025A000180EF36EFE0EDBCFF4FFF350F45C08E27E
:1025B000180E146EFE0EDBCFE7FF1450E72607D08F
:1025C000180E146EFE0EDBCFE7FF1450E75EFE0E12
:1025D000E7CFDBFFFE0EDB50030DF350DF6EDFA015
:1025E0001AD0F00E146EDF50FE0BE842EA6A8F0F2D
:1025F000E96E050EEA221450EF16010EDBCF14F03F
:10260000020EDBCF15F0000E14160F0E151615C0B6
:1026100014F0156A1CD00F0E146EDF50FE0BE8424A
:10262000EA6A8F0FE96E050EEA221450EF16010ECA
:10263000DBCF14F0020EDBCF15F0000E14160F0ED8
:102640001516040ED89015321432E804FBE1DF5061
:10265000FE0BE842EA6A8F0FE96E050EEA2214507B
:10266000EF12DF2ADFA01CD0F00E146EDF50FE0B3D
:10267000E842EA6A8F0FE96E050EEA221450EF165F
:10268000F00EE76E010EDBCF14F0020EE7501416C9
:10269000156A040ED89015321432E804FBE115D007
:1026A0000F0E146EDF50FE0BE842EA6A8F0FE96EE0
:1026B000050EEA221450EF16F00EE76E010EDBCF86
:1026C00014F0020EE7501416156ADF50FE0BE842B4
:1026D000EA6A8F0FE96E050EEA221450EF12DF2A24
:1026E000DFA016D0F00E146EDF50FE0BE842EA6A4F
:1026F0008F0FE96E050EEA221450EF160F0EE76EEB
:10270000010EDBCF14F0020EE7501416156A1BD031
:102710000F0E146EDF50FE0BE842EA6A8F0FE96E6F
:10272000050EEA221450EF160F0EE76E010EDBCFF6
:1027300014F0020EE7501416156A040ED8901436E1
:102740001536E804FBE1DF50FE0BE842EA6A8F0F22
:10275000E96E050EEA221450EF12030EE15C02E26C
:10276000E16AE552E16EE552E7CFD9FF1200D9CF19
:10277000E6FFE1CFD9FF020EE1260501D969480E37
:10278000D76F230EE66EF2EC18F0E552420EE66EBD
:10279000F2EC18F0E552010EDF6EDF50146E156A90
:1027A000D890155004E6FF0E145C000E155813E285
:1027B000E66AF2EC18F0E552420EC95C07E1010E40
:1027C000DB50230803E1DFCFD7F505D0010EC9CFD9
:1027D000DBFFDF2AE2D782D80501D751E824146E47
:1027E000030E156E0E6E14C009F06EEC19F009C0E0
:1027F000D8F50501D96B020EE15C02E2E16AE5520F
:10280000E16EE552E7CFD9FF1200D9CFE6FFE1CF65
:10281000D9FFE6520501D969BE0EE66E170EE66EC7
:1028200099DEE552E5525AD876D8F290DF6AF2A0E6
:10283000FED7020EE66E7CEC19F0E55281B829D085
:10284000DF5002E1B36AB26A080EDF5C21E1B250E8
:102850000501DA6FDB6BB350146E156A086A010E5E
:10286000096E14C00DF015C00EF0A3EC18F0065060
:102870000501DA270750DB23DAC514F0DBC515F0B4
:10288000500E145E000E155A010E0F0B09E003D016
:10289000DF2AF290CCD7D89015321432E806FBE14B
:1028A000640E0D6E0E6A14C008F015C009F02CEC11
:1028B00019F008C014F009C015F008C0DEF5E66A8A
:1028C000170EE66E47DEE552E55208D824D805011A
:1028D000D96BE552E552E7CFD9FF1200D9CFE6FF19
:1028E000E1CFD9FFE652DF6A0501D751DF5C0DE287
:1028F000DF50EA6A8F0FE96E050EEA22EF50E66EAE
:10290000F2EC18F0E552DF2AEFD7D96BE552E55229
:10291000E7CFD9FF12008A8ADEC5E6FF60EC19F026
:10292000E5528B808A86280EE66E7CEC19F0E55223
:102930008A96280EE66E7CEC19F0E5528B90DEC587
:0C294000E6FF60EC19F0E5528A9A1200E4
:04294C0007D88250D6
:10295000400B02E001010051B3D8F9D7D9CFE6FF0F
:10296000E1CFD9FF020EE126010EE66EE66AFE0E09
:10297000E66EE6683F0EE66ED9CFE6FFDACFE6FFF9
:1029800001EC18F0146E070EE15E1450010EE66EB5
:10299000E66AE668E6683F0EE66ED950010FE66E1D
:1029A000000EDA20E66E01EC18F0146E070EE15E00
:1029B00014501F0EDF140001E26F010EDB50146E85
:1029C000156A030ED89014361536E804FBE1DF5083
:1029D000E00BE838E84000011410E36F15C0E4F0A4
:1029E000970EE31905E1E45103E10F0EC16E05D026
:1029F000F80ED36E0F015B938688948C966A956A65
:102A00003F0E9316C30E9216F90E8B1694169282F1
:102A100093849388E66AE66A020EE66E71EC18F01B
:102A2000E552E552E55293969490939A8A968B805C
:102A30008A9AB7EC13F0B10EB16EA082A28205ECB7
:102A400014F0DBC514F0156AFF0E1416000E1516EF
:102A5000FF0E14180501DD6FFF0E0501DA15146E67
:102A6000156AFF0E14180501DC6F010EC26E0E0E02
:102A7000C16EBE0EC06EF298F296BA68EA0EBB6ED8
:102A80009D929F922EEC04F0D08EF28CF28E020E6C
:102A9000E15C02E2E16AE552E16EE552E7CFD9FF7F
:102AA00012008050020B01E0010E0001E05D07E022
:102AB0008050020B01E0010EE06F80A2010C000CBF
:102AC000D9CFE6FFE1CFD9FFE652D6EC04F070D8BB
:102AD0000401D051000802E2D00701D08B94E1DF5D
:102AE00000094FE00001E12BE151060801E2E16B32
:102AF0000501D96BDF6A0501D851DF5C3BE2030EAB
:102B00000001E103F350F76A0E0FF66E330EF72261
:102B10000800F550E66EDFCFE6FFAAEC12F0E552B2
:102B2000E552030E0001E103F328F76A0E0FF66E7B
:102B3000330EF7220800F550E66EDF28E66EAAECA9
:102B400012F0E552E552030E0001E103F350020FCB
:102B5000F76A0E0FF66E330EF7220800F550E66E98
:102B6000020EDF24E66EAAEC12F0E552E552030EE7
:102B7000DF26C1D70501010ED96F8B840401800EB9
:102B8000D06F200E0101E76E0019E8AE02D0E734E5
:102B900002D0E750005D07E36050020B04E139EC1E
:102BA0000EF005EC12F0E552E552E7CFD9FF120026
:102BB0000501FD51FE1104E1100EFD6F270EFE6FA1
:102BC000FD07000EFE5B6050020B020A01E0010EE1
:102BD000146E200E0101005D02E0000E01D0010E16
:102BE000141406E00501FD51FE1103E18B72120081
:102BF0008B921200120012001200120046EF10F029
:102C0000120094EF10F060840001080EE56F070ECB
:102C1000E66FE507000EE65BE551E611FAE1609428
:102C20001200D9CFE6FFE1CFD9FFFD0EDBCF08F0D0
:102C3000FE0EDBCF09F0720E081801E1095033E0F7
:102C4000E868081802E17F0E09182BE0740E0818D6
:102C500001E1095024E0750E081801E109501DE05A
:102C6000730E081801E1095016E0030E081801E17F
:102C700009500FE0020E081801E1095008E0010EAA
:102C8000081801E1095001E010D0BBDF0FD0B8DF18
:102C90000DD0B4DF0BD0B0DF09D0ACDF07D0ABDF95
:102CA00005D0ABDF03D0000001D000D0010E00D072
:082CB000E552E7CFD9FF120045
:082CB800000000000000000014
:102CC00000000000000001000100010001000200FE
:102CD00002000200030003000400050005000600D6
:102CE0000700080009000A000B000C000E000F008E
:102CF0001000120013001500170019001B001D0022
:102D00001F0021002300250028002A002D0030008C
:102D10003300360039003C003F00420046004900C5
:102D20004D005100550058005D00610065006900CC
:102D30006E00730077007C00810086008C0091009B
:102D400096009C00A200A800AD00B400BA00C0002C
:102D5000C700CD00D400DB00E200E900F000F8007D
:102D6000FF0007010E0116011E0127012F01380186
:102D70004001490152015B0164016D01770181014C
:102D80008A0194019E01A901B301BE01C801D301CA
:102D9000DE01E901F40100020C02170223022F02F6
:102DA0003C024802540261026E027B0288029602D3
:102DB000A302B102BF02CD02DB02E902F80207035F
:102DC0001503250334034303530362037203820391
:102DD0009303A303B403C403D503E603F803090470
:102DE0001B042D043F0451046304760489049C04ED
:102DF000AF04C204D604E904FD04110525053A0513
:102E00004E05630578058D05A305B805CE05E405D7
:102E1000FA05100627063E0655066C0683069B0635
:102E2000B206CA06E206FB0613072C0745075E0733
:102E300077079107AA07C407DE07F90713082E08CA
:102E40004908640880089B08B708D308EF080B09F5
:102E50002809450962097F099D09BA09D809F609B7
:102E6000150A330A520A710A900AB00ACF0AEF0A09
:102E70000F0B2F0B500B710B920BB30BD40BF60BEC
:102E8000180C3A0C5C0C7E0CA10CC40CE70C0B0D5E
:102E90002E0D520D760D9B0DBF0DE40D090E2E0E5D
:102EA000540E790E9F0EC50EEC0E120F390F600FE7
:082EB000880FAF0FD70FFF0FD1
:082EB8001201000202000008F3
:102EC000D8040A00000101020301090243000201C3
:102ED00000C03209040000010202010005240010B4
:102EE0000104240202052406000105240100010753
:102EF00005820308000209040100020A000000071D
:102F00000503024000000705830240000004030996
:102F10000426036300400072007300740065006EB5
:102F20000070007200650073007300650072002E6F
:102F30000064006500000018034B0061007200612E
:102F400000740065006C0069006700680074000A86
:102F5000033200330061006600CA2E0D2F112F3797
:032F60002F4F2FC1
:0C2F64002A0EF66E080EF76E000EF86ED6
:102F700005010900F550F86F0900F550F96F03E1FC
:102F8000F86701D03DD00900F550F36F0900F55006
:102F9000F46F0900F550F56F09000900F550E96E6E
:102FA0000900F550EA6E090009000900F550F66FB6
:102FB0000900F550F76F09000900F6CFFAF5F7CFD1
:102FC000FBF5F8CFFCF5F3C5F6FFF4C5F7FFF5C543
:102FD000F8FF0501F65302E1F75307E00900F55049
:102FE000EE6EF607F8E2F707F9D7FAC5F6FFFBC56C
:102FF000F7FFFCC5F8FF0501F807000EF95BBFD726
:023000001200BC
:0E300200FB0EE3CFF6FFFC0EE3CFF7FFFD0E53
:10301000E3CFF8FFFE0EE3CFE9FFFF0EE3CFEAFFB9
:10302000E9CFF3FFEACFF4FFF90EE35003E1FA0E24
:10303000E35009E0F90EE30602E2FA0EE3060900A6
:10304000F5CFEEFFF1D71200FE0EE3CFE9FFFF0E42
:10305000E3CFEAFFE9CFF3FFEACFF4FFFB0EE35043
:1030600003E1FC0EE35009E0FB0EE30602E2FC0E76
:0C307000E306FD0EE350EE6EF1D71200F7
:04307C00D9CFE6FFC3
:10308000DACFE6FFE1CFD9FFE2CFDAFFE652DF6A1F
:10309000FF0EE76EFC0EDBCF14F0E7501416145051
:1030A000A96EFB0EDB50A86EA69EA69CA684F250CD
:1030B000800B01E0010EDF6EF29E550EA76EAA0E88
:1030C000A76EA682A6B2FED7DF50E8B0F28EE8A0C7
:1030D000F29EA694E552E552E5CFDAFFE7CFD9FF9D
:0230E0001200DC
:0E30E200D9CFE6FFDACFE6FFE1CFD9FFE2CF8C
:1030F000DAFF3F0EC716C66AFD0EDB50C612FB0E86
:10310000DB50C712FC0EDB50030A09E0010A04E0A1
:10311000020A06E1C78C04D0C78CC68801D0C688D5
:10312000FD0EDB50050A03E0010A03E1928A938455
:1031300001D0939493809396C68AE552E5CFDAFF47
:06314000E7CFD9FF1200E9
:0A31460009C013F008C012F0085091
:103150000D02F4CF07F0F3CF06F009500E02F4CFC2
:1031600009F0F3CF08F00D02F3500726F4500822BF
:10317000E86A092212500E02F3500726F450082282
:10318000E86A09220EAEC9EF18F01250085E13501B
:10319000095A13AE000C0D50085E0E50095A000C6F
:1031A000D9CFE6FFDACFE6FFE1CFD9FFE2CFDAFFF2
:1031B000FF0EE76EFC0EDBCF14F0FD0EDBCF15F03B
:1031C000E7501416156A1450A96EA69CA69EA680F8
:1031D00000000000A85000D0E552E5CFDAFFE7CFAD
:0431E000D9FF120001
:0C31E400D9CFE6FFDACFE6FFE1CFD9FF3C
:1031F000E2CFDAFFE652C950DF6E9E96C69EFD0E04
:10320000DB50C96EC6AE02D0FF0E03D09EA6FED71D
:10321000000EE552E552E5CFDAFFE7CFD9FF120005
:10322000D9CFE6FFE1CFD9FFFE0EF76ADB34FE0B04
:10323000F736F66EB80EF6262C0EF7220900F5CFFB
:1032400014F00800F5CF15F014C0F3FF15C0F4FF1B
:08325000E552E7CFD9FF12009F
:08325800056A046A100EE76E1E
:10326000D89008360936043605360D50045C0E50E9
:10327000055805E30D50045E0E50055A082AE72E46
:04328000F0D7120071
:0C328400000EF36E00EE00F0080E01D802
:103290001200EA6002D0EE6AFCD7F350E960120037
:0432A000EE6AFCD7FF
:0C32A40013EE00F023EE00F0F86A019C2D
:1032B000B2EC17F0A5EC19F0A6EC14F0FBD7120055
:1032C000FF0EE350186E1B0E00D001D0200EE76EEB
:0C32D000E72EFED7182EFAD700D012000F
:0432DC00056A080E69
:1032E000E76ED890093605360E50055C02E3056E90
:0832F000092AE72EF7D71200AE
:0832F800FF0EE350E84E120046
:0E330000000000D000D000D0E82EFAD7120056
:02330E00FF00BE
:103310000000FF000000FFFF00FF00FFFFFFFF00B5
:03332000FFFFFFAD
:0C332400C450176E166AC3501610F36EEA
:0633300017C0F4FF1200BB
:0A333600C250020B01E0010E12006C
:06334000A6B2FED7120048
:04334600C28212002D
:02334A0012006F
:04334C00630F640F98
:10335000650F670F660F600F6A0F6B0F620F610FCB
:10336000FFFFFFFFFFFFFFFFFFFFFFFFFFFFFFFF6D
:10337000FFFFFFFFFFFFFFFFFFFFFFFFFFFFFFFF5D
:10338000FFFFFFFFFFFFFFFFFFFFFFFFFFFFFFFF4D
:10339000FFFFFFFFFFFFFFFFFFFFFFFFFFFFFFFF3D
:1033A000FFFFFFFFFFFFFFFF4830000000000000AD
:0233B00000001B
:0533B200000000000016
:020000040030CA
:0100000000FF
:0100010025D9
:010002005F9E
:010003003CC0
:01000500D327
:010006008178
:010008000FE8
:01000900C036
:01000A000FE6
:01000B00E014
:01000C000FE4
:01000D0040B2
:0200000400F00A
:0400000034000000C8
:00000001FF
