:0408000055EF04F0BC
:10080800FACF15F0FBCF16F0E9CF17F071ED15F020
:10081800D8CF01F0E8CF02F0E0CF03F0FACF04F030
:10082800FBCF05F0E9CF06F0EACF07F0E1CF08F0FB
:10083800E2CF09F0D9CF0AF0DACF0BF0F3CF0CF002
:10084800F4CF0DF0F6CF0EF0F7CF0FF0F8CF10F091
:10085800F5CF11F09EA202D09E9200D011C0F5FFF4
:1008680010C0F8FF0FC0F7FF0EC0F6FF0DC0F4FF71
:100878000CC0F3FF0BC0DAFF0AC0D9FF09C0E2FFC2
:1008880008C0E1FF07C0EAFF06C0E9FF05C0FBFF9B
:1008980004C0FAFF03C0E0FF02C0E8FF01C0D8FFB0
:0608A800100021EF13F027
:1009000000A8094E0974099E090B09090243000257
:100910000100C032090400000102020100052400A8
:10092000100104240202052406000105240100012F
:100930000705810308000209040100020A00000003
:10094000070502024000000705820240000026035E
:100950006300400072007300740065006E00700058
:100960007200650073007300650072002E00640061
:100970006500000018034B00610072006100740004
:1009800065006C00690067006800740012010002D5
:1009900002000008D8040A00000101020301180344
:1009A0003200330061006600040309040000000EF9
:1009B0000001E66F000E0001E96F000EE86F230EE4
:1009C0000001EB6F420E0001EC6F1F0E00019765F6
:1009D00041D26DB23FD201D03DD2000E2A6E010E3F
:1009E0002B6E400E2C6E7FEC13F00001ED6F030EAA
:1009F0000001ED652BD2AA0E01010019D8A426D260
:100A000003C1EFF001C1EAF002C1E5F00001ED51D0
:100A10000001E16FE26B0001EF510001E36FE46B55
:100A2000040E0001E327000EE4230001E151000160
:100A3000E31905E10001E2510001E419D8A402D252
:100A400001010151010100190001E76F030E0001CE
:100A5000EE6F0FD00001EE51010D000EF324D96EA0
:100A6000010EF420DA6EDF500001E71B0001EE2BCF
:100A700000D00001ED510001EE5DD8A0EBD70001E0
:100A8000E7510001E519D8A4D9D18B84800E00016B
:100A90009C6FA3D10001EF510001D8A418D01FEC26
:100AA0001AF000D014EC1AF00009D8A4FBD70CEC13
:100AB0001AF023C0E8F024C0E9F0E8C044F10001D6
:100AC000E9510101456F020EB9EC15F0C3D1030ED7
:100AD000FAEC17F0BFD100D0200E0001EF19D8A416
:100AE00038D0000E0001A06F000E0001EE6F1F0E47
:100AF0000001EE6501D023D00001EA39E846E00BA1
:100B00000001EE250001E66F0001EE510001E16FEA
:100B1000E26B040E0001E127000EE223000E00014B
:100B2000E125D96E010E0001E221DA6EDF50266E5A
:100B30000001E65187EC0AF00001EE2BD8D7010E38
:100B40000001A06F0001924B932B010EFAEC17F0FD
:100B500081D1030EFAEC17F07DD10001DD510001C7
:100B6000EF19D8A432D0000E0001A06F000E0001D2
:100B7000EE6F1BD00001EE510001E16FE26B040E3D
:100B80000001E127000EE223000E0001E125D96EED
:100B9000010E0001E221DA6EDF50266E0001EE51F7
:100BA00087EC0AF00001EE2B00D00001DD510001BE
:100BB000EE5DD8A0DFD7010E0001A06F0001924BBF
:100BC000932B010EFAEC17F045D1030EFAEC17F057
:100BD00041D1020E0001EF19D8A410D0000E00017F
:100BE000A06F05C126F00101045187EC0AF0010E47
:100BF0000001A06F010EFAEC17F02CD1030EFAECF5
:100C000017F028D10001EF510001D8A408D042EC20
:100C100016F05FC044F1010EB9EC15F01BD1030EC4
:100C2000FAEC17F017D10001EF510001D8A40BD056
:100C300042EC16F0DDC044F1000E0101456F020EDA
:100C4000B9EC15F007D1030EFAEC17F003D100014F
:100C5000EF510001D8A40BD038EC14F04AC044F195
:100C60004B500101456F020EB9EC15F0F3D0030EA5
:100C7000FAEC17F0EFD0020E0001EF19D8A40ED055
:100C800001010451FF0A0001A26F01010551FF0A91
:100C90000001A16F010EFAEC17F0DCD0030EFAECA4
:100CA00017F0D8D00001EF05D8A40DD01BEC1AF036
:100CB00004C123F0246ADEEC19F00101446F010E37
:100CC000B9EC15F0C7D0030EFAEC17F0C3D0020E42
:100CD0000001EF19D8A40DD01BEC1AF004C123F0C9
:100CE000246A05C125F087EC18F0010EFAEC17F024
:100CF000B1D0030EFAEC17F0ADD00001EF510001B6
:100D0000D8A407D0340E0101446F010EB9EC15F0E0
:100D1000A1D0030EFAEC17F09DD00001EF510001B5
:100D2000D8A407D0010E0101446F010EB9EC15F0F3
:100D300091D0030EFAEC17F08DD00001EF510001B5
:100D4000D8A408D0EBC044F1ECC045F1020EB9ECD8
:100D500015F080D0030EFAEC17F07CD0020E0001E3
:100D6000EF19D8A432D00001EB5101010419D8A425
:100D700028D00001EC5101010519D8A422D0F29E1F
:100D8000CDC0D9FFCEC0DAFF000EDF6ED5C0D9FFCF
:100D9000D6C0DAFF000EDF6E000E0001976F76EC12
:100DA00008F0120EE8EC19F0900E0001F1190001A4
:100DB000F211D8B403D09EEF03F04CD092EF03F0C1
:100DC00049D0020EFAEC17F045D0030EFAEC17F0FA
:100DD00041D0FF0EFAEC17F03DD00001EA51010AB4
:100DE000D8B48BD7030AD8B498D7130AD8B4F1D69D
:100DF000030AD8B4B2D6010AD8B404D7070AD8B4C3
:100E000026D7010AD8B437D7350AD8B465D6010A2F
:100E1000D8B462D6110AD8B406D7700AD8B43AD674
:100E2000100AD8B43FD7010AD8B451D7D10AD8B4E0
:100E300084D7010AD8B492D7CCD70CD0040EFAECE0
:100E400017F008D0030EFAEC17F004D0000E0001E2
:100E5000EF6F00D0120004013205D8A412D00401B3
:100E600030511F0B0009D8A40CD0598E030E040179
:100E70003119D8A402D0010E01D0000E0001956FE7
:100E800000D004013251D8A430D1040130511F0BDD
:100E9000020AD8A42AD1040134510F0B0009D8B496
:100EA00024D1040134510F0B376E030E37601DD16E
:100EB000200E00019719D8A418D1598E040134BF0F
:100EC0001BD0040134510F0B376E3750020D720ED8
:100ED000F324D96E000EF420DA6EDECF3BF0DDCFC6
:100EE0003CF0040134510F0B376E3750010D7F0E6B
:100EF000F324D96E000E1AD0040134510F0B376E53
:100F00003750020D3E0EF324D96E000EF420DA6E37
:100F1000DECF3BF0DDCF3CF0040134510F0B376ED8
:100F20003750010D7C0EF324D96E000EF420DA6EDA
:100F3000DF503A6E00D03AB002D03B9402D03B84EE
:100F400000D0040134BF0BD0040134510F0B376EB5
:100F50003750020D720EF324D96E000E0AD0040130
:100F600034510F0B376E3750020D3E0EF324D96EFD
:100F7000000EF420DA6E3BC0DEFF3CC0DDFF00D087
:100F8000030E04013119D8A430D03BC0D9FF3CC0B6
:100F9000DAFFDFAE1DD0040134BF0BD004013451A1
:100FA0000F0B376E3750010D7F0EF324D96E000EF4
:100FB0000AD0040134510F0B376E3750010D7C0EEF
:100FC000F324D96E000EF420DA6E0001DF8200D027
:100FD0003BC0D9FF3CC0DAFF000EDB843BC0D9FF29
:100FE0003CC0DAFF000EDB8E80D0040E3B1A3BC003
:100FF000D9FF3CC0DAFFDFAE1BD03BC0D9FF3CC0FD
:10100000DAFF7F0EDF163BC0D9FF3CC0DAFF000ECF
:10101000DB8C000E306E050E2F6E3BC031F03CC0F5
:1010200032F0000E346E020E336E16EC17F007D05D
:101030003BC0D9FF3CC0DAFF000EDB8C00D0040EB1
:101040003B1A3AB206D03BC0D9FF3CC0DAFFDFAE54
:1010500032D0040134BF0BD0040134510F0B376E72
:101060003750010D7F0EF324D96E000E0AD0040113
:1010700034510F0B376E3750010D7C0EF324D96EAF
:10108000000EF420DA6E0001DF9200D03BC0D9FFE1
:101090003CC0DAFF3B0EDF16000E306E050E2F6EE1
:1010A0003BC031F03CC032F0000E346E020E336EA5
:1010B00016EC17F007D03BC0D9FF3CC0DAFF3B0E5F
:1010C000DF1600D0040134510F0B376E3750010D7D
:1010D000F3505D24386EF4505E20396E38C0D9FF6D
:1010E00039C0DAFFFE0EDF1600D0120082BC12D02B
:1010F000CDC0D9FFCEC0DAFF000EDF6ED5C0D9FF5C
:10110000D6C0DAFF000EDF6E000E0001976FEEEC26
:1011100018F0FCD000019751D8A42ED0CDC0D9FF33
:10112000CEC0DAFF000EDF6ED5C0D9FFD6C0DAFF21
:10113000000EDF6ECBC0D9FFCCC0DAFF160EDF6E1B
:10114000CFC0D9FFD0C0DAFF9F0EDF6E7B0E696E75
:1011500008D0CDC0D9FFCEC0DAFF000EDB868B747D
:1011600000D0CDC0D9FFCEC0DAFF0001DFA6F1D795
:10117000010E0001976F00D000019705D8B46DBA39
:1011800012D0D7C0D9FFD8C0DAFF000EDF6ED5C0AD
:10119000D9FFD6C0DAFF000EDF6E69806988020EC3
:1011A0000001976F00D068B469A404D0689469EC1A
:1011B00018F000D06DA203D0EEEC18F0A7D068B004
:1011C00069A007D052EC0BF0040E0001976F6890F5
:1011D00000D068B869A804D0A4EC18F0689800D0D2
:1011E00068AC20D069AC0FD0000E306E730E2F6E3D
:1011F000000E316E000E326E000E346E010E336E34
:1012000016EC17F000D0689C00019851D8B403D0B8
:101210000001980700D000019851D8A403D09DEC9C
:1012200011F000D068BA69AA03D0A3EC17F000D07F
:1012300068B269A214D07F0E306E2F68000E316E36
:10124000000E326E000E346E010E336E16EC17F087
:10125000D1C0D9FFD2C0DAFF000EDF6E00D0040E7D
:101260000001976103D0EEEC18F050D069A64CD085
:10127000000E0001E06F030E0001E06501D044D0D4
:1012800068A642D0D9C0D9FFDAC0DAFFDF5000012A
:10129000B46F0001B431E832E8320F0B00019B6FEC
:1012A00068960001B4B508D000019B51010D7F0E76
:1012B000F324D96E000E07D000019B51010D7C0E66
:1012C000F324D96E000EF420DA6E0001DF7000D036
:1012D00000019B510001D8A403D02FEC11F010D0D5
:1012E000000E306E720E2F6EB40E316E000E326E26
:1012F000000E346E000E336E16EC17F001D004D0E1
:101300000001E02BB8D700D0EEEC18F0120000007E
:1013100000000000000000000000000001000100CB
:1013200001000100020002000200030003000400AB
:101330000500050006000700080009000A000B0070
:101340000C000E000F001000120013001500170013
:1013500019001B001D001F0021002300250028008C
:101360002A002D0030003300360039003C003F00D9
:101370004200460049004D005100550058005D00F4
:101380006100650069006E00730077007C008100D9
:1013900086008C00910096009C00A200A800AD0081
:1013A000B400BA00C000C700CD00D400DB00E200EA
:1013B000E900F000F800FF0007010E0116011E0110
:1013C00027012F0138014001490152015B016401ED
:1013D0006D01770181018A0194019E01A901B30188
:1013E000BE01C801D301DE01E901F40100020C02D3
:1013F000170223022F023C024802540261026E02CD
:101400007B0288029602A302B102BF02CD02DB0278
:10141000E902F802070315032503340343035303CA
:101420006203720382039303A303B403C403D503CB
:10143000E603F80309041B042D043F04510463046C
:10144000760489049C04AF04C204D604E904FD04B4
:10145000110525053A054E05630578058D05A3059B
:10146000B805CE05E405FA05100627063E06550622
:101470006C0683069B06B206CA06E206FB06130745
:101480002C0745075E0777079107AA07C407DE0701
:10149000F90713082E084908640880089B08B70854
:1014A000D308EF080B092809450962097F099D093E
:1014B000BA09D809F609150A330A520A710A900ABC
:1014C000B00ACF0AEF0A0F0B2F0B500B710B920BC8
:1014D000B30BD40BF60B180C3A0C5C0C7E0CA10C65
:1014E000C40CE70C0B0D2E0D520D760D9B0DBF0D90
:1014F000E40D090E2E0E540E790E9F0EC50EEC0E45
:10150000120F390F600F880FAF0FD70FFF0F2A6E22
:10151000000E2D6E000E2E6E000E2C6E000E2B6E29
:101520000001DD512A5CD8B0BCD001D0BAD0265021
:10153000BAEC19F0231C2B6E241C2C6E300E00010B
:10154000DD19D8A409D0180E2A6003D0180E2A2657
:1015500003D0180E2A5E00D02A50030DF3CF2DF0D1
:10156000D8902D302E6E2DA013D02E50010D800E50
:10157000F324D96E010EF420DA6EF00EDF162BC0C4
:1015800027F02CC028F028C027F0286A0F0E16D0AC
:101590002E50010D800EF324D96E010EF420DA6E68
:1015A0000F0EDF162BC027F02CC028F0040E296E7A
:1015B000D89028322732292EFBD7F00E27162E502E
:1015C000010D800EF324D96E010EF420DA6E27503F
:1015D000DF1200D02D2AD8902D302E6E2DA017D0DE
:1015E0002E50010D800EF324D96E010EF420DA6E18
:1015F000F00EDF162BC027F02CC028F0040E296E49
:10160000D89028322732292EFBD70F0E0DD02E501E
:10161000010D800EF324D96E010EF420DA6E0F0E48
:10162000DF162BC027F0F00E27162E50010D800E6E
:10163000F324D96E010EF420DA6E2750DF1200D0A9
:101640002D2AD8902D302E6E2DA00ED02E50010DAB
:10165000800EF324D96E010EF420DA6EF00EDF1640
:101660002BC027F00F0E10D02E50010D800EF3244A
:10167000D96E010EF420DA6E0F0EDF162BC027F0A4
:101680000F0E2716273AF00E27162E50010D800E4A
:10169000F324D96E010EF420DA6E2750DF1200D049
:1016A0002D2A12001CEC19F0D1C0D9FFD2C0DAFFEC
:1016B000000EDF6ED7C0D9FFD8C0DAFF000EDF6E94
:1016C0005DC0D9FF5EC0DAFF000EDF6ED3C023F02D
:1016D000D4C024F0000E266E000E256E000E286E7B
:1016E000020E276E05EC19F0CBC0D9FFCCC0DAFF93
:1016F000160EDF6ECFC0D9FFD0C0DAFF9F0EDF6EAF
:101700007B0E696E000E2B6E0ED010D02B50040D88
:10171000000EF324D96E040EF420DA6EDE6ADE6A5F
:10172000DE6ADD6A2B2A0B0E2B64F0D76D8CC9C0E4
:10173000D9FFCAC0DAFF000EDF6E6D986D9C0CD029
:101740006896000E596E000E00016D6F000E0001CC
:101750006F6F000E6E6F00D068B6F2D7010E4F6E3D
:10176000010E506E000E4C6E000E4D6E000E00010C
:10177000966F000E2B6E020E2B6401D02ED02B50D4
:10178000020D3E0EF324D96E000EF420DA6E000E28
:10179000DE6E000EDD6E2B50020D720EF324D96E3C
:1017A000000EF420DA6E000EDE6E000EDD6E2B50A1
:1017B000010D7C0EF324D96E000EF420DA6E000EBB
:1017C000DF6E2B50010D7F0EF324D96E000EF42036
:1017D000DA6E000EDF6E2B2ACED7080E3E6E040E98
:1017E0003F6E5DC0D9FF5EC0DAFF160EDF6E040EDD
:1017F0000401036F300E026F080E0401016F040E26
:101800000401006F0401008F000E5C6E000E0001E9
:10181000976F12000001885100018911D8B40FD0D0
:1018200088C0D9FF89C0DAFF0001DFAE03D02A6A81
:101830002A2A01D02A6A2A502B6E2C6A05D0000E63
:101840002C6E000E2B6E00D02B502C10D8A48CD0F8
:1018500001D08AD0030E5218D8A402D0000E526EC6
:101860005250D8B481D001D07FD0020E5218D8A4E3
:1018700012D0010E236E000E246E000E256E000E97
:10188000266E020E61EC12F023C088F024C089F0AD
:10189000030E526E69D05204D8A466D0400E536431
:1018A00003D0400E2E6E03D053C02EF000D02E5029
:1018B00000085324536E000E0001826F050E0001D4
:1018C000836F2EC02DF000019951D8B414D02BD0C5
:1018D00012D085C0D9FF86C0DAFF82C0E1FF83C085
:1018E000E2FFDFCFE7FF0001824B832B0001854B36
:1018F000862B2D0600D02D50D8B41AD0EAD718D098
:1019000012D085C0D9FF86C0DAFF82C0E1FF83C054
:10191000E2FFDFCFE7FF0001824B832B0001854B05
:10192000862B2D0600D02D50D8B402D0EAD700D097
:101930005350D8A409D0400E2E18D8A402D0020EBD
:1019400001D0030E526E00D0010E236E000E246EE5
:10195000050E256E2EC026F0020E61EC12F023C09B
:1019600088F024C089F000D01200000E966E000EA0
:10197000956E94503F0E9316C30E9216F90E8B1669
:10198000F90E9416B3EC16F0E00E0001F11930E1F7
:10199000020E0001F219D8A42BD0800E9B6E700E9F
:1019A000D36EBDC0D9FFBEC0DAFF100EDF6E00D00F
:1019B000BDC0D9FFBEC0DAFF0001DFAEF9D7B5C0A8
:1019C000D9FFB6C0DAFF900EDF6EB9C0D9FFBAC03A
:1019D000DAFF000EDF6EB7C0D9FFB8C0DAFF000E25
:1019E000DF6EBBC0D9FFBCC0DAFF100EDF6E03D0C4
:1019F0000F0EC16E00D0928293849388948CE00E77
:101A00000001F1190DE1020E0001F219D8A408D06D
:101A1000000E236E000E246E020ECFEC17F005D0E0
:101A2000400EC76E220EC66E00D093929380949E95
:101A300093969490939A8A968B808A9A42EC16F0A9
:101A4000900E0001F1190001F211D8B409D0770EFF
:101A5000B16EC7C0D9FFC8C0DAFF730EDF6E03D006
:101A6000D10EB16E00D0A28238EC14F0020EA06E3E
:101A70004B50FF0A0001A16F4A50FF0A0001A26FFC
:101A8000010EC26E0E0EC16EBE0EC06EF298CA6816
:101A9000EA0ECB6E9D929F92F0EC0EF052EC0BF0A2
:101AA000D08EF28CF28E1200800E04013019D8A470
:101AB0008CD0C00E596E7CD08C0E566E090E576EAF
:101AC000000E5B6E120E5A6E80D004013251D8A403
:101AD0003ED004013251020D090EF324F66E090EB8
:101AE000F420F76E0900F5CF56F00A00F5CF57F055
:101AF000020E5624236E000E5720246E23C0F6FFDC
:101B000024C0F7FFF86A070EF76403D00800F55009
:101B100005D0F6CFE1FFF7CFE2FFE7505A6E030E94
:101B20005624236E000E5720246E23C0F6FF24C0D7
:101B3000F7FFF86A070EF76403D00800F55005D0E8
:101B4000F6CFE1FFF7CFE2FFE7505B6E3ED0000E2D
:101B5000596E3BD0040E0401326124D0040132518D
:101B6000020D010EF324F66E090EF420F76E090043
:101B7000F5CF56F00A00F5CF57F056C0F6FF57C024
:101B8000F7FFF86A070EF76403D00800F55005D098
:101B9000F6CFE1FFF7CFE2FFE750236E23505A6EF6
:101BA0005B6A13D0000E596E10D0000E596E0DD026
:101BB00004013351010AD8B47FD7030AD8B485D7BA
:101BC000010AD8B4C7D7F1D700D0120020EE01F037
:101BD0004650D9264750DA22DF50246E24500001A7
:101BE0006E5D000E6F59D8B003D06EC024F000D0E7
:101BF000245000016E5F000E6F5B000E236E13D049
:101C00002350010D380EF324D96E040EF420DA6E41
:101C10006AC0E1FF6BC0E2FFDFCFE7FF00016A4B64
:101C20006B2B232A00D02450235CD8A0E9D70001D5
:101C30006E5100016F11D8B42DD020EE01F0485044
:101C4000D9264950DA22080EDF6E20EE02F0485005
:101C5000D9264950DA22380EDE6E040EDD6E46C0FB
:101C6000D9FF47C0DAFFDFBC0DD048C0D9FF49C05B
:101C7000DAFF480E0CD048C0D9FF49C0DAFF000E89
:101C8000DB8E2FD048C0D9FF49C0DAFF080EDF6EC7
:101C9000F2D727D020EE01F04850D9264950DA2259
:101CA000080EDF6E20EE02F04850D9264950DA22A5
:101CB000300EDE6E040EDD6E48C0D9FF49C0DAFF7B
:101CC000040EDF6E48C0D9FF49C0DAFF000EDB8E7C
:101CD00000D000016D9F4E50D8A403D09DEC11F0B0
:101CE00000D012006D9859BE3BD000016DAF0DD0F1
:101CF000020E546E4D50D8A403D08FEC14F000D0D7
:101D0000000E506E000E4F6E6AD020EE01F048506B
:101D1000D9264950DA22080EDF6E20EE02F0485034
:101D2000D9264950DA22300EDE6E040EDD6E48C030
:101D3000D9FF49C0DAFF0C0EDF6E48C0D9FF49C099
:101D4000DAFF000EDB8E3EC0D9FF3FC0DAFF040E83
:101D5000DF6E3EC0D9FF3FC0DAFF000EDB8E3FD002
:101D6000040130AF12D0010E546E4C50D8A403D0F1
:101D70008FEC14F000D0000E506E000E4F6E4E50DF
:101D8000D8A42DD09DEC11F02AD0020E546E20EE76
:101D900001F04850D9264950DA22080EDF6E20EEB5
:101DA00002F04850D9264950DA22300EDE6E040E79
:101DB000DD6E48C0D9FF49C0DAFF040EDF6E48C0AF
:101DC000D9FF49C0DAFF000EDB8E000E506E000E08
:101DD0004F6E4E50D8A403D09DEC11F000D01200ED
:101DE000E00E0001F1193BE1020E0001F219D8A446
:101DF00036D0630E0001C96F0F0E0001CA6F640E6A
:101E00000001D56F0F0E0001D66F650E0001D76F70
:101E10000F0E0001D86F670E0001D16F0F0E000189
:101E2000D26F660E0001CF6F0F0E0001D06F600EF3
:101E30000001CD6F0F0E0001CE6F6A0E5D6E0F0EAA
:101E40005E6E6B0E0001D36F0F0E0001D46F620E39
:101E50000001CB6F0F0E0001CC6F610E35D06E0EFE
:101E60000001C96F0F0E0001CA6F690E0001D56F26
:101E70000F0E0001D66F680E0001D76F0F0E000124
:101E8000D86F6A0E0001D16F0F0E0001D26F6B0E7A
:101E90000001CF6F0F0E0001D06F6D0E0001CD6FEE
:101EA0000F0E0001CE6F700E5D6E0F0E5E6E710E26
:101EB0000001D36F0F0E0001D46F6F0E0001CB6FC6
:101EC0000F0E0001CC6F6C0E0001D96F0F0E0001D8
:101ED000DA6F00D0120076EC08F023EC18F0000165
:101EE0009C51D8B403D000019C0702D08B9400D041
:101EF00033EC19F00009D8B457D000019E2B060E20
:101F000000019E6503D0000E00019E6F000E0001CF
:101F1000A06F000E0001F06F3AD000019E51030D3A
:101F2000C80EF324D96E010EF420DA6EDF50266E4F
:101F30000001F05187EC0AF000019E51030D010EE3
:101F4000F326000EF422C80EF324D96E010EF420FD
:101F5000DA6EDF50266E0001F02987EC0AF00001EE
:101F60009E51030D020EF326000EF422C80EF32438
:101F7000D96E010EF420DA6EDF50266E0001F051AA
:101F8000020F87EC0AF0030E0001F02700D00001D9
:101F9000DD510001F05DD8A0C0D7010E0001A06F97
:101FA0008B8400019C6900D01F0E0001976508D04A
:101FB0006DB206D001D004D0D7EC04F00AEC0CF0DE
:101FC000120004013039E832030B0009D8A468D0AC
:101FD00045D066D043D0598E080E0001976F60D06F
:101FE00054EC0DF05DD051EC10F05AD05C0E566EF2
:101FF000000E13D0598013D0598E52D0DDEC13F05F
:102000004FD000D02BEC07F04BD004013451010D20
:10201000B20EF324566E000EF420576EEBD7010E6D
:102020005A6EEAD7598E04013451010DB20EF324D1
:10203000D96E000EF420DA6E32C4DFFF31D0000E0C
:10204000306E020E2F6E000E316E000E326E000EDC
:10205000346E000E336E16EC17F022D004013151AD
:10206000000AD8B4CBD7010AD8B4CCD7020AD8B466
:10207000C9D7060AD8B4AFD7030AD8B4B1D7010A72
:10208000D8B4DDD70F0AD8B4B1D7010AD8B4ABD7CA
:10209000030AD8B4BAD7010AD8B4C4D7070A00D003
:1020A0001200598ED3C023F0D4C024F0000E266E47
:1020B000000E256E000E286E020E276E05EC19F03C
:1020C000000E236E040E246E000E266E000E256E8A
:1020D000000E286E300E276E05EC19F06D8C000E88
:1020E000376E020E376401D016D03750010D7C0ECA
:1020F000F324D96E000EF420DA6E000EDF6E375036
:10210000010D7F0EF324D96E000EF420DA6E000E5E
:10211000DF6E372AE6D7B20E236E000E246E000E55
:10212000266E000E256E000E286E020E276E05EC40
:1021300019F06D9C080E3E6E040E3F6E000E466E4A
:10214000040E476E46C048F047C049F032C45CF008
:102150005C50D8A402D0100E0FD0000E306E010ECD
:102160002F6E5C0E316E000E326E000E346E010E5C
:10217000336E16EC17F0200E0001976F00D012009E
:10218000080E236E5B5011E1080E5A5CD8B00DD0DA
:102190005AC023F05550D8A402D0010E04D05504E3
:1021A000D8A403D0020E556E00D023505A5E000E04
:1021B0005B5A20EE01F03E50D9263F50DA2223C070
:1021C000DFFF380E00018C6F040E00018D6F59A0E7
:1021D0001ED03FD01CD056C0F6FF57C0F7FFF86A9C
:1021E0008CC0D9FF8DC0DAFF070EF76403D008005A
:1021F000F55005D0F6CFE1FFF7CFE2FFE750DF6EF5
:10220000564A572A00018C4B8D2B230600D02350B1
:10221000D8B424D0E0D722D01CD056C0F6FF57C087
:10222000F7FFF86A8CC0D9FF8DC0DAFF070EF7649C
:1022300003D00800F55005D0F6CFE1FFF7CFE2FF5D
:10224000E750DF6E564A572A00018C4B8D2B230630
:1022500000D02350D8B402D0E0D700D012002D0E09
:102260000001986FB4C0DEF0FD0E0001DE17D8A4A7
:102270005AD0B4C0DEF00001D890DE333F0E00012A
:10228000DE170001DE51040D000EF324466E040E2D
:10229000F420476E46C048F047C049F0040E481A83
:1022A00046C0D9FF47C0DAFFDF30E8320F0B0D0A16
:1022B000D8A436D0000E3D6E070E3D6401D023D069
:1022C00020EE02F04650D9264750DA22DECFDEF06B
:1022D000DDCFDFF0DEC0D9FFDFC0DAFF3D50010DFA
:1022E000300EF324E16E040EF420E26EDFCFE7FF40
:1022F00020EE02F04650D9264750DA22DE2A000EA0
:10230000DD223D2AD9D720EE02F04650D92647508B
:10231000DA22300EDE6E040EDD6EFEEC15F00CD00F
:10232000E5EC16F009D00001B451FD0B040AD8A465
:1023300003D0C1EC12F000D012004F50D8A460D0EE
:10234000010E4F6E5050D8A45BD0010E506E020E9D
:102350005418D8A415D020EE01F03E50D9263F5095
:10236000DA22000EDF6E3EC0D9FF3FC0DAFF480E12
:10237000DF6E3EC0D9FF3FC0DAFF000EDB8E40D0DB
:102380005404D8A43DD0000E0001946F20EE01F05B
:102390004650D9264750DA22080EDF6E20EE02F0B2
:1023A0004650D9264750DA22300EDE6E040EDD6E1E
:1023B00046C0D9FF47C0DAFF040EDF6E46C0D9FF22
:1023C00047C0DAFF000EDB8E010E0001946F20EE95
:1023D00001F04850D9264950DA22080EDF6E20EE6F
:1023E00002F04850D9264950DA22300EDE6E040E33
:1023F000DD6E48C0D9FF49C0DAFF800EDF6E00D025
:102400001200040130511F0BE806D8A459D001D0A6
:1024100057D004013039E832030BE806D8A450D075
:1024200001D04ED004013451D8B438D00401340561
:10243000D8A446D033D044D031D0A30E566E000E6F
:10244000576E000E5B6E080E5A6E598025D0A30E93
:10245000566E000E576E20D036C46EF037C46FF043
:10246000AB0E00016A6F000E00016B6F000E0001E1
:10247000706F000E0001716F00016D8F21D0AB0EE7
:10248000566E000E576E000E5B6E070E5A6EC10E32
:10249000596E16D032C49AF0598E12D004013151BF
:1024A000000AD8B4CAD7010AD8B4D1D7210AD8B4FF
:1024B000D3D7010AD8B4E3D7030AD8B4EBD700D0F6
:1024C0001200276E2350D8B407D02750020D3E0EBD
:1024D000F324D96E000E06D02750020D720EF3249D
:1024E000D96E000EF420DA6EDECF28F0DDCF29F0B1
:1024F00000D028502910D8A405D0000E236E000E5D
:10250000246E3ED020EE02F02850D9262950DA223F
:1025100024C0DEFF25C0DDFF20EE01F02850D926C3
:102520002950DA2226C0DFFF28C0D9FF29C0DAFFF0
:10253000400EDF1628C0D9FF29C0DAFF000EDB8667
:1025400028C0D9FF29C0DAFF000EDB8E2350D8B493
:1025500007D02750020D3E0EF324D96E000E06D090
:102560002750020D720EF324D96E000EF420DA6E9D
:10257000040EDF1A00D028C023F029C024F000D0B8
:1025800012003EC0D9FF3FC0DAFF000EDFBC010ED3
:10259000246E040E3E1A080E00019719D8A415D017
:1025A000040132517F0BC9C0D9FFCAC0DAFFDF6E08
:1025B000C9C0D9FFCAC0DAFFDF50D8B402D0100EAC
:1025C00001D0040E0001976F00D05404D8A42FD07E
:1025D00020EE02F03E50D9263F50DA22380EDE6E51
:1025E000040EDD6EC0EC10F0020E5518D8A40DD00C
:1025F0003EC0D9FF3FC0DAFF040E16D03EC0D9FF5F
:102600003FC0DAFF000EDB8E1BD02450D8A407D0C9
:102610003EC0D9FF3FC0DAFF480E06D0EFD73EC01C
:10262000D9FF3FC0DAFF080EDF6EE8D709D00001FE
:102630006DAF03D000016D9F00D0000E546E00D02E
:10264000120002EE00F0800EEE6AE806FDE101EEF7
:1026500000F0800EEE6AE806FDE100EE60F0550E37
:10266000EE6AE806FDE100EE3EF01F0EEE6AE806B7
:10267000FDE10E0EF66E130EF76E000EF86E05EE0F
:1026800080F012EE00F00900F5CFEEFFE550E150CA
:10269000FAE1E250F8E18C0EF66E2E0EF76E000EA7
:1026A000F86E01EE80F010EE5DF00900F5CFEEFF60
:1026B000E550E150FAE1E60EF66E320EF76E000ECE
:1026C000F86E00EEB5F010EE29F00900F5CFEEFF40
:1026D000E550E150FAE1420EF66E340EF76E000E50
:1026E000F86E0900F5CF5DF00900F5CF5EF0090046
:1026F000F5CF5FF0000EF86E0001D4EF19F0000E78
:10270000516E44504510D8B40ED044C0D9FF45C0D6
:10271000DAFFDFAE03D02D6A2D2A01D02D6A2D50AD
:102720002E6E2F6A05D0000E2F6E000E2E6E00D07A
:102730002E502F10D8A43ED020EE01F04450D926C0
:102740004550DA222C50DE5CD8B009D020EE01F0E2
:102750004450D9264550DA22DF502C6E00D0000EAE
:10276000516E14D05150010D400EF324D96E050E58
:10277000F420DA6E5150010DF3502A24E16EF4502A
:102780002B20E26EDFCFE7FF512A00D02C50515CA6
:10279000D8A0E8D7000E236E400E246E050E256EDD
:1027A000400E266E020E61EC12F023C044F024C0ED
:1027B00045F000D0515000D01200000E0401386FD7
:1027C000000E0401396F3DD0598E0401388100D0CC
:1027D00000019505D8A441D0040138833ED0598E1C
:1027E0003CD0598E040134BF0BD0040134510F0B7F
:1027F000236E2350020D720EF324D96E000E0AD000
:10280000040134510F0B236E2350020D3E0EF324AE
:10281000D96E000EF420DA6EDECF24F0DDCF25F085
:1028200000D024C0D9FF25C0DAFFDFAE16D024C007
:10283000D9FF25C0DAFFDFA410D0010E0401386FE4
:102840000CD0040130511F0B000AD8B4BDD7010AC7
:10285000D8B4C5D7030AD8B4C4D759AE08D0380EF7
:10286000566E040E576E5980020E5A6E00D012003A
:102870000001A069BE0E266E170E87EC0AF0BEECB2
:1028800018F049EC19F0F290000E356E00D0F2A06D
:10289000FED7020EE8EC19F081B810D03550D8A45C
:1028A00005D0000EB36E000EB26E00D0080E3518C3
:1028B000D8B406D001D004D0352A00D0F290E7D7A2
:1028C000B2CF4AF04B6AB3504B26B00E2F6EFF0EBC
:1028D000306E4AC031F04BC032F02F5031263050AC
:1028E0003222D8903230336E3130236E33C024F030
:1028F000000E266E640E256E75EC17F023C08EF068
:1029000024C08FF0000E266E170E87EC0AF0BEEC86
:1029100018F049EC19F0000E0001A06F1200000E33
:102920004C6E000E4D6E020E5418D8A41DD020EE31
:1029300001F04850D9264950DA22080EDF6E20EE09
:1029400002F04850D9264950DA22380EDE6E040EC5
:10295000DD6E48C0D9FF49C0DAFF480EDF6E48C0BF
:10296000D9FF49C0DAFF23D05A500401365D5B50CD
:1029700004013759D8B005D036C45AF037C45BF0DB
:1029800000D0C0EC10F020EE02F03E50D9263F50AF
:10299000DA22380EDE6E040EDD6E3EC0D9FF3FC077
:1029A000DAFF480EDF6E3EC0D9FF3FC0DAFF000EEF
:1029B000DB8E00D01200286E000E296E040E2A6EE7
:1029C0002350246E256AD890243625362850266E4A
:1029D000276AD89026362736D890263627362450B0
:1029E000262625502722D89026362736D8902636F8
:1029F00027362650292627502A2229C0D9FF2AC047
:102A0000DAFFDF9E2350D8A407D02850020D720EA3
:102A1000F324D96E000E06D02850020D3E0EF3248A
:102A2000D96E000EF420DA6E29C0DEFF2AC0DDFF69
:102A300000D029C0D9FF2AC0DAFFDF9C20EE04F0C5
:102A40002950D9262A50DA22DF8C1200000E286E77
:102A500026AE07D0256C261ED8B0262A010E286E79
:102A600000D024AE07D0236C241ED8B0242A010E37
:102A7000281A00D0000E2A6E000E296E255026104E
:102A8000D8B421D0010E276E05D0D8902536263631
:102A9000272A00D026BE02D0F8D700D0D8902936F9
:102AA0002A362550235C26502458D8A006D025501D
:102AB000235E2650245A298000D0D8902632253211
:102AC000272EECD700D02850D8B405D0296C2A1E68
:102AD000D8B02A2A00D029C023F02AC024F000D080
:102AE00012000600EACF18F0E1CF19F0E2CF1AF099
:102AF000D9CF1BF0DACF1CF0F3CF1DF0F4CF1EF0CE
:102B0000F6CF1FF0F7CF20F0F8CF21F0F5CF22F06D
:102B1000A1A212D0A1C0B3FFA2C0B2FF0001A0BF0A
:102B200009D05EEC19F00001A005D8A403D0D6ECC2
:102B300018F000D0A19200D022C0F5FF21C0F8FF0C
:102B400020C0F7FF1FC0F6FF1EC0F4FF1DC0F3FF3B
:102B50001CC0DAFF1BC0D9FF1AC0E2FF19C0E1FF99
:102B600018C0EAFF17C0E9FF16C0FBFF15C0FAFF47
:102B70001100306E3C0E306402D03C0E306E550EAB
:102B80000101406F200E0101416F30C043F1040E7E
:102B90003026000E0101426F000E2F6E12D0020E81
:102BA0002F18D8B40CD02F50010D400EF324D96E3D
:102BB000010EF420DA6EDF500101421B00D02F2AF3
:102BC00000D030502F5CD8B005D0E9D703D00AEC44
:102BD0000CF000D05250D8A4FAD75250D8A409D043
:102BE000400E236E010E246E30C025F0AAEC19F0C1
:102BF00004D00001904B912B00D01200000E556EB6
:102C0000000E4E6E000E4C6E000E4D6E000E00015A
:102C1000946F000E546E3EC0D9FF3FC0DAFF7F0EA6
:102C2000DF16040E3E1A3EC0D9FF3FC0DAFF7F0E0A
:102C3000DF16040E3E1A48C0D9FF49C0DAFF7F0EE6
:102C4000DF16000E596E000E5B6E000E5A6E000EFF
:102C500000016D6F000E00016F6F000E6E6FE1ECF2
:102C60000FF0000E306E030E2F6E000E316E000E50
:102C7000326E000E346E000E336E16EC17F072ECEE
:102C80000EF012000001A069480E5F6E0001DB51DA
:102C900088EC19F00001DC5188EC19F0010E2D6E62
:102CA000480E2D6401D014D0C9EC19F02C6E00012F
:102CB000DC512C18D8A408D00001DB512B18D8A463
:102CC00003D02DC05FF004D02CC02BF02D2AE8D704
:102CD000BEEC18F05F50020DF3CF23F0F4CF24F0D8
:102CE000000E266E030E256E26EC15F02350000113
:102CF000DD6F000E0001A06F1200000E0001AB6F2F
:102D00004B0EAC6F000EAD6F000EAE6F000E0001EB
:102D1000AF6F000E0001B06F080E0001B16F000E22
:102D2000516E1A0E2B6E010E49EC18F01E0E2B6E12
:102D3000020E49EC18F0000E236E400E246E050EB4
:102D4000256E400E266E020E61EC12F023C044F098
:102D500024C045F0000E0001886F000E0001896F4D
:102D6000000E526E12003F0EF86EF768FE0EF66E01
:102D70000800F5CF25F0F6680800F5CF26F02650BC
:102D8000236E246AD89023362436D89023362436EE
:102D9000D8902336243623C0F1F024C0F2F0000E80
:102DA000276E2550D8B403D0010E276E00D027C05F
:102DB00023F0050E246ED8902332242EFCD7235006
:102DC0000001F127000EF2231200020E5418D8A4BD
:102DD00003D0E6EC0DF029D0000E546E00019451A2
:102DE000D8A41FD020EE01F04850D9264950DA224D
:102DF000080EDF6E20EE02F04850D9264950DA2244
:102E0000300EDE6E040EDD6E48C0D9FF49C0DAFF19
:102E10000C0EDF6E48C0D9FF49C0DAFF000EDB8E12
:102E200004D0000E0001946F00D0120007D02DD006
:102E30007DEC16F02AD001EC12F027D02FC035F02F
:102E400030C036F03650000AD8B404D07F0AD8B467
:102E500019D01BD03550010AD8B4EAD7030AD8B428
:102E600014D0010AD8B4E7D7060AD8B40ED0770A2E
:102E7000D8B40BD0010AD8B408D0070AD8B405D00A
:102E8000010A03D03550FF0A00D01200FFFFFFFFF8
:102E9000FFFFFFFFFFFFFFFFFFFFFFFFFFFFFFFF42
:102EA000FFFFFFFFFFFFFFFFFFFFFFFFFFFFFFFF32
:102EB000FFFFFFFFFFFFFFFFFFFFFFFFFFFFFFFF22
:102EC000FFFFFFFFFFFFFFFFFFFFFFFFFFFFFFFF12
:102ED000FFFFFFFFFF000000FF000000FFFF00FFFB
:102EE00000FFFFFFFF00FFFFFF00000E286E000E37
:102EF000276E25502610D8B421D0010E296E05D09A
:102F0000D89025362636292A00D026BE02D0F8D7FA
:102F100000D0D890273628362550235C26502458D8
:102F2000D8A006D02550235E2650245A278000D0F2
:102F3000D89026322532292EECD700D027C023F096
:102F400028C024F012005DC0D9FF5EC0DAFFDFA008
:102F500024D046C0D9FF47C0DAFF800EDE18D8A4BF
:102F600015D03EC0D9FF3FC0DAFF840EDE18D8A4CA
:102F70000DD046C0D9FF47C0DAFF0C0EDF6E46C049
:102F8000D9FF47C0DAFF000EDB8E00D05DC0D9FF4D
:102F90005EC0DAFFFE0EDF1600D0689A1200256EC2
:102FA0003F0EC716000EC66E2550C6122450C7121B
:102FB00005D0C78C13D0C78CC68810D02350000A08
:102FC000D8B4F7D7020AD8B4F6D7010AD8B4F4D7E0
:102FD00005D0928A93820AD0939208D02550040A91
:102FE000D8B4F7D7010AD8B4F5D7F6D79380949E12
:102FF000C68A12002F6E550E0101406F2FC041F19D
:10300000000E0101436F010141510101431901010A
:1030100040190101426F03D00AEC0CF000D052506D
:10302000D8A4FAD75250D8A409D0400E236E010E6E
:10303000246E040E256EAAEC19F004D00001904B0A
:10304000912B00D0120000018A07D8A08B07000145
:103050008A291EE100018B29D8A41AD0270E00016D
:103060008B6F100E8A6F6DB202D0010E01D0000E70
:10307000236E200E00019719D8A402D0010E01D0B2
:10308000000E2314E8A002D08B7202D08B9200D0E5
:1030900012002E6E2BA406D0000E236E2E50DBECF9
:1030A00014F000D02BA206D0010E236E2E50DBECC4
:1030B00014F000D02E50010DF3505D242C6EF4500E
:1030C0005E202D6E2CC0D9FF2DC0DAFF2BC0DFFF94
:1030D0001200000E0001966F000E306E740E2F6EFF
:1030E000000E316E000E326E000E346E000E336E26
:1030F00016EC17F0CDC0D9FFCEC0DAFFFD0EDF16FB
:10310000699402D0689400D068B4FCD71200000E15
:10311000266E23C0A9FF25C0A8FFA69EA69CA68454
:10312000000EF2BE010E266EF29E550EA76EAA0E7E
:10313000A76EA68200D0A6B2FED726B002D0F29E1D
:1031400001D0F28EA694120069846898CDC0D9FF90
:10315000CEC0DAFF000EDB82010E0001966F000E7A
:10316000306E750E2F6E000E316E000E326E000E38
:10317000346E000E336E16EC17F01200000E256E42
:103180000DD02550010D800EF324D96E010EF420D0
:10319000DA6EDF5088EC19F0252A00D05F50255CEC
:1031A000D8A0EFD7000E0001A06F1200000E146E21
:1031B0000DD01450010D800EF324D96E010EF420B1
:1031C000DA6EDF5099EC19F0142A00D05F50145CCD
:1031D000D8A0EFD7000E0001A06F1200E00E000192
:1031E000F1190BE1020E0001F219D8A406D0C5C0F6
:1031F000D9FFC6C0DAFFFB0E05D0C3C0D9FFC4C0DB
:10320000DAFFDF0EDF1600D0120023C029F024C041
:103210002AF009D029C0D9FF2AC0DAFF25C0DFFF74
:10322000294A2A2A00D02706D8A028062728F2E112
:103230002828D8A4EFD71200E00E0001F1190BE105
:10324000020E0001F219D8A406D0C1C0D9FFC2C035
:10325000DAFFFB0E05D0C3C0D9FFC4C0DAFFDF0E12
:10326000DF1600D0120080A202D0010E01D0000EA5
:1032700000019D19D8B40AD0000E80B2010E0001E1
:103280009D6F80B203D0010E03D000D0000E00D09D
:1032900012008A8A00018E51F1EC19F08B808A8627
:1032A000280EE8EC19F08A96280EE8EC19F08B90BD
:1032B00000018E51F1EC19F08A9A12008A8A0001FD
:1032C0008E5103EC1AF08B808A86280EFAEC19F0E6
:1032D0008A96280EFAEC19F08B9000018E5103ECBF
:1032E0001AF08A9A1200B50F5B0F5D0F860FD20F8E
:1032F000A00FA30FA10FA40FB40F6E0F6F0F6D0FD0
:103300006B0F6A0F710F690F680F6C0F234230004B
:10331000246EC9CF23F09E96C69E24C0C9FFC6BEA8
:1033200007D002D005D000D09EB602D0FDD700D085
:103330001200136EC9CF12F09E96C69E13C0C9FF2D
:10334000C6BE07D002D005D000D09EB602D0FDD7B1
:1033500000D012005250D8A40CD023C085F024C055
:1033600086F025C053F0010E0001996F010E526ED8
:1033700000D01200256E2550020D800EF324D96E68
:10338000050EF420DA6EDECF23F0DDCF24F000D07E
:103390001200C9CF23F09E96000EC96E00D09EA6E3
:1033A000FED7C95000D01200B5EC0CF000D082500E
:1033B00000D06BEC0FF0FBD755EF04F023C0A9FF52
:1033C000A69CA69EA68000F000F0A85000D0120097
:1033D000236E030EE82EFED700F0232EFAD700D07E
:1033E0001200236E210EE82EFED700F0232EFAD70E
:1033F00000D01200126E030EE82EFED700F0122E3F
:10340000FAD700D01200126E210EE82EFED700F07F
:10341000122EFAD700D01200C450256EC350236E6E
:1034200025C024F000D01200C2A202D0010E02D0AA
:10343000000E00D0120000D0A6B2FED71200C28249
:063440001200700F4800AD
:020000040020DA
:08000000FFFFFFFFFFFFFFFF00
:020000040030CA
:0E000000240E3F1EFF80A1FF0FC00FE00F4037
:0200000400F00A
:080000003400000000000000C4
:00000001FF
