:020000040000FA
:060000005AEF19F0120096
:0600080004EF04F01200F9
:080018000CEF04F01200DACF36
:10002000E4FFE2CFDAFFE9CFE4FFEACFE4FFF6CF67
:10003000E4FFF7CFE4FFF5CFE4FFF3CFE4FFF4CF25
:10004000E4FFFACFE4FF00EE00F0140EE80403E34F
:10005000EECFE4FFFBD700EE14F0040EE80403E358
:10006000EECFE4FFFBD7E652A1A20FD0CEC1B3FF83
:10007000CDC1B2FF0101CA3507E296EC14F00101CF
:10008000CA0502E179EC14F0A192E55200EE17F0F6
:10009000040EE80403E3E5CFEDFFFBD700EE13F019
:1000A000140EE80403E3E5CFEDFFFBD7E5CFFAFF3D
:1000B000E5CFF4FFE5CFF3FFE5CFF5FFE5CFF7FFA1
:1000C000E5CFF6FFE5CFEAFFE5CFE9FFE5CFDAFFC1
:1000D0001100D8CFE4FFE0CFE4FFE46EDACFE4FF15
:1000E000E2CFDAFFE6529EB29E92E552E5CFDAFF0A
:0C00F000E550E5CFE0FFE5CFD8FF1000A1
:060800005AEF19F012008E
:060808000FEF00F01200EA
:0608180069EF00F0120080
:06082A000300AE330000E4
:10083000DA01000005000000AC330000FD000000FC
:10084000020000005C330000800100005000000046
:10085000D9CFE6FFE1CFD9FFE652A09A6A6A686A6B
:10086000706A030EE66EE66AE66A710EE66E0F0EB9
:10087000E66E41EC18F0146E050EE15E1450160E93
:100880006F6E9F0E6B6E7B0E696EDF6ADF50146EAB
:10089000156A100E145C000E155810E2DF50040D9E
:1008A000F3CFE9FFF4CFEAFF000EE926040EEA22B7
:1008B000EE6AEE6AEE6AEE6ADF2AE8D76D8C6E6A3F
:1008C0006D986D9C68A607D0689602011B6B206B23
:1008D000216B226BF7D70201010E366F376F386B31
:1008E000396B286BDF6A040EDF5C26E2EA6ADF34CC
:1008F000FE0BEA36E96E0F0EE926020EEA22EE6AD8
:10090000ED6AEA6ADF34FE0BEA36E96E070EE92685
:10091000020EEA22EE6AED6ADF50EA6A2C0FE96EF7
:10092000020EEA22EF6ADF50EA6A300FE96E020E29
:10093000EA22EF6ADF2AD7D70201080E0F6F040EF2
:10094000106F160E706E0401400E026F040E036FDE
:10095000080E016F840E006F0201016B006BE552FF
:10096000E552E7CFD9FF1200D9CFE6FFE1CFD9FF9B
:10097000E65282BC06D06D6A696A0201006BA19AD8
:10098000B8D0020100510FE16D6A696A160E6F6EF0
:100990009F0E6B6E7B0E696E6DB602D06D86FCD7B6
:1009A0000201010E006F000508E16DBA06D0686A09
:1009B000696A69806988020E006F6850040B06E05E
:1009C0006950040B03E06894C5EC0AF06DA202D0F4
:1009D000A19A8FD06850010B08E06950010B05E027
:1009E00037DF0201040E006F68906850100B06E0BC
:1009F0006950100B03E0B0EC0AF0689868AC12D0B4
:100A000069AC0FD0010EE66EE66A000EE66EE66A8D
:100A1000730EE66EE66A2EEC16F0146E060EE15EBC
:100A20001450689C6850200B05E06950200B02E0D0
:100A300097EC0AF06850020B13E06950020B10E0CB
:100A4000010EE66EE66A000EE66EE66AE6687F0E66
:100A5000E66E2EEC16F0146E060EE15E14506A6A15
:100A6000040E0201E76E0019E8AE02D0E73402D0AE
:100A7000E750005D02E2A19A3CD069A639D0DF6A56
:100A8000040EDF5C35E268A632D06CCF29F2020199
:100A90002951780BE842E842E8422A6F689629B566
:100AA00008D02A51EA6A300FE96E020EEA22EF708E
:100AB00007D02A51EA6A2C0FE96E020EEA22EF7083
:100AC0002A5103E1DCEC0AF010D0000EE66EE66A73
:100AD000290EE66E020EE66E720EE66EE66A2EECE9
:100AE00016F0146E060EE15E1450DF2AC9D700D04E
:100AF000A19AE552E552E7CFD9FF1200D9CFE6FF20
:100B0000E1CFD9FF020EE126FD0EDBA407D0E66A95
:100B1000FE0EDBCFE6FF05DAE552E552FD0EDBA265
:100B200008D0010EE66EFE0EDBCFE6FFFAD9E552E5
:100B3000E552FE0EDB50156A700F146E0F0E152273
:100B400014C0DEFF15C0DDFFDECFE9FFDDCFEAFF19
:100B5000FD0EDBCFEFFF020EE15C02E2E16AE5523F
:100B6000E16EE552E7CFD9FF1200D9CFE6FFE1CF22
:100B7000D9FF020EE126FD0EDB500FE0FE0EEA6A01
:100B8000DB34FE0BEA36E96E0F0EE926020EEA228E
:100B9000EECFDEFFEDCFDDFF0ED0FE0EEA6ADB34D6
:100BA000FE0BEA36E96E070EE926020EEA22EECFC8
:100BB000DEFFEDCFDDFFD9CFE9FFDACFEAFFEE5060
:100BC000ED1003E1F36AF46A49D0DECFE9FFDDCF2F
:100BD000EAFF020EE926000EEA22FB0EDBCFEEFF53
:100BE000FC0EDBCFEDFFDECFE9FFDDCFEAFFEE52FB
:100BF000FA0EDBCFEFFF400E146EDECFE9FFDDCF44
:100C0000EAFF1450EF16880E146EDECFE9FFDDCF39
:100C1000EAFF1450EF12FD0EDB500CE0FE0EEA6A04
:100C2000DB34FE0BEA36E96E0F0EE926020EEA22ED
:100C3000EF740BD0FE0EEA6ADB34FE0BEA36E96E87
:100C4000070EE926020EEA22EF74DECF14F0DDCFA4
:100C500015F014C0F3FF15C0F4FF00D0020EE15CE4
:100C600002E2E16AE552E16EE552E7CFD9FF1200F8
:100C7000D9CFE6FFE1CFD9FF020EE126FE0EDB5011
:100C800020E105C2E9FF06C2EAFFEE52080EEF6E50
:100C900005C2E9FF06C2EAFF020EE926000EEA22BB
:100CA000400EEE6E040EED6E05C2E9FF06C2EAFFCD
:100CB0008C0EEF6E0FC2E9FF10C2EAFF840EEF6EDA
:100CC0003DD0FD0EDB50E824166EFE0EDB50040D09
:100CD000F3501624040DF3CF14F0F4CF15F0000EEA
:100CE0001426040E152214C0DEFF15C0DDFF840E8D
:100CF000146EDECFE9FFDDCFEAFF1450EF12FD0ED8
:100D0000DB50E824166EFE0EDB50040DF350162463
:100D1000010F040DF3CF14F0F4CF15F0000E1426DC
:100D2000040E152214C0DEFF15C0DDFF840E146E04
:100D3000DECFE9FFDDCFEAFF1450EF12020EE15CD7
:100D400002E2E16AE552E16EE552E7CFD9FF120017
:100D5000D9CFE6FFE1CFD9FF6DA84ED0FE0EEA6AEB
:100D6000DB34FE0BEA36E96E0F0EE926020EEA22AC
:100D7000EE50EFCFEAFFE96E400EEE16EE6AEE6A35
:100D8000EE6AFE0EEA6ADB34FE0BEA36E96E0F0EFF
:100D9000E926020EEA22EE50EFCFEAFFE96EEE7C82
:100DA000FE0EEA6ADB34FE0BEA36E96E0F0EE92628
:100DB000020EEA22EF74400E146EFE0EEA6ADB3475
:100DC000FE0BEA36E96E0F0EE926020EEA22EE501D
:100DD000EFCFEAFFE96E1450EF16FE0EEA6ADB343D
:100DE000FE0BEA36E96E0F0EE926020EEA22EE50FD
:100DF000EFCFEAFFE96EEF7CE552E7CFD9FF1200B3
:100E0000020136514DE1010E366F375149E1010EB5
:100E1000376F020E185D0DE10FC2E9FF10C2EAFF45
:100E2000EE52EF6A0FC2E9FF10C2EAFFC80EEF6E82
:100E300037D0180535E12B6B03C2E9FF04C2EAFF86
:100E4000EE52080EEF6E03C2E9FF04C2EAFF020E83
:100E5000E926000EEA22400EEE6E040EED6E03C28D
:100E6000E9FF04C2EAFF840EEF6E010E2B6F05C28C
:100E7000E9FF06C2EAFFEE52080EEF6E05C2E9FF77
:100E800006C2EAFF020EE926000EEA22400EEE6ECE
:100E9000040EED6E05C2E9FF06C2EAFF800EEF6E9A
:100EA00012000201386B396B020E185D1AE105C29F
:100EB000E9FF06C2EAFFEE52080EEF6E05C2E9FF37
:100EC00006C2EAFF020EE926000EEA22480EEE6E86
:100ED000040EED6E05C2E9FF06C2EAFFC80EEF6E12
:100EE0001FD01C510401465D02011D5104014759E8
:100EF00004E246C41CF247C41DF2D1D80FC2E9FF78
:100F000010C2EAFF020EE926000EEA22480EEE6E3B
:100F1000040EED6E0FC2E9FF10C2EAFFC80EEF6EBD
:100F20001200D9CFE6FFE1CFD9FF020EE126000E75
:100F3000DE6E040EDD6EFD0EDB50E824166EFE0E36
:100F4000DB50040DF3501624040DF3CF14F0F4CF4E
:100F500015F0D9CFE9FFDACFEAFF1450EE2615508D
:100F6000ED22DECFE9FFDDCFEAFFEF9EFD0EDB5085
:100F70000FE1FE0EEA6ADB34FE0BEA36E96E070E7D
:100F8000E926020EEA22DECFEEFFDDCFEDFF0ED026
:100F9000FE0EEA6ADB34FE0BEA36E96E0F0EE92636
:100FA000020EEA22DECFEEFFDDCFEDFFDECFE9FF5E
:100FB000DDCFEAFFEF9CDECFE9FFDDCFEAFF040ED5
:100FC000E926000EEA22EF8C020EE15C02E2E16A01
:100FD000E552E16EE552E7CFD9FF12006D980201AC
:100FE0001BBF2BD020AF09D0020E186F395101E181
:100FF00058DF0201376B366B1FD005C2E9FF06C20E
:10100000EAFFEE52080EEF6E05C2E9FF06C2EAFFE4
:10101000020EE926000EEA22400EEE6E040EED6E80
:1010200005C2E9FF06C2EAFF8C0EEF6E0FC2E9FFB0
:1010300010C2EAFF840EEF6E31D0040140AF0DD034
:101040000201010E186F385101E12BDF0201376BED
:10105000366B355101E1D4DE21D00201020E186F4A
:1010600005C2E9FF06C2EAFFEE52080EEF6E05C2A6
:10107000E9FF06C2EAFF020EE926000EEA22400E50
:10108000EE6E040EED6E05C2E9FF06C2EAFF840EA5
:10109000EF6E376B366B355101E1B2DE1200D9CFFE
:1010A000E6FFE1CFD9FFE652080EDF6E02011C5DBC
:1010B000000E1D590BE21CC2DFFF175103E1010EA8
:1010C000176F04D0170502E1020E176FDF50146E80
:1010D000156A14501C5D1C6F15501D591D6F0FC2F1
:1010E000E9FF10C2EAFFEE52DFCFEFFF480E256F97
:1010F000040E266F1BB119D0DF5016E019C2F6FF9F
:101100001AC2F7FF192B000E1A230800F550E66EDD
:1011100025C2E9FF26C2EAFF252B000E2623E55251
:10112000E750EF6EDF06E8D717D0DF5015E019C2A1
:10113000E9FF1AC2EAFF192B000E1A23EF50E66EE0
:1011400025C2E9FF26C2EAFF252B000E2623E55221
:10115000E750EF6EDF06E9D7E552E552E7CFD9FF5A
:101160001200D9CFE6FFE1CFD9FF020EE12603C27C
:10117000E9FF04C2EAFFEE52EFCFDFFFDFCF14F04A
:1011800014500201215D000E225902E221C2DFFF4C
:10119000DF50146E156A1450215D216F15502259CD
:1011A000226F010EDB6ADF50F36E010EDBCFF4FF1E
:1011B000F350F45C16E2010EDB50EA6A480FE96E68
:1011C000040EEA22EF50E66E1EC2E9FF1FC2EAFFDC
:1011D0001E2B000E1F23E552E750EF6E010EDB2A97
:1011E000E2D7000ED8802155000E225528E205C214
:1011F000E9FF06C2EAFFEE52080EEF6E05C2E9FFF4
:1012000006C2EAFF020EE926000EEA22480EEE6E42
:10121000040EED6E03C2E9FF04C2EAFFEF50400B7B
:1012200007E105C2E9FF06C2EAFFC80EEF6E06D06D
:1012300005C2E9FF06C2EAFF880EEF6E28D005C29C
:10124000E9FF06C2EAFFEE52080EEF6E05C2E9FFA3
:1012500006C2EAFF020EE926000EEA22400EEE6EFA
:10126000040EED6E05C2E9FF06C2EAFF840EEF6EC2
:101270002351241107E005D024C2FAFF02012351B3
:10128000F96EFADF0201209F355101E1B9DD020E4E
:10129000E15C02E2E16AE552E16EE552E7CFD9FF97
:1012A0001200D9CFE6FFE1CFD9FFE65202011B8F32
:1012B000030EE66EE66AE66A710EE66E0F0EE66EE5
:1012C00041EC18F0146E050EE15E1450DF6ADF5039
:1012D000146E156A100E145C000E155810E2DF50E3
:1012E000040DF3CFE9FFF4CFEAFF000EE926040E68
:1012F000EA22EE6AEE6AEE6AEE6ADF2AE8D76D8CC1
:10130000DF6A040EDF5C10E2DF50EA6A2C0FE96E40
:10131000020EEA22EF6ADF50EA6A300FE96E020E2F
:10132000EA22EF6ADF2AEDD7010EE66EE66AE66A88
:10133000020EE66E020EE66E41EC18F0146E050E1B
:10134000E15E14506D9C0201080E0F6F040E106FC9
:10135000000E036F040E046F03C205F204C206F20E
:1013600042C401F2015103E1100E006F13D0010ECF
:10137000E66EE66A010EE66E020EE66E010EE66E9F
:10138000E66A2EEC16F0146E060EE15E14500201B1
:10139000200E006FE552E552E7CFD9FF1200800E14
:1013A0000401405D5BE10201C00E1B6F040143516B
:1013B000030A34E0010A0EE0030A03E002011B6B9A
:1013C0004DD00201F20E196F2E0E1A6F120E1C6F05
:1013D0001D6B44D04251F66EF76AD890F636F73658
:1013E000930EF6262F0EF7220900F5CF19F20A0008
:1013F000F5CF1AF2020E0201F76A1925F66E1A519C
:10140000F7220800F5CF1CF2030EF76A1925F66ED5
:101410001A51F7220800F5CF1DF220D0040E425DCC
:101420001AE24251F66EF76AD890F636F736950E04
:10143000F6262F0EF7220900F5CF19F20A00F5CF94
:101440001AF219C2F6FF1AC2F7FF0800F55002019E
:101450001C6F1D6B02D002011B6B00D01200D9CF94
:10146000E6FFE1CFD9FF020EE1260401486B496B8C
:1014700040511F0B020A12E0030A0DE0010A01E0CD
:1014800042D002011B8F040148810201270502E1BD
:101490000401488338D002011B8F35D002011B8F15
:1014A000040144BF10D044510F0BE96EEA6AD89092
:1014B000E936EA36070EE926020EEA22EECFDEFF13
:1014C000EDCFDDFF0FD044510F0BE96EEA6AD890E3
:1014D000E936EA360F0EE926020EEA22EECFDEFFEB
:1014E000EDCFDDFFDECFE9FFDDCFEAFFEF50800B70
:1014F00009E0DECFE9FFDDCFEAFFEF50040B02E0A9
:10150000010E486F00D002011BAF07D0480E196FC3
:10151000040E1A6F1B81020E1C6F020EE15C02E2C8
:10152000E16AE552E16EE552E7CFD9FF120070A003
:1015300015D003C2E9FF04C2EAFFEF5080080DE1B5
:101540000FC2E9FF10C2EAFFEF50840806E103C2B0
:10155000E9FF04C2EAFF8C0EEF6E7090689A1200E9
:10156000698468986D820201010E286F000EE66E94
:10157000E66AE66EE66A750EE66EE66A2EEC16F030
:10158000146E060EE15E145012000201286B000E6C
:10159000E66EE66AE66EE66A740EE66EE66A2EECC3
:1015A00016F0146E060EE15E14506D92699468A4F4
:1015B00002D06894FCD71200D9CFE6FFE1CFD9FF63
:1015C000E652FD0E0201291553E17E0E2915E84071
:1015D0007F0B040DF3CF03F2F4CF04F2000E0327C8
:1015E000040E042303C205F204C206F2057503C209
:1015F000E9FF04C2EAFFEF503C0BE842E8420D0865
:1016000035E1DF6A080EDF5C23E203C2E9FF04C2B2
:10161000EAFF020EE926000EEA22EE50EFCFEAFFC3
:10162000E96EEF50E66EDF50EA6A400FE96E040E95
:10163000EA22E552E750EF6E03C2E9FF04C2EAFF77
:10164000020EE926000EEA22EE2AEF22DF2ADAD77E
:1016500003C2E9FF04C2EAFF020EE926000EEA22F5
:10166000400EEE6E040EED6E0DD801D03AD805D0C6
:10167000FD0E2915040801E159D8E552E552E7CFDE
:10168000D9FF12000201176B356B386B396B2B6B6E
:10169000186B0FC2E9FF10C2EAFFEF9E0F750FC271
:1016A000E9FF10C2EAFFEF9E0F7505C2E9FF06C20F
:1016B000EAFFEF9E1B6B1C6B1D6B206B216B226B7B
:1016C0008FD8000EE66EE66AE66EE66A030EE66EF8
:1016D000E66A2EEC16F0146E060EE15E1450EEEF84
:1016E00007F0020E0201185D02E13BDD1ED0186B0F
:1016F0002B511AE105C2E9FF06C2EAFFEE52080EBD
:10170000EF6E05C2E9FF06C2EAFF020EE926000EEF
:10171000EA22400EEE6E040EED6E05C2E9FF06C22F
:10172000EAFF8C0EEF6E01D02B6B1200D9CFE6FFD3
:10173000E1CFD9FFE6520FC2E9FF10C2EAFFEF5036
:10174000400B01E0010EDF6E02010F75080E005D17
:1017500009E142C46EFF6E5003E0100E006F02D02C
:10176000040E006F180528E10FC2E9FF10C2EAFF5E
:10177000020EE926000EEA22480EEE6E040EED6E11
:101780008EDC020E0201175D07E10FC2E9FF10C2F5
:10179000EAFF840EEF6E0FD0DF5007E10FC2E9FFC2
:1017A00010C2EAFFC80EEF6E06D00FC2E9FF10C2EA
:1017B000EAFF880EEF6E0FD020AF0CD0235124111A
:1017C00007E005D024C2FAFF02012351F96EFADFC7
:1017D0000201209F186BE552E552E7CFD9FF1200B6
:1017E00004014051600BE842E842E842E842E84226
:1017F000000901E058D041510C0A54E00B0A43E0C3
:101800000C0A35E0010A26E00B0A22E0020A20E079
:10181000030A1CE0080A10E0010A0CE00F0A08E0C5
:10182000030A01E03FD002011B8F080E006F3BD07E
:10183000B6DD39D036DD37D00201010E196F020E48
:101840001A6F1B81010E1C6F1B8F2DD008DE2BD051
:101850002BD829D044510201196F1A6B020E192797
:10186000020E1A231B81010E1C6F1B8F1CD002015C
:101870001B8F04014451EA6A020FE96E020EEA224C
:1018800042C4EFFF10D0000EE66EE66AE66EE66A2E
:10189000020EE66EE66A2EEC16F0146E060EE15E9F
:1018A000145001D000D01200D9CFE6FFE1CFD9FF0C
:1018B000050EE1260401420510E140511F0B00090D
:1018C0000CE102011B8F030E0401415D04E10201E2
:1018D000010E276F02D00201276B0401425101E083
:1018E00020D140511F0B020801E01BD144510F0BC6
:1018F000000901E116D144510F0B030801E211D197
:10190000200E0201005D01E00CD11B8F040144BFD9
:101910001AD044510F0BE96EEA6AD890E936EA36DC
:10192000070EE926020EEA22EECFDEFFEDCFDDFF45
:1019300044510F0BEA6A300FE96E020EEA22020EE2
:10194000EFCFDBFF19D044510F0BE96EEA6AD89054
:10195000E936EA360F0EE926020EEA22EECFDEFF66
:10196000EDCFDDFF44510F0BEA6A2C0FE96E020E3A
:10197000EA22020EEFCFDBFFD950020FE96EDACF79
:10198000EAFFEF50010B03E1000EDF9401D0DF848A
:1019900044BF10D044510F0BE96EEA6AD890E93683
:1019A000EA36070EE926020EEA22DECFEEFFDDCF91
:1019B000EDFF0FD044510F0BE96EEA6AD890E9367B
:1019C000EA360F0EE926020EEA22DECFEEFFDDCF69
:1019D000EDFF030E415D23E1DECFE9FFDDCFEAFF3E
:1019E000EF50800B13E044BF09D044510F0BEA6A5B
:1019F000300FE96E020EEA22EF8208D044510F0B3D
:101A0000EA6A2C0FE96E020EEA22EF82840E146E4F
:101A1000DECFE9FFDDCFEAFF1450EF1282D0DF7492
:101A2000DECFE9FFDDCFEAFFEF50800B1BE0DECF1A
:101A3000E9FFDDCFEAFFEF9EDECFE9FFDDCFEAFF72
:101A4000EF8C020EE66EE66ADECFE6FFDDCFE6FF44
:101A5000050EE66EE66A2EEC16F0146E060EE15EDA
:101A6000145005D0DECFE9FFDDCFEAFFEF8CDF7445
:101A7000D950020FE96EDACFEAFFEF50020B07E10F
:101A8000DECFE9FFDDCFEAFFEF50800B2DE0040150
:101A900044BF09D044510F0BEA6A300FE96E020EC1
:101AA000EA22EF9208D044510F0BEA6A2C0FE96E3C
:101AB000020EEA22EF923B0E146EDECFE9FFDDCF7D
:101AC000EAFF1450EF16020EE66EE66ADECFE6FF7E
:101AD000DDCFE6FF050EE66EE66A2EEC16F0146E1C
:101AE000060EE15E145008D03B0E146EDECFE9FF07
:101AF000DDCFEAFF1450EF16040144510F0B156AB5
:101B0000700F146E0F0E1522030E14C0DBFF040EAF
:101B100015C0DBFF030EDBCFE9FF040EDBCFEAFFCE
:101B2000EF90050EE15C02E2E16AE552E16EE552FA
:061B3000E7CFD9FF12000F
:0A1B3600D9CFE6FFE1CFD9FF01018E
:101B4000550E006FFE0EDBCF01F1036B0051011942
:101B50000319026F0001E55103E0E5EC11F0FAD73B
:101B6000E5510CE1040EE66E000EE66E010EE66E27
:101B700049EC11F0E552E552E55204D00101DD2BAC
:101B8000000EDE23E552E7CFD9FF1200D9CFE6FFE2
:101B9000E1CFD9FFE652FE0EDB503C0805E23C0ED9
:101BA000F36EFE0EF3CFDBFF0101550E006F200E2A
:101BB000016FFE0EDBCF03F1040E146EFE0EDBCFC1
:101BC000E7FF1450E726FE0EE7CFDBFF026BDF6A6C
:101BD000FE0EDB50DF5C0EE2020EDF5C09E0DF5040
:101BE000EA6A000FE96E010EEA22EF500101021BC2
:101BF000DF2AEED70001E55103E0E5EC11F0FAD75A
:101C0000E5510DE1FE0EDBCFE6FF000EE66E010EA4
:101C1000E66E49EC11F0E552E552E55204D00101BF
:101C2000DD2B000EDE23E552E552E7CFD9FF12008F
:101C3000D9CFE6FFE1CFD9FF0B0EE126050EDB6A17
:101C4000060EDB6A070EDB6A230EF36E090EF3CF76
:101C5000DBFF420EF36E0A0EF3CFDBFF200E020114
:101C6000E76E0019E8AE02D0E73402D0E750005D1D
:101C700003E36D50020B01E0D6D1400EE66E400E3C
:101C8000E66E010EE66EE8EC10F0E552E552E55224
:101C9000DF6E040EDF5C01E2C4D1AA0E0101405DDB
:101CA00001E0BFD1010E43C1DBFF020E41C1DBFFEA
:101CB000030E42C1DBFF010EDB50040F146EDF5038
:101CC000145C01E0A9D10101405101014119E76E05
:101CD000080EE7CFDBFF030EF36E040EF3CFDBFF3E
:101CE000DF50F36E040EDBCFF4FFF350F45C12E22E
:101CF000040EDB50EA6A400FE96E010EEA22080E7C
:101D0000DBCFE7FFEF50E71A080EE7CFDBFF040E4B
:101D1000DB2AE6D7080EDB50F36E030EDB50F35CD4
:101D200001E075D18B840101800EDA6F020EDB5069
:101D3000810A01E140D1010A01E12AD1820A01E1CF
:101D400017D1030A01E104D1500A01E1E6D0010AEA
:101D500001E1CAD0450A01E1B1D0010A01E195D003
:101D6000240A01E17FD0100A3AE0010A38E0610A52
:101D700001E048D1010EDB502DE1ABEC19F0A3ECF2
:101D800019F0000901E0FBD79AEC19F0060EF3CF29
:101D9000DBFF070EF4CFDBFFFF0EE76E060EDBCF97
:101DA00014F0070EDBCF15F0E7501416156A14C0B7
:101DB00004F1060EDBCF14F0070EDBCF15F015C0D3
:101DC00014F0156A14500101056F020EE66EDEDE96
:101DD000E55204D0030EE66EAEDEE55217D1010ED9
:101DE000DB5020083AE10101CA6B040EDB6A200EC9
:101DF000F36E040EDBCFF4FFF350F45C22E2040E2A
:101E0000DBCFE6FF020EDB50E00F200DF350E55272
:101E1000E724E76E050EE7CFDBFF040EDB50040F6F
:101E2000EA6A400FE96E010EEA22EF50E66E050EF7
:101E3000DBCFE6FF8BEC12F0E552E552040EDB2A15
:101E4000D6D70101010ECA6F0101DB2B000EDC2386
:101E5000010EE66E70DEE55204D0030EE66E6BDE18
:101E6000E552D4D0010EDB500BE1C1EC13F0C9C137
:101E700004F10101056B020EE66E88DEE55204D026
:101E8000030EE66E58DEE552C1D0010EDB5011E1C3
:101E900010EC14F00101CB510101046FCCC114F01E
:101EA000156A14500101056F020EE66E6FDEE552F1
:101EB00004D0030EE66E3FDEE552A8D0010EDB50E3
:101EC00002080DE10101441D0101CD6F0101451D15
:101ED0000101CE6F010EE66E2EDEE55204D0030E38
:101EE000E66E29DEE55292D0010EDB0411E1A8EC8A
:101EF00019F001014451E66EE66A19EC19F0E55259
:101F0000E5520101046F010EE66E40DEE55204D099
:101F1000030EE66E10DEE55279D0010EDB500208AA
:101F200012E1A8EC19F045C1E6FF01014451E66E4B
:101F3000E66ABAEC18F0E552E552E552010EE66E9B
:101F4000FADDE55204D0030EE66EF5DDE5525ED013
:101F5000010EDB5008E10101340E046F010EE66E44
:101F600015DEE55204D0030EE66EE5DDE5524ED0F7
:101F7000010EDB5008E10101010E046F010EE66E57
:101F800005DEE55204D0030EE66ED5DDE5523ED007
:101F9000010EDB500BE1090EDBCF04F10A0EDBCFA3
:101FA00005F1020EE66EF2DDE55204D0030EE66E98
:101FB000C2DDE5522BD0010EDB5002081EE1090EF6
:101FC000DB500101445D14E10A0EDB500101455D67
:101FD0000FE1F29E6D6A696A0201006BB4EC04F0D5
:101FE000120EE66E84EC19F0E55292EF03F004D085
:101FF000020EE66EA0DDE55204D0030EE66E9BDD18
:10200000E55204D0E66897DDE55200D004D0040E16
:10201000E66E91DDE55204D0030EE66E8CDDE552EE
:1020200002D0010EDB6A0B0EE15C02E2E16AE552CE
:0A203000E16EE552E7CFD9FF120080
:06203A00040140511F0BE0
:10204000010801E04AD04051600BE842E842E84212
:10205000E842E842010801E040D0445103E0440571
:1020600001E03BD04151220A33E0030A26E0010A95
:1020700017E0210A0EE0010A01E02FD00201F50E5F
:10208000196F000E1A6F080E1C6F1D6B1B811B8FC2
:1020900024D00201F50E196F000E1A6F1B8F1DD090
:1020A00046C421F247C422F20201880E1E6F050EBB
:1020B0001F6F236B246B208F10D00201880E196FC5
:1020C000050E1A6F070E1C6F1D6BC10E1B6F05D01E
:1020D00042C4F0F002011B8F00D012000501886B92
:1020E0004B0E896F8A6B8B6B8C6B8D6B080E8E6FB2
:1020F0000001E46B1A0EE66E020EE66E7EEC05F051
:10210000E552E5521E0EE66E030EE66E7EEC05F01D
:10211000E552E552400EE66E080EE66E050EE66EDE
:10212000E66A030EE66EB5EC05F0146E050EE15E90
:102130001450F3CFECF0F4CFEDF00001EE6BEF6B49
:10214000E56B1200D9CFE6FFE1CFD9FFFD0EDBCF63
:1021500008F0FE0EDBCF09F0050E081801E109506A
:1021600002E0000E31D0FB0EDBCF14F0FC0EDBCF13
:1021700015F00001EC51141802E1ED51151813E1AE
:10218000400EE66E080EE66E050EE66EE66A030E7B
:10219000E66EB5EC05F0146E050EE15E1450F3CF5B
:1021A000ECF0F4CFEDF0FB0EDBCF14F0FC0EDBCF48
:1021B00015F00001EE51141802E1EF51151802E17B
:1021C000E56BEA6B010E00D0E552E7CFD9FF1200B4
:1021D000D9CFE6FFE1CFD9FF0001E46BEC51ED115F
:1021E00002E1000E08D0ECC0E9FFEDC0EAFFEF50BD
:1021F000800B01E0010E000945E1FC0EDBCF14F07D
:10220000ECC0E9FFEDC0EAFFEE52EF50D880145465
:1022100008E2ECC0E9FFEDC0EAFFEE52FC0EEFCFA2
:10222000DBFFE46BFC0EDB50E45D19E2E451EA6A8B
:10223000080FE96E050EEA22EF50E66EE451E76EF4
:10224000FD0EDBCFE9FFFE0EDBCFEAFFE750E9260C
:10225000000EEA22E552E750EF6EE42BE3D7400E82
:10226000E66E080EE66E050EE66EE66A030EE66E94
:10227000B5EC05F0146E050EE15E1450F3CFECF0F2
:10228000F4CFEDF00001E45100D0E552E7CFD9FFE3
:102290001200D9CFE6FFE1CFD9FF0001E5510CE1F3
:1022A000FD0EDBCFE6F0FE0EDBCFE7F0FC0EDBCF62
:1022B000EAF0010EEB6FE56FE552E7CFD9FF1200B0
:1022C000D9CFE6FFE1CFD9FF030EE1260001E551AA
:1022D00001E02ED0DF6AFD0EDBCF08F0FE0EDBCF73
:1022E00009F0DE5208C0DEFF09C0DDFFDD52DF2A43
:1022F000DF50146E156AFF0E141801E1155001E14C
:102300000BD0010EDBCFE9FFDB2A020EDBCFEAFFA9
:1023100001E3DB2AEF50EBE1FD0EDBCFE6F0FE0E32
:10232000DBCFE7F0DFCFEAF00001010EEB6FE56FE6
:10233000030EE15C02E2E16AE552E16EE552E7CFAD
:10234000D9FF1200D9CFE6FFE1CFD9FF030EE12676
:102350000001E55101E02FD0DF6AFD0EDBCF08F070
:10236000FE0EDBCF09F0DE5208C0DEFF09C0DDFF44
:10237000DD52DF2ADF50146E156AFF0E141801E1DA
:10238000155001E10CD0010EDBCFF6FFDB2A020E67
:10239000DBCFF7FF01E3DB2A0800F550EAE1FD0E91
:1023A000DBCFE6F0FE0EDBCFE7F0DFCFEAF0000197
:1023B000EB6B010EE56F030EE15C02E2E16AE552B0
:1023C000E16EE552E7CFD9FF1200D9CFE6FFE1CFAA
:1023D000D9FF020EE1260001EE51EF1102E1000EDD
:1023E00008D0EEC0E9FFEFC0EAFFEF50800B01E03C
:1023F000010E000901E085D0030EE55D01E1E56B0A
:10240000E55101E17ED0020EE55D16E1E66A000EBF
:10241000E66EE66A010EE66E030EE66EB5EC05F0BA
:10242000146E050EE15E1450F3CFEEF0F4CFEFF032
:102430000001030EE56F65D0E50563E1400E146E03
:10244000156AEA51145C000E155803E2400EDF6E67
:1024500002D0EAC0DFFFDF50EA5DEA6F480EE86FA6
:10246000050EE96F010EDFCFDBFFEB5117E1010E27
:10247000DB5013E0E6C0F6FFE7C0F7FF0800F550B9
:10248000E8C0E9FFE9C0EAFFEF6EE82B000EE923A0
:10249000E62BE723010EDB06EAD715D0010EDB5051
:1024A00012E0E6C0E9FFE7C0EAFFEF50E8C0E9FF4D
:1024B000E9C0EAFFEF6EE82B000EE923E62BE723E5
:1024C000010EDB06EBD7EA5108E1400EDF5C03E1C9
:1024D000020EE56F02D0030EE56FDFCFE6FF480E78
:1024E000E66E050EE66E010EE66E030EE66EB5ECC8
:1024F00005F0146E050EE15E1450F3CFEEF0F4CF4C
:10250000EFF0020EE15C02E2E16AE552E16EE552B3
:06251000E7CFD9FF120025
:0A251600D9CFE6FFE1CFD9FF030E95
:10252000E1260101C951F36EFE0EDBCFF4FFF3503B
:10253000F45C01E31CD1FD0EDBCFE6FFFCEC18F0F0
:10254000E552F3CF14F0F4CF15F0141E151E010E52
:1025500014C0DBFF020E15C0DBFF300E0101C95DA8
:102560001DE1180EF36EFE0EDBCFF4FFF350F45CAA
:102570000BE2180E146EFE0EDBCFE7FF1450E726B9
:10258000FE0EE7CFDBFF0AD0180E146EFE0EDBCF77
:10259000E7FF1450E75EFE0EE7CFDBFFFE0EDB50D9
:1025A000030DF350DF6EDFA024D0F00E146EDF5069
:1025B000FE0BE842EA6A800FE96E010EEA2214502F
:1025C000EF16010EDBCF14F0020EDBCF15F0000E7C
:1025D00014160F0E151615C014F0156ADF50FE0BF9
:1025E000E842EA6A800FE96E010EEA221450EF1207
:1025F00026D00F0E146EDF50FE0BE842EA6A800F01
:10260000E96E010EEA221450EF16010EDBCF14F032
:10261000020EDBCF15F0000E14160F0E1516040E69
:10262000D89015321432E804FBE1DF50FE0BE8428B
:10263000EA6A800FE96E010EEA221450EF12DF2AD7
:10264000DFA028D0F00E146EDF50FE0BE842EA6ADD
:10265000800FE96E010EEA221450EF16F00EE76EBD
:10266000010EDBCF14F0020EDBCF15F0E75014168D
:10267000156A040ED89015321432E804FBE1DF50DD
:10268000FE0BE842EA6A800FE96E010EEA2214505E
:10269000EF1221D00F0E146EDF50FE0BE842EA6AF3
:1026A000800FE96E010EEA221450EF16F00EE76E6D
:1026B000010EDBCF14F0020EDBCF15F0E75014163D
:1026C000156ADF50FE0BE842EA6A800FE96E010EE0
:1026D000EA221450EF12DF2ADFA022D0F00E146E8F
:1026E000DF50FE0BE842EA6A800FE96E010EEA2233
:1026F0001450EF160F0EE76E010EDBCF14F0020E32
:10270000DBCF15F0E7501416156ADF50FE0BE842D8
:10271000EA6A800FE96E010EEA221450EF1227D008
:102720000F0E146EDF50FE0BE842EA6A800FE96E6E
:10273000010EEA221450EF160F0EE76E010EDBCFEA
:1027400014F0020EDBCF15F0E7501416156A040ED4
:10275000D89014361536E804FBE1DF50FE0BE84252
:10276000EA6A800FE96E010EEA221450EF12030E9E
:10277000E15C02E2E16AE552E16EE552E7CFD9FFA2
:102780001200D9CFE6FFE1CFD9FF020EE126010109
:10279000CA69480EC86F230EE66EDFEC18F0E552EA
:1027A000420EE66EDFEC18F0E552010EDF6EDF50F0
:1027B000146E156AD890155004E6FF0E145C000ED6
:1027C000155813E2E66ADFEC18F0E552420EC95CD8
:1027D00007E1010EDB50230803E1DFCFC8F105D08C
:1027E000010EC9CFDBFFDF2AE2D783D80101C85130
:1027F000E824146E030E156E15C00EF014C009F017
:1028000076EC19F009C0C9F10101CA6B020EE15C56
:1028100002E2E16AE552E16EE552E7CFD9FF12002C
:10282000D9CFE6FFE1CFD9FFE6520101CA69BE0E5A
:10283000E66E170EE66E6FDEE552E5525AD876D890
:10284000F290DF6AF2A031D0020EE66E84EC19F04D
:10285000E55281B829D0DF5002E1B36AB26A080EAE
:10286000DF5C21E1B2500101CB6FCC6BB350146E31
:10287000156A086A010E096E14C00DF015C00EF03D
:102880008DEC18F006500101CB270750CC23CBC1AB
:1028900014F0CCC115F0500E145E000E155A010E46
:1028A0000F0B09E003D0DF2AF290CCD7D890153275
:1028B0001432E806FBE1640E0D6E0E6A14C008F0D7
:1028C00015C009F034EC19F008C014F009C015F077
:1028D00014C0CFF1E66A170EE66E1DDEE552E55232
:1028E00008D824D80101CA6BE552E552E7CFD9FFD9
:1028F0001200D9CFE6FFE1CFD9FFE652DF6A01012E
:10290000C851DF5C0DE2DF50EA6A800FE96E010E0C
:10291000EA22EF50E66EDFEC18F0E552DF2AEFD73F
:10292000CA6BE552E552E7CFD9FF12008A8ACFC1C0
:10293000E6FF68EC19F0E5528B808A86280EE66E79
:1029400084EC19F0E5528A96280EE66E84EC19F0B4
:10295000E5528B90CFC1E6FF68EC19F0E5528A9AF8
:02296000120063
:0E29620009D88250400B03E00201005100E151
:10297000C3D8F8D71200D9CFE6FFE1CFD9FF040EB4
:10298000E126010EE66EE66AFE0EE66EE6683F0E92
:10299000E66ED9CFE6FFDACFE6FF1EEC18F0146E34
:1029A000070EE15E1450010EE66EE66AE668E66820
:1029B0003F0EE66ED950010FE66E000EDA20E66E8D
:1029C0001EEC18F0146E070EE15E1450DF50166E08
:1029D000176A16C017F0166A010EDB5000011624A4
:1029E000146E000E1720156E020E14C0DBFF030ECE
:1029F00015C0DBFFD950020FE96EDACFEAFF120EE5
:102A0000EE1802E1470EED1803E10F0EC16E0DD076
:102A1000D950020FE96EDACFEAFFFE0EEE1802E19E
:102A2000AF0EED1802E1F80ED36E948C966A956A9B
:102A30003F0E9316C30E9216F90E8B1694169282C1
:102A400093849388E66AE66A020EE66E5BEC18F001
:102A5000E552E552E55293969490939A8A968B802C
:102A60008A9AC1EC13F0B10EB16EA082A28210EC72
:102A700014F0CCC114F0156AFF0E1416000E1516D2
:102A8000FF0E14180101CE6FFF0E0101CB15146E5D
:102A9000156AFF0E14180101CD6F010EC26E0E0EE5
:102AA000C16EBE0EC06EF298F296CA68EA0ECB6E88
:102AB0009D929F9228EC04F0D08EF28CF28E040E40
:102AC000E15C02E2E16AE552E16EE552E7CFD9FF4F
:102AD00012008050020B01E0010E0001E05D09E0F0
:102AE0008050020B01E0010EE06F80B202D0010EB7
:102AF00002D0000E00D01200D9CFE6FFE1CFD9FFFF
:102B0000E652B4EC04F071D80101DA51000802E297
:102B1000DA0701D08B94DDDF00094FE00001E12BE3
:102B2000E151060801E2E16B0101CA6BDF6A0101B4
:102B3000C951DF5C3BE2030E0001E103F350F76A89
:102B40001E0FF66E330EF7220800F550E66EDFCF4B
:102B5000E6FF8BEC12F0E552E552030E0001E103B3
:102B6000F328F76A1E0FF66E330EF7220800F550B1
:102B7000E66EDF28E66E8BEC12F0E552E552030EAE
:102B80000001E103F350020FF76A1E0FF66E330ED9
:102B9000F7220800F550E66E020EDF24E66E8BEC9D
:102BA00012F0E552E552030EDF26C1D70101010EF6
:102BB000CA6F8B840101800EDA6F200E0201E76E6E
:102BC0000019E8AE02D0E73402D0E750005D03E31D
:102BD0006D50020B01E004D018EC0EF0E5EC11F0A2
:102BE000E552E552E7CFD9FF12000001FD51FE1179
:102BF00004E1100EFD6F270EFE6FFD07000EFE5B59
:102C00006D50020B020A01E0010E146E200E02014B
:102C1000005D02E0000E01D0010E141406E0000178
:102C2000FD51FE1101E18B7201D08B921200120056
:102C30001200120012001DEF10F012006EEF10F0E3
:102C40006D840001080EE26F070EE36FE207000ECD
:102C5000E35BE251E311FAE16D941200D9CFE6FF94
:102C6000E1CFD9FFFD0EDBCF08F0FE0EDBCF09F080
:102C7000720E081801E1095033E0E868081802E113
:102C80007F0E09182BE0740E081801E1095024E0AA
:102C9000750E081801E109501DE0730E081801E1D6
:102CA000095016E0030E081801E109500FE0020E6A
:102CB000081801E1095008E0010E081801E1095067
:102CC00001E010D0BBDF0FD0B8DF0DD0B4DF0BD0E8
:102CD000B0DF09D0ACDF07D0ABDF05D0ABDF03D06E
:102CE000000001D000D0010E00D0E552E7CFD9FF9F
:022CF0001200D0
:0E2CF2000000000000000000000000000000D4
:102D000001000100010001000200020002000300B6
:102D10000300040005000500060007000800090084
:102D20000A000B000C000E000F0010001200130030
:102D30001500170019001B001D001F0021002300B3
:102D4000250028002A002D0030003300360039000D
:102D50003C003F004200460049004D005100550034
:102D600058005D006100650069006E007300770027
:102D70007C00810086008C00910096009C00A200DF
:102D8000A800AD00B400BA00C000C700CD00D40058
:102D9000DB00E200E900F000F800FF0007010E018F
:102DA00016011E0127012F0138014001490152017E
:102DB0005B0164016D01770181018A0194019E012B
:102DC000A901B301BE01C801D301DE01E901F4018B
:102DD00000020C02170223022F023C024802540296
:102DE00061026E027B0288029602A302B102BF0258
:102DF000CD02DB02E902F8020703150325033403C1
:102E0000430353036203720382039303A303B403D4
:102E1000C403D503E603F80309041B042D043F048F
:102E200051046304760489049C04AF04C204D604EC
:102E3000E904FD04110525053A054E0563057805ED
:102E40008D05A305B805CE05E405FA05100627068D
:102E50003E0655066C0683069B06B206CA06E206C7
:102E6000FB0613072C0745075E0777079107AA079C
:102E7000C407DE07F90713082E084908640880080C
:102E80009B08B708D308EF080B0928094509620910
:102E90007F099D09BA09D809F609150A330A520AA9
:102EA000710A900AB00ACF0AEF0A0F0B2F0B500BD2
:102EB000710B920BB30BD40BF60B180C3A0C5C0C89
:102EC0007E0CA10CC40CE70C0B0D2E0D520D760DD3
:102ED0009B0DBF0DE40D090E2E0E540E790E9F0EA4
:102EE000C50EEC0E120F390F600F880FAF0FD70F02
:022EF000FF0FD2
:0E2EF2001201000202000008D8040A000001CC
:102F00000102030109024300020100C0320904006A
:102F10000001020201000524001001042402020540
:102F200024060001052401000107058203080002B0
:102F300009040100020A0000000705030240000026
:102F400007058302400000040309042603630040D0
:102F50000072007300740065006E007000720065FE
:102F60000073007300650072002E006400650000AD
:102F70000018034B00610072006100740065006C72
:102F80000069006700680074000A033200330061C2
:0D2F9000006600042F472F4B2F712F892F53
:022F9E002A0EF9
:102FA000F66E080EF76E000EF86E01010900F5507E
:102FB000D56F0900F550D66F03E1D56701D03DD03C
:102FC0000900F550D06F0900F550D16F0900F55098
:102FD000D26F09000900F550E96E0900F550EA6E5C
:102FE000090009000900F550D36F0900F550D46FAE
:102FF00009000900F6CFD7F1F7CFD8F1F8CFD9F112
:10300000D0C1F6FFD1C1F7FFD2C1F8FF0101D35300
:1030100002E1D45307E00900F550EE6ED307F8E261
:10302000D407F9D7D7C1F6FFD8C1F7FFD9C1F8FF48
:0C3030000101D507000ED65BBFD71200CF
:04303C00FB0EE3CFD5
:10304000F6FFFC0EE3CFF7FFFD0EE3CFF8FFFE0E19
:10305000E3CFE9FFFF0EE3CFEAFFE9CFF3FFEACFCB
:10306000F4FFF90EE35003E1FA0EE35009E0F90E24
:10307000E30602E2FA0EE3060900F5CFEEFFF1D710
:103080001200FE0EE3CFE9FFFF0EE3CFEAFFE9CF28
:10309000F3FFEACFF4FFFB0EE35003E1FC0EE35035
:1030A00009E0FB0EE30602E2FC0EE306FD0EE35030
:0630B000EE6EF1D71200E4
:0A30B600D9CFE6FFDACFE6FFE1CF45
:1030C000D9FFE2CFDAFF3F0EC716C66AFD0EDB500E
:1030D000C612FB0EDB50C712FC0EDB50030A09E0E0
:1030E000010A04E0020A06E1C78C04D0C78CC68836
:1030F00001D0C688FD0EDB50050A03E0010A03E19A
:10310000928A938201D093929380949EC68AE552CC
:0A311000E5CFDAFFE7CFD9FF120088
:06311A0009C013F008C01B
:1031200012F008500D02F4CF07F0F3CF06F009506B
:103130000E02F4CF09F0F3CF08F00D02F35007268A
:10314000F4500822E86A092212500E02F3500726B2
:10315000F4500822E86A09220EAEB3EF18F01250BC
:10316000085E1350095A13AE000C0D50085E0E5045
:04317000095A000CEC
:0C317400D9CFE6FFDACFE6FFE1CFD9FFAC
:10318000E2CFDAFFFF0EE76EFC0EDBCF14F0E75064
:1031900014161450A96EFB0EDB50A86EA69EA69CBA
:1031A000A684F29E550EA76EAA0EA76EA682F28E78
:0E31B000A694E552E5CFDAFFE7CFD9FF120073
:0231BE00D9CF67
:1031C000E6FFDACFE6FFE1CFD9FFE2CFDAFFE65242
:1031D000C950DF6E9E96FD0EDB50C96EC6AE02D0A2
:1031E000FF0E03D09EA6FED7000EE552E552E5CFB6
:0831F000DAFFE7CFD9FF12005E
:0831F800D9CFE6FFE1CFD9FFBA
:10320000FE0EF76ADB34FE0BF736F66EF20EF6268C
:103210002C0EF7220900F5CF14F00800F5CF15F0B9
:1032200014C0F3FF15C0F4FF00D0E552E7CFD9FF7B
:0232300012008A
:0E323200D9CFE6FFDACFE6FFE1CFD9FFE2CF3A
:10324000DAFFFF0EE76EFC0EDBCF14F0E75014162A
:103250001450A96EA69CA69EA680A850E552E5CF64
:08326000DAFFE7CFD9FF1200ED
:08326800056A046A100EE76E0E
:10327000D89008360936043605360D50045C0E50D9
:10328000055805E30D50045E0E50055A082AE72E36
:04329000F0D7120061
:0C329400000EF36E00EE00F0040E01D8F6
:1032A0001200EA6002D0EE6AFCD7F350E960120027
:0432B000EE6AFCD7EF
:0C32B40013EE00F023EE00F0F86A019C1D
:1032C000CFEC17F0ADEC19F0B1EC14F0FBD7120015
:1032D000FF0EE350186E1B0E00D001D0200EE76EDB
:0C32E000E72EFED7182EFAD700D01200FF
:0432EC00056A080E59
:1032F000E76ED890093605360E50055C02E3056E80
:08330000092AE72EF7D712009D
:08330800FF0EE350E84E120035
:0E331000000000D000D000D0E82EFAD7120046
:02331E00FF00AE
:103320000000FF000000FFFF00FF00FFFFFFFF00A5
:03333000FFFFFF9D
:0C333400C450176E166AC3501610F36EDA
:0633400017C0F4FF1200AB
:0A334600C250020B01E0010E12005C
:06335000A6B2FED7120038
:04335600C28212001D
:02335A0012005F
:04335C00FFFFFFFF71
:10336000FFFFFFFFFFFFFFFFFFFFFFFFFFFFFFFF6D
:10337000FFFFFFFFFFFFFFFFFFFFFFFFFFFFFFFF5D
:10338000FFFFFFFFFFFFFFFFFFFFFFFFFFFFFFFF4D
:10339000FFFFFFFFFFFFFFFFFFFFFFFFFFFFFFFF3D
:0C33A000FFFFFFFF4830000000000000AD
:0233AC0000001F
:0233AE0000001D
:0333B0000000001A
:020000040030CA
:0100000024DB
:010001000EF0
:010002003FBE
:010003001EDE
:0100050000FA
:01000600A158
:010008000FE8
:01000900C036
:01000A000FE6
:01000B00E014
:01000C000FE4
:01000D0040B2
:0200000400F00A
:0400000034000000C8
:00000001FF
